{"contracts/EMS.sol":{"EMS":{"abi":[{"inputs":[{"internalType":"string","name":"","type":"string"},{"internalType":"uint256","name":"","type":"uint256"}],"name":"CaseEvidence","outputs":[{"internalType":"uint256","name":"ID","type":"uint256"},{"internalType":"string","name":"filename","type":"string"},{"internalType":"string","name":"filetype","type":"string"},{"internalType":"string","name":"desc","type":"string"},{"internalType":"string","name":"valid","type":"string"},{"internalType":"address","name":"officer","type":"address"},{"internalType":"string","name":"caseUID","type":"string"},{"internalType":"string","name":"hash","type":"string"},{"internalType":"uint256","name":"timestamp","type":"uint256"}],"stateMutability":"view","type":"function"},{"inputs":[{"internalType":"string","name":"","type":"string"}],"name":"EvidenceisinList","outputs":[{"internalType":"bool","name":"","type":"bool"}],"stateMutability":"view","type":"function"},{"inputs":[{"internalType":"string","name":"","type":"string"}],"name":"HashEvidence","outputs":[{"internalType":"uint256","name":"","type":"uint256"}],"stateMutability":"view","type":"function"},{"inputs":[{"internalType":"string","name":"","type":"string"}],"name":"UIDCase","outputs":[{"internalType":"uint256","name":"","type":"uint256"}],"stateMutability":"view","type":"function"},{"inputs":[{"internalType":"string","name":"_UID","type":"string"}],"name":"UID_viewCase","outputs":[{"components":[{"internalType":"uint256","name":"ID","type":"uint256"},{"internalType":"string","name":"UID","type":"string"},{"internalType":"string","name":"SUID","type":"string"},{"internalType":"string","name":"name","type":"string"},{"internalType":"string","name":"desc","type":"string"},{"internalType":"string","name":"caseType","type":"string"},{"internalType":"string","name":"status","type":"string"},{"internalType":"address","name":"upladedBy","type":"address"},{"internalType":"uint256","name":"timestamp","type":"uint256"}],"internalType":"struct EMS.Case","name":"","type":"tuple"}],"stateMutability":"view","type":"function"},{"inputs":[{"internalType":"string","name":"","type":"string"}],"name":"UIDinCaseList","outputs":[{"internalType":"bool","name":"","type":"bool"}],"stateMutability":"view","type":"function"},{"inputs":[{"internalType":"string","name":"filename","type":"string"},{"internalType":"string","name":"filetype","type":"string"},{"internalType":"string","name":"desc","type":"string"},{"internalType":"string","name":"caseUID","type":"string"},{"internalType":"string","name":"hash","type":"string"}],"name":"addEvidence","outputs":[],"stateMutability":"nonpayable","type":"function"},{"inputs":[],"name":"caseCount","outputs":[{"internalType":"uint256","name":"","type":"uint256"}],"stateMutability":"view","type":"function"},{"inputs":[{"internalType":"uint256","name":"","type":"uint256"}],"name":"caseList","outputs":[{"internalType":"uint256","name":"ID","type":"uint256"},{"internalType":"string","name":"UID","type":"string"},{"internalType":"string","name":"SUID","type":"string"},{"internalType":"string","name":"name","type":"string"},{"internalType":"string","name":"desc","type":"string"},{"internalType":"string","name":"caseType","type":"string"},{"internalType":"string","name":"status","type":"string"},{"internalType":"address","name":"upladedBy","type":"address"},{"internalType":"uint256","name":"timestamp","type":"uint256"}],"stateMutability":"view","type":"function"},{"inputs":[],"name":"evidenceCount","outputs":[{"internalType":"uint256","name":"","type":"uint256"}],"stateMutability":"view","type":"function"},{"inputs":[{"internalType":"uint256","name":"","type":"uint256"}],"name":"isCaseID","outputs":[{"internalType":"bool","name":"","type":"bool"}],"stateMutability":"view","type":"function"},{"inputs":[{"internalType":"uint256","name":"","type":"uint256"}],"name":"trackChangeinCase","outputs":[{"internalType":"uint256","name":"caseID","type":"uint256"},{"internalType":"string","name":"UID","type":"string"},{"internalType":"string","name":"changeIn","type":"string"},{"internalType":"string","name":"prevValue","type":"string"},{"internalType":"string","name":"updatedValue","type":"string"},{"internalType":"address","name":"updatedBy","type":"address"},{"internalType":"uint256","name":"timestamp","type":"uint256"}],"stateMutability":"view","type":"function"},{"inputs":[{"internalType":"uint256","name":"","type":"uint256"}],"name":"trackEvidence","outputs":[{"internalType":"uint256","name":"evidenceID","type":"uint256"},{"internalType":"string","name":"caseUID","type":"string"},{"internalType":"string","name":"changeIn","type":"string"},{"internalType":"string","name":"prevValue","type":"string"},{"internalType":"string","name":"updatedValue","type":"string"},{"internalType":"address","name":"updatedBy","type":"address"},{"internalType":"uint256","name":"timestamp","type":"uint256"}],"stateMutability":"view","type":"function"},{"inputs":[{"internalType":"string","name":"_UID","type":"string"},{"internalType":"string","name":"_name","type":"string"},{"internalType":"string","name":"_desc","type":"string"},{"internalType":"string","name":"_caseType","type":"string"},{"internalType":"string","name":"_status","type":"string"},{"internalType":"string","name":"_SUID","type":"string"}],"name":"updateCase","outputs":[],"stateMutability":"nonpayable","type":"function"},{"inputs":[{"internalType":"uint256","name":"_ID","type":"uint256"},{"internalType":"string","name":"_valid","type":"string"},{"internalType":"string","name":"_desc","type":"string"}],"name":"updateEvidence","outputs":[],"stateMutability":"nonpayable","type":"function"},{"inputs":[{"internalType":"string","name":"UID","type":"string"},{"internalType":"string","name":"SUID","type":"string"},{"internalType":"string","name":"_name","type":"string"},{"internalType":"string","name":"_desc","type":"string"},{"internalType":"string","name":"_type","type":"string"},{"internalType":"string","name":"_status","type":"string"}],"name":"uploadCase","outputs":[],"stateMutability":"nonpayable","type":"function"},{"inputs":[],"name":"viewCase","outputs":[{"components":[{"internalType":"uint256","name":"ID","type":"uint256"},{"internalType":"string","name":"UID","type":"string"},{"internalType":"string","name":"SUID","type":"string"},{"internalType":"string","name":"name","type":"string"},{"internalType":"string","name":"desc","type":"string"},{"internalType":"string","name":"caseType","type":"string"},{"internalType":"string","name":"status","type":"string"},{"internalType":"address","name":"upladedBy","type":"address"},{"internalType":"uint256","name":"timestamp","type":"uint256"}],"internalType":"struct EMS.Case[]","name":"","type":"tuple[]"}],"stateMutability":"view","type":"function"},{"inputs":[],"name":"viewChangesInEvidence","outputs":[{"components":[{"internalType":"uint256","name":"evidenceID","type":"uint256"},{"internalType":"string","name":"caseUID","type":"string"},{"internalType":"string","name":"changeIn","type":"string"},{"internalType":"string","name":"prevValue","type":"string"},{"internalType":"string","name":"updatedValue","type":"string"},{"internalType":"address","name":"updatedBy","type":"address"},{"internalType":"uint256","name":"timestamp","type":"uint256"}],"internalType":"struct EMS.TrackEvidence[]","name":"","type":"tuple[]"}],"stateMutability":"view","type":"function"},{"inputs":[],"name":"viewEvidence","outputs":[{"components":[{"internalType":"uint256","name":"ID","type":"uint256"},{"internalType":"string","name":"filename","type":"string"},{"internalType":"string","name":"filetype","type":"string"},{"internalType":"string","name":"desc","type":"string"},{"internalType":"string","name":"valid","type":"string"},{"internalType":"address","name":"officer","type":"address"},{"internalType":"string","name":"caseUID","type":"string"},{"internalType":"string","name":"hash","type":"string"},{"internalType":"uint256","name":"timestamp","type":"uint256"}],"internalType":"struct EMS.Evidence[]","name":"","type":"tuple[]"}],"stateMutability":"view","type":"function"},{"inputs":[{"internalType":"uint256","name":"_ID","type":"uint256"}],"name":"viewEvidenceByID","outputs":[{"components":[{"internalType":"uint256","name":"ID","type":"uint256"},{"internalType":"string","name":"filename","type":"string"},{"internalType":"string","name":"filetype","type":"string"},{"internalType":"string","name":"desc","type":"string"},{"internalType":"string","name":"valid","type":"string"},{"internalType":"address","name":"officer","type":"address"},{"internalType":"string","name":"caseUID","type":"string"},{"internalType":"string","name":"hash","type":"string"},{"internalType":"uint256","name":"timestamp","type":"uint256"}],"internalType":"struct EMS.Evidence","name":"","type":"tuple"}],"stateMutability":"view","type":"function"},{"inputs":[],"name":"viewTrackChangeinCase","outputs":[{"components":[{"internalType":"uint256","name":"caseID","type":"uint256"},{"internalType":"string","name":"UID","type":"string"},{"internalType":"string","name":"changeIn","type":"string"},{"internalType":"string","name":"prevValue","type":"string"},{"internalType":"string","name":"updatedValue","type":"string"},{"internalType":"address","name":"updatedBy","type":"address"},{"internalType":"uint256","name":"timestamp","type":"uint256"}],"internalType":"struct EMS.TrackChangeinCase[]","name":"","type":"tuple[]"}],"stateMutability":"view","type":"function"}],"evm":{"bytecode":{"linkReferences":{},"object":"608060405260008055600060015534801561001957600080fd5b50614a5f806100296000396000f3fe608060405234801561001057600080fd5b50600436106101375760003560e01c8063b62f444e116100b8578063d3d2bcbd1161007c578063d3d2bcbd14610324578063da2d7e9514610339578063df70e81e14610342578063e49f4d3c14610357578063e5414ca81461036a578063fae1711a1461039257600080fd5b8063b62f444e14610250578063bb69350d1461027b578063c657e22d146102a3578063d061a19e146102e1578063d34bb8d5146102f657600080fd5b806374d95ada116100ff57806374d95ada146101d55780638169c611146101e85780639dce4667146101fb578063a2ed5af01461020e578063b4277ffd1461022557600080fd5b80630c57d2321461013c5780632687ec42146101515780633140ec361461017a57806353fc6cbc146101a057806357958e52146101b5575b600080fd5b61014f61014a366004613f27565b6103b5565b005b61016461015f36600461401c565b610f50565b604051610171919061417d565b60405180910390f35b61018d610188366004614197565b611404565b60405161017197969594939291906141b0565b6101a861167c565b60405161017191906142b8565b6101c86101c3366004614197565b611950565b60405161017191906143f0565b61018d6101e3366004614197565b611e12565b61014f6101f6366004614403565b611e22565b61014f610209366004614470565b612639565b61021760005481565b604051908152602001610171565b61021761023336600461401c565b805160208183018101805160078252928201919093012091525481565b61021761025e36600461401c565b8051602081830181018051600a8252928201919093012091525481565b61028e610289366004614197565b612a35565b60405161017199989796959493929190614542565b6102d16102b136600461401c565b805160208183018101805160098252928201919093012091525460ff1681565b6040519015158152602001610171565b6102e9612dc9565b60405161017191906145e3565b6102d161030436600461401c565b805160208183018101805160068252928201919093012091525460ff1681565b61032c6131b9565b604051610171919061463a565b61021760015481565b61034a6135a7565b6040516101719190614691565b61014f610365366004613f27565b613872565b61037d6103783660046146e8565b613acb565b6040516101719998979695949392919061472d565b6102d16103a0366004614197565b60086020526000908152604090205460ff1681565b6006866040516103c591906147d2565b9081526040519081900360200190205460ff1661041f5760405162461bcd60e51b815260206004820152601360248201527210d85cd9481a5cc81b9bdd081c1c995cd95b9d606a1b60448201526064015b60405180910390fd5b6000600160078860405161043391906147d2565b90815260200160405180910390205461044c9190614804565b90508480519060200120600482815481106104695761046961481d565b906000526020600020906009020160040160405161048791906148e0565b604051809103902014610684576000600482815481106104a9576104a961481d565b906000526020600020906009020160040180546104c590614833565b80601f01602080910402602001604051908101604052809291908181526020018280546104f190614833565b801561053e5780601f106105135761010080835404028352916020019161053e565b820191906000526020600020905b81548152906001019060200180831161052157829003601f168201915b5050505050905085600483815481106105595761055961481d565b90600052602060002090600902016004019081610576919061493d565b5060056040518060e0016040528084600161059191906149fd565b815260208082018c9052604080518082018252600b81526a2232b9b1b934b83a34b7b760a91b818401529083015260608201859052608082018a90523360a08301524260c0909201919091528254600181810185556000948552938290208351600790920201908155908201519192909190820190610610908261493d565b5060408201516002820190610625908261493d565b506060820151600382019061063a908261493d565b506080820151600482019061064f908261493d565b5060a08201516005820180546001600160a01b0319166001600160a01b0390921691909117905560c090910151600690910155505b85805190602001206004828154811061069f5761069f61481d565b90600052602060002090600902016003016040516106bd91906148e0565b6040518091039020146108b3576000600482815481106106df576106df61481d565b906000526020600020906009020160030180546106fb90614833565b80601f016020809104026020016040519081016040528092919081815260200182805461072790614833565b80156107745780601f1061074957610100808354040283529160200191610774565b820191906000526020600020905b81548152906001019060200180831161075757829003601f168201915b50505050509050866004838154811061078f5761078f61481d565b906000526020600020906009020160030190816107ac919061493d565b5060056040518060e001604052808460016107c791906149fd565b815260208082018c905260408051808201825260048152634e616d6560e01b818401529083015260608201859052608082018b90523360a08301524260c090920191909152825460018181018555600094855293829020835160079092020190815590820151919290919082019061083f908261493d565b5060408201516002820190610854908261493d565b5060608201516003820190610869908261493d565b506080820151600482019061087e908261493d565b5060a08201516005820180546001600160a01b0319166001600160a01b0390921691909117905560c090910151600690910155505b8380519060200120600482815481106108ce576108ce61481d565b90600052602060002090600902016005016040516108ec91906148e0565b604051809103902014610ae75760006004828154811061090e5761090e61481d565b9060005260206000209060090201600501805461092a90614833565b80601f016020809104026020016040519081016040528092919081815260200182805461095690614833565b80156109a35780601f10610978576101008083540402835291602001916109a3565b820191906000526020600020905b81548152906001019060200180831161098657829003601f168201915b5050505050905084600483815481106109be576109be61481d565b906000526020600020906009020160030190816109db919061493d565b5060056040518060e001604052808460016109f691906149fd565b815260208082018c9052604080518082018252600981526843617365205479706560b81b818401529083015260608201859052608082018990523360a08301524260c0909201919091528254600181810185556000948552938290208351600790920201908155908201519192909190820190610a73908261493d565b5060408201516002820190610a88908261493d565b5060608201516003820190610a9d908261493d565b5060808201516004820190610ab2908261493d565b5060a08201516005820180546001600160a01b0319166001600160a01b0390921691909117905560c090910151600690910155505b818051906020012060048281548110610b0257610b0261481d565b9060005260206000209060090201600201604051610b2091906148e0565b604051809103902014610d1657600060048281548110610b4257610b4261481d565b90600052602060002090600902016002018054610b5e90614833565b80601f0160208091040260200160405190810160405280929190818152602001828054610b8a90614833565b8015610bd75780601f10610bac57610100808354040283529160200191610bd7565b820191906000526020600020905b815481529060010190602001808311610bba57829003601f168201915b505050505090508260048381548110610bf257610bf261481d565b90600052602060002090600902016003019081610c0f919061493d565b5060056040518060e00160405280846001610c2a91906149fd565b815260208082018c9052604080518082018252600481526314d5525160e21b818401529083015260608201859052608082018790523360a08301524260c0909201919091528254600181810185556000948552938290208351600790920201908155908201519192909190820190610ca2908261493d565b5060408201516002820190610cb7908261493d565b5060608201516003820190610ccc908261493d565b5060808201516004820190610ce1908261493d565b5060a08201516005820180546001600160a01b0319166001600160a01b0390921691909117905560c090910151600690910155505b828051906020012060048281548110610d3157610d3161481d565b9060005260206000209060090201600601604051610d4f91906148e0565b604051809103902014610f4757600060048281548110610d7157610d7161481d565b90600052602060002090600902016006018054610d8d90614833565b80601f0160208091040260200160405190810160405280929190818152602001828054610db990614833565b8015610e065780601f10610ddb57610100808354040283529160200191610e06565b820191906000526020600020905b815481529060010190602001808311610de957829003601f168201915b505050505090508360048381548110610e2157610e2161481d565b90600052602060002090600902016003019081610e3e919061493d565b5060056040518060e00160405280846001610e5991906149fd565b815260208082018c9052604080518082018252600681526553746174757360d01b818401529083015260608201859052608082018890523360a08301524260c0909201919091528254600181810185556000948552938290208351600790920201908155908201519192909190820190610ed3908261493d565b5060408201516002820190610ee8908261493d565b5060608201516003820190610efd908261493d565b5060808201516004820190610f12908261493d565b5060a08201516005820180546001600160a01b0319166001600160a01b0390921691909117905560c090910151600690910155505b50505050505050565b610fa86040518061012001604052806000815260200160608152602001606081526020016060815260200160608152602001606081526020016060815260200160006001600160a01b03168152602001600081525090565b600682604051610fb891906147d2565b9081526040519081900360200190205460ff1661100d5760405162461bcd60e51b815260206004820152601360248201527210d85cd9481a5cc81b9bdd081c1c995cd95b9d606a1b6044820152606401610416565b6000600160078460405161102191906147d2565b90815260200160405180910390205461103a9190614804565b90506004818154811061104f5761104f61481d565b9060005260206000209060090201604051806101200160405290816000820154815260200160018201805461108390614833565b80601f01602080910402602001604051908101604052809291908181526020018280546110af90614833565b80156110fc5780601f106110d1576101008083540402835291602001916110fc565b820191906000526020600020905b8154815290600101906020018083116110df57829003601f168201915b5050505050815260200160028201805461111590614833565b80601f016020809104026020016040519081016040528092919081815260200182805461114190614833565b801561118e5780601f106111635761010080835404028352916020019161118e565b820191906000526020600020905b81548152906001019060200180831161117157829003601f168201915b505050505081526020016003820180546111a790614833565b80601f01602080910402602001604051908101604052809291908181526020018280546111d390614833565b80156112205780601f106111f557610100808354040283529160200191611220565b820191906000526020600020905b81548152906001019060200180831161120357829003601f168201915b5050505050815260200160048201805461123990614833565b80601f016020809104026020016040519081016040528092919081815260200182805461126590614833565b80156112b25780601f10611287576101008083540402835291602001916112b2565b820191906000526020600020905b81548152906001019060200180831161129557829003601f168201915b505050505081526020016005820180546112cb90614833565b80601f01602080910402602001604051908101604052809291908181526020018280546112f790614833565b80156113445780601f1061131957610100808354040283529160200191611344565b820191906000526020600020905b81548152906001019060200180831161132757829003601f168201915b5050505050815260200160068201805461135d90614833565b80601f016020809104026020016040519081016040528092919081815260200182805461138990614833565b80156113d65780601f106113ab576101008083540402835291602001916113d6565b820191906000526020600020905b8154815290600101906020018083116113b957829003601f168201915b505050918352505060078201546001600160a01b031660208201526008909101546040909101529392505050565b6003818154811061141457600080fd5b6000918252602090912060079091020180546001820180549193509061143990614833565b80601f016020809104026020016040519081016040528092919081815260200182805461146590614833565b80156114b25780601f10611487576101008083540402835291602001916114b2565b820191906000526020600020905b81548152906001019060200180831161149557829003601f168201915b5050505050908060020180546114c790614833565b80601f01602080910402602001604051908101604052809291908181526020018280546114f390614833565b80156115405780601f1061151557610100808354040283529160200191611540565b820191906000526020600020905b81548152906001019060200180831161152357829003601f168201915b50505050509080600301805461155590614833565b80601f016020809104026020016040519081016040528092919081815260200182805461158190614833565b80156115ce5780601f106115a3576101008083540402835291602001916115ce565b820191906000526020600020905b8154815290600101906020018083116115b157829003601f168201915b5050505050908060040180546115e390614833565b80601f016020809104026020016040519081016040528092919081815260200182805461160f90614833565b801561165c5780601f106116315761010080835404028352916020019161165c565b820191906000526020600020905b81548152906001019060200180831161163f57829003601f168201915b50505050600583015460069093015491926001600160a01b031691905087565b60606005805480602002602001604051908101604052809291908181526020016000905b8282101561194757838290600052602060002090600702016040518060e0016040529081600082015481526020016001820180546116dd90614833565b80601f016020809104026020016040519081016040528092919081815260200182805461170990614833565b80156117565780601f1061172b57610100808354040283529160200191611756565b820191906000526020600020905b81548152906001019060200180831161173957829003601f168201915b5050505050815260200160028201805461176f90614833565b80601f016020809104026020016040519081016040528092919081815260200182805461179b90614833565b80156117e85780601f106117bd576101008083540402835291602001916117e8565b820191906000526020600020905b8154815290600101906020018083116117cb57829003601f168201915b5050505050815260200160038201805461180190614833565b80601f016020809104026020016040519081016040528092919081815260200182805461182d90614833565b801561187a5780601f1061184f5761010080835404028352916020019161187a565b820191906000526020600020905b81548152906001019060200180831161185d57829003601f168201915b5050505050815260200160048201805461189390614833565b80601f01602080910402602001604051908101604052809291908181526020018280546118bf90614833565b801561190c5780601f106118e15761010080835404028352916020019161190c565b820191906000526020600020905b8154815290600101906020018083116118ef57829003601f168201915b505050918352505060058201546001600160a01b031660208083019190915260069092015460409091015290825260019290920191016116a0565b50505050905090565b6119a8604051806101200160405280600081526020016060815260200160608152602001606081526020016060815260200160006001600160a01b031681526020016060815260200160608152602001600081525090565b600960026119b7600185614804565b815481106119c7576119c761481d565b90600052602060002090600902016007016040516119e591906148e0565b9081526040519081900360200190205460ff16611a3d5760405162461bcd60e51b8152602060048201526016602482015275115d9a59195b98d948191bd95cdb89dd08195e1a5cdd60521b6044820152606401610416565b6002611a4a600184614804565b81548110611a5a57611a5a61481d565b90600052602060002090600902016040518061012001604052908160008201548152602001600182018054611a8e90614833565b80601f0160208091040260200160405190810160405280929190818152602001828054611aba90614833565b8015611b075780601f10611adc57610100808354040283529160200191611b07565b820191906000526020600020905b815481529060010190602001808311611aea57829003601f168201915b50505050508152602001600282018054611b2090614833565b80601f0160208091040260200160405190810160405280929190818152602001828054611b4c90614833565b8015611b995780601f10611b6e57610100808354040283529160200191611b99565b820191906000526020600020905b815481529060010190602001808311611b7c57829003601f168201915b50505050508152602001600382018054611bb290614833565b80601f0160208091040260200160405190810160405280929190818152602001828054611bde90614833565b8015611c2b5780601f10611c0057610100808354040283529160200191611c2b565b820191906000526020600020905b815481529060010190602001808311611c0e57829003601f168201915b50505050508152602001600482018054611c4490614833565b80601f0160208091040260200160405190810160405280929190818152602001828054611c7090614833565b8015611cbd5780601f10611c9257610100808354040283529160200191611cbd565b820191906000526020600020905b815481529060010190602001808311611ca057829003601f168201915b505050918352505060058201546001600160a01b03166020820152600682018054604090920191611ced90614833565b80601f0160208091040260200160405190810160405280929190818152602001828054611d1990614833565b8015611d665780601f10611d3b57610100808354040283529160200191611d66565b820191906000526020600020905b815481529060010190602001808311611d4957829003601f168201915b50505050508152602001600782018054611d7f90614833565b80601f0160208091040260200160405190810160405280929190818152602001828054611dab90614833565b8015611df85780601f10611dcd57610100808354040283529160200191611df8565b820191906000526020600020905b815481529060010190602001808311611ddb57829003601f168201915b505050505081526020016008820154815250509050919050565b6005818154811061141457600080fd5b60096002611e31600186614804565b81548110611e4157611e4161481d565b9060005260206000209060090201600701604051611e5f91906148e0565b9081526040519081900360200190205460ff16611eb75760405162461bcd60e51b8152602060048201526016602482015275115d9a59195b98d948191bd95cdb89dd08195e1a5cdd60521b6044820152606401610416565b60006002611ec6600186614804565b81548110611ed657611ed661481d565b90600052602060002090600902016006018054611ef290614833565b80601f0160208091040260200160405190810160405280929190818152602001828054611f1e90614833565b8015611f6b5780601f10611f4057610100808354040283529160200191611f6b565b820191906000526020600020905b815481529060010190602001808311611f4e57829003601f168201915b5050505050905082805190602001206002600186611f899190614804565b81548110611f9957611f9961481d565b9060005260206000209060090201600401604051611fb791906148e0565b6040518091039020146122d25760006002611fd3600187614804565b81548110611fe357611fe361481d565b90600052602060002090600902016004018054611fff90614833565b80601f016020809104026020016040519081016040528092919081815260200182805461202b90614833565b80156120785780601f1061204d57610100808354040283529160200191612078565b820191906000526020600020905b81548152906001019060200180831161205b57829003601f168201915b5050505050905083600260018761208f9190614804565b8154811061209f5761209f61481d565b906000526020600020906009020160040190816120bc919061493d565b5083600b836040516120ce91906147d2565b9081526040519081900360200190206120e8600188614804565b815481106120f8576120f861481d565b90600052602060002090600902016004019081612115919061493d565b5060036040518060e0016040528087815260200160026001896121389190614804565b815481106121485761214861481d565b9060005260206000209060090201600601805461216490614833565b80601f016020809104026020016040519081016040528092919081815260200182805461219090614833565b80156121dd5780601f106121b2576101008083540402835291602001916121dd565b820191906000526020600020905b8154815290600101906020018083116121c057829003601f168201915b5050509183525050604080518082018252600881526756616c696469747960c01b60208281019190915280840191909152908201859052606082018890523360808301524260a090920191909152825460018181018555600094855293829020835160079092020190815590820151919290919082019061225e908261493d565b5060408201516002820190612273908261493d565b5060608201516003820190612288908261493d565b506080820151600482019061229d908261493d565b5060a08201516005820180546001600160a01b0319166001600160a01b0390921691909117905560c090910151600690910155505b8151602083012060026122e6600187614804565b815481106122f6576122f661481d565b906000526020600020906009020160030160405161231491906148e0565b6040518091039020146126335760006002612330600187614804565b815481106123405761234061481d565b9060005260206000209060090201600301805461235c90614833565b80601f016020809104026020016040519081016040528092919081815260200182805461238890614833565b80156123d55780601f106123aa576101008083540402835291602001916123d5565b820191906000526020600020905b8154815290600101906020018083116123b857829003601f168201915b505050505090508260026001876123ec9190614804565b815481106123fc576123fc61481d565b90600052602060002090600902016003019081612419919061493d565b5082600b8360405161242b91906147d2565b908152604051908190036020019020612445600188614804565b815481106124555761245561481d565b90600052602060002090600902016003019081612472919061493d565b5060036040518060e0016040528087815260200160026001896124959190614804565b815481106124a5576124a561481d565b906000526020600020906009020160060180546124c190614833565b80601f01602080910402602001604051908101604052809291908181526020018280546124ed90614833565b801561253a5780601f1061250f5761010080835404028352916020019161253a565b820191906000526020600020905b81548152906001019060200180831161251d57829003601f168201915b5050509183525050604080518082018252600c81526b2232b9b1b934b834ba34b7b760a11b60208281019190915280840191909152908201859052606082018790523360808301524260a09092019190915282546001818101855560009485529382902083516007909202019081559082015191929091908201906125bf908261493d565b50604082015160028201906125d4908261493d565b50606082015160038201906125e9908261493d565b50608082015160048201906125fe908261493d565b5060a08201516005820180546001600160a01b0319166001600160a01b0390921691909117905560c090910151600690910155505b50505050565b60098160405161264991906147d2565b9081526040519081900360200190205460ff16156126a95760405162461bcd60e51b815260206004820152601960248201527f45766964656e65636520616c726561647920696e204c697374000000000000006044820152606401610416565b6006826040516126b991906147d2565b9081526040519081900360200190205460ff1661270d5760405162461bcd60e51b815260206004820152601260248201527110d85cd948191bd95cdb89dd08195e1a5cdd60721b6044820152606401610416565b60008054908061271c83614a10565b909155505060408051610120810182526000805482526020808301898152838501899052606084018890528451808601909552600585526415985b1a5960da1b9185019190915260808301939093523360a083015260c0820185905260e0820184905242610100830152600280546001810182559152815160099091027f405787fa12a823e0f2b7631cc41b3ba8828b3321ca811111fa75cd3aa3bb5ace81019182559251919290917f405787fa12a823e0f2b7631cc41b3ba8828b3321ca811111fa75cd3aa3bb5acf909101906127f4908261493d565b5060408201516002820190612809908261493d565b506060820151600382019061281e908261493d565b5060808201516004820190612833908261493d565b5060a08201516005820180546001600160a01b0319166001600160a01b0390921691909117905560c0820151600682019061286e908261493d565b5060e08201516007820190612883908261493d565b506101008201518160080155505060016009826040516128a391906147d2565b908152604051908190036020018120805492151560ff199093169290921790915560005490600a906128d69084906147d2565b908152602001604051809103902081905550600b826040516128f891906147d2565b908152604080519182900360209081018320610120840183526000805485528483018a81528585018a9052606086018990528451808601909552600585526415985b1a5960da1b8585015260808601949094523360a086015260c0850187905260e0850186905242610100860152815460018181018455928252929020845160099093020191825591519091820190612991908261493d565b50604082015160028201906129a6908261493d565b50606082015160038201906129bb908261493d565b50608082015160048201906129d0908261493d565b5060a08201516005820180546001600160a01b0319166001600160a01b0390921691909117905560c08201516006820190612a0b908261493d565b5060e08201516007820190612a20908261493d565b50610100820151816008015550505050505050565b60048181548110612a4557600080fd5b60009182526020909120600990910201805460018201805491935090612a6a90614833565b80601f0160208091040260200160405190810160405280929190818152602001828054612a9690614833565b8015612ae35780601f10612ab857610100808354040283529160200191612ae3565b820191906000526020600020905b815481529060010190602001808311612ac657829003601f168201915b505050505090806002018054612af890614833565b80601f0160208091040260200160405190810160405280929190818152602001828054612b2490614833565b8015612b715780601f10612b4657610100808354040283529160200191612b71565b820191906000526020600020905b815481529060010190602001808311612b5457829003601f168201915b505050505090806003018054612b8690614833565b80601f0160208091040260200160405190810160405280929190818152602001828054612bb290614833565b8015612bff5780601f10612bd457610100808354040283529160200191612bff565b820191906000526020600020905b815481529060010190602001808311612be257829003601f168201915b505050505090806004018054612c1490614833565b80601f0160208091040260200160405190810160405280929190818152602001828054612c4090614833565b8015612c8d5780601f10612c6257610100808354040283529160200191612c8d565b820191906000526020600020905b815481529060010190602001808311612c7057829003601f168201915b505050505090806005018054612ca290614833565b80601f0160208091040260200160405190810160405280929190818152602001828054612cce90614833565b8015612d1b5780601f10612cf057610100808354040283529160200191612d1b565b820191906000526020600020905b815481529060010190602001808311612cfe57829003601f168201915b505050505090806006018054612d3090614833565b80601f0160208091040260200160405190810160405280929190818152602001828054612d5c90614833565b8015612da95780601f10612d7e57610100808354040283529160200191612da9565b820191906000526020600020905b815481529060010190602001808311612d8c57829003601f168201915b50505050600783015460089093015491926001600160a01b031691905089565b60606004805480602002602001604051908101604052809291908181526020016000905b8282101561194757838290600052602060002090600902016040518061012001604052908160008201548152602001600182018054612e2b90614833565b80601f0160208091040260200160405190810160405280929190818152602001828054612e5790614833565b8015612ea45780601f10612e7957610100808354040283529160200191612ea4565b820191906000526020600020905b815481529060010190602001808311612e8757829003601f168201915b50505050508152602001600282018054612ebd90614833565b80601f0160208091040260200160405190810160405280929190818152602001828054612ee990614833565b8015612f365780601f10612f0b57610100808354040283529160200191612f36565b820191906000526020600020905b815481529060010190602001808311612f1957829003601f168201915b50505050508152602001600382018054612f4f90614833565b80601f0160208091040260200160405190810160405280929190818152602001828054612f7b90614833565b8015612fc85780601f10612f9d57610100808354040283529160200191612fc8565b820191906000526020600020905b815481529060010190602001808311612fab57829003601f168201915b50505050508152602001600482018054612fe190614833565b80601f016020809104026020016040519081016040528092919081815260200182805461300d90614833565b801561305a5780601f1061302f5761010080835404028352916020019161305a565b820191906000526020600020905b81548152906001019060200180831161303d57829003601f168201915b5050505050815260200160058201805461307390614833565b80601f016020809104026020016040519081016040528092919081815260200182805461309f90614833565b80156130ec5780601f106130c1576101008083540402835291602001916130ec565b820191906000526020600020905b8154815290600101906020018083116130cf57829003601f168201915b5050505050815260200160068201805461310590614833565b80601f016020809104026020016040519081016040528092919081815260200182805461313190614833565b801561317e5780601f106131535761010080835404028352916020019161317e565b820191906000526020600020905b81548152906001019060200180831161316157829003601f168201915b505050918352505060078201546001600160a01b03166020808301919091526008909201546040909101529082526001929092019101612ded565b60606002805480602002602001604051908101604052809291908181526020016000905b828210156119475783829060005260206000209060090201604051806101200160405290816000820154815260200160018201805461321b90614833565b80601f016020809104026020016040519081016040528092919081815260200182805461324790614833565b80156132945780601f1061326957610100808354040283529160200191613294565b820191906000526020600020905b81548152906001019060200180831161327757829003601f168201915b505050505081526020016002820180546132ad90614833565b80601f01602080910402602001604051908101604052809291908181526020018280546132d990614833565b80156133265780601f106132fb57610100808354040283529160200191613326565b820191906000526020600020905b81548152906001019060200180831161330957829003601f168201915b5050505050815260200160038201805461333f90614833565b80601f016020809104026020016040519081016040528092919081815260200182805461336b90614833565b80156133b85780601f1061338d576101008083540402835291602001916133b8565b820191906000526020600020905b81548152906001019060200180831161339b57829003601f168201915b505050505081526020016004820180546133d190614833565b80601f01602080910402602001604051908101604052809291908181526020018280546133fd90614833565b801561344a5780601f1061341f5761010080835404028352916020019161344a565b820191906000526020600020905b81548152906001019060200180831161342d57829003601f168201915b505050918352505060058201546001600160a01b0316602082015260068201805460409092019161347a90614833565b80601f01602080910402602001604051908101604052809291908181526020018280546134a690614833565b80156134f35780601f106134c8576101008083540402835291602001916134f3565b820191906000526020600020905b8154815290600101906020018083116134d657829003601f168201915b5050505050815260200160078201805461350c90614833565b80601f016020809104026020016040519081016040528092919081815260200182805461353890614833565b80156135855780601f1061355a57610100808354040283529160200191613585565b820191906000526020600020905b81548152906001019060200180831161356857829003601f168201915b50505050508152602001600882015481525050815260200190600101906131dd565b60606003805480602002602001604051908101604052809291908181526020016000905b8282101561194757838290600052602060002090600702016040518060e00160405290816000820154815260200160018201805461360890614833565b80601f016020809104026020016040519081016040528092919081815260200182805461363490614833565b80156136815780601f1061365657610100808354040283529160200191613681565b820191906000526020600020905b81548152906001019060200180831161366457829003601f168201915b5050505050815260200160028201805461369a90614833565b80601f01602080910402602001604051908101604052809291908181526020018280546136c690614833565b80156137135780601f106136e857610100808354040283529160200191613713565b820191906000526020600020905b8154815290600101906020018083116136f657829003601f168201915b5050505050815260200160038201805461372c90614833565b80601f016020809104026020016040519081016040528092919081815260200182805461375890614833565b80156137a55780601f1061377a576101008083540402835291602001916137a5565b820191906000526020600020905b81548152906001019060200180831161378857829003601f168201915b505050505081526020016004820180546137be90614833565b80601f01602080910402602001604051908101604052809291908181526020018280546137ea90614833565b80156138375780601f1061380c57610100808354040283529160200191613837565b820191906000526020600020905b81548152906001019060200180831161381a57829003601f168201915b505050918352505060058201546001600160a01b031660208083019190915260069092015460409091015290825260019290920191016135cb565b8560068160405161388391906147d2565b9081526040519081900360200190205460ff16156138e35760405162461bcd60e51b815260206004820181905260248201527f43617365207769746820746869732055494420616c72656164792045786973746044820152606401610416565b600180549060006138f383614a10565b90915550506040805161012081018252600180548252602082018a8152928201899052606082018890526080820187905260a0820186905260c082018590523360e083015242610100830152600480549182018155600052815160099091027f8a35acfbc15ff81a39ae7d344fd709f28e8600b4aa8c65c6b64bfe7fe36bd19b81019182559251919290917f8a35acfbc15ff81a39ae7d344fd709f28e8600b4aa8c65c6b64bfe7fe36bd19c909101906139ad908261493d565b50604082015160028201906139c2908261493d565b50606082015160038201906139d7908261493d565b50608082015160048201906139ec908261493d565b5060a08201516005820190613a01908261493d565b5060c08201516006820190613a16908261493d565b5060e08201516007820180546001600160a01b0319166001600160a01b0390921691909117905561010090910151600890910155604051600190600690613a5e908a906147d2565b908152604051908190036020018120805492151560ff199093169290921790915560015490600790613a91908a906147d2565b9081526040805160209281900383019020929092556001805460009081526008909252919020805460ff1916909117905550505050505050565b8151602081840181018051600b825292820191850191909120919052805482908110613af657600080fd5b906000526020600020906009020160009150915050806000015490806001018054613b2090614833565b80601f0160208091040260200160405190810160405280929190818152602001828054613b4c90614833565b8015613b995780601f10613b6e57610100808354040283529160200191613b99565b820191906000526020600020905b815481529060010190602001808311613b7c57829003601f168201915b505050505090806002018054613bae90614833565b80601f0160208091040260200160405190810160405280929190818152602001828054613bda90614833565b8015613c275780601f10613bfc57610100808354040283529160200191613c27565b820191906000526020600020905b815481529060010190602001808311613c0a57829003601f168201915b505050505090806003018054613c3c90614833565b80601f0160208091040260200160405190810160405280929190818152602001828054613c6890614833565b8015613cb55780601f10613c8a57610100808354040283529160200191613cb5565b820191906000526020600020905b815481529060010190602001808311613c9857829003601f168201915b505050505090806004018054613cca90614833565b80601f0160208091040260200160405190810160405280929190818152602001828054613cf690614833565b8015613d435780601f10613d1857610100808354040283529160200191613d43565b820191906000526020600020905b815481529060010190602001808311613d2657829003601f168201915b505050600584015460068501805494956001600160a01b03909216949193509150613d6d90614833565b80601f0160208091040260200160405190810160405280929190818152602001828054613d9990614833565b8015613de65780601f10613dbb57610100808354040283529160200191613de6565b820191906000526020600020905b815481529060010190602001808311613dc957829003601f168201915b505050505090806007018054613dfb90614833565b80601f0160208091040260200160405190810160405280929190818152602001828054613e2790614833565b8015613e745780601f10613e4957610100808354040283529160200191613e74565b820191906000526020600020905b815481529060010190602001808311613e5757829003601f168201915b5050505050908060080154905089565b634e487b7160e01b600052604160045260246000fd5b600082601f830112613eab57600080fd5b813567ffffffffffffffff80821115613ec657613ec6613e84565b604051601f8301601f19908116603f01168101908282118183101715613eee57613eee613e84565b81604052838152866020858801011115613f0757600080fd5b836020870160208301376000602085830101528094505050505092915050565b60008060008060008060c08789031215613f4057600080fd5b863567ffffffffffffffff80821115613f5857600080fd5b613f648a838b01613e9a565b97506020890135915080821115613f7a57600080fd5b613f868a838b01613e9a565b96506040890135915080821115613f9c57600080fd5b613fa88a838b01613e9a565b95506060890135915080821115613fbe57600080fd5b613fca8a838b01613e9a565b94506080890135915080821115613fe057600080fd5b613fec8a838b01613e9a565b935060a089013591508082111561400257600080fd5b5061400f89828a01613e9a565b9150509295509295509295565b60006020828403121561402e57600080fd5b813567ffffffffffffffff81111561404557600080fd5b61405184828501613e9a565b949350505050565b60005b8381101561407457818101518382015260200161405c565b50506000910152565b60008151808452614095816020860160208601614059565b601f01601f19169290920160200192915050565b60006101208251845260208301518160208601526140c98286018261407d565b915050604083015184820360408601526140e3828261407d565b915050606083015184820360608601526140fd828261407d565b91505060808301518482036080860152614117828261407d565b91505060a083015184820360a0860152614131828261407d565b91505060c083015184820360c086015261414b828261407d565b91505060e083015161416860e08601826001600160a01b03169052565b50610100928301519390920192909252919050565b60208152600061419060208301846140a9565b9392505050565b6000602082840312156141a957600080fd5b5035919050565b87815260e0602082015260006141c960e083018961407d565b82810360408401526141db818961407d565b905082810360608401526141ef818861407d565b90508281036080840152614203818761407d565b6001600160a01b039590951660a0840152505060c0015295945050505050565b805182526000602082015160e0602085015261424260e085018261407d565b90506040830151848203604086015261425b828261407d565b91505060608301518482036060860152614275828261407d565b9150506080830151848203608086015261428f828261407d565b60a0858101516001600160a01b03169087015260c0948501519490950193909352509192915050565b600060208083016020845280855180835260408601915060408160051b87010192506020870160005b8281101561430f57603f198886030184526142fd858351614223565b945092850192908501906001016142e1565b5092979650505050505050565b600061012082518452602083015181602086015261433c8286018261407d565b91505060408301518482036040860152614356828261407d565b91505060608301518482036060860152614370828261407d565b9150506080830151848203608086015261438a828261407d565b91505060a08301516143a760a08601826001600160a01b03169052565b5060c083015184820360c08601526143bf828261407d565b91505060e083015184820360e08601526143d9828261407d565b610100948501519590940194909452509092915050565b602081526000614190602083018461431c565b60008060006060848603121561441857600080fd5b83359250602084013567ffffffffffffffff8082111561443757600080fd5b61444387838801613e9a565b9350604086013591508082111561445957600080fd5b5061446686828701613e9a565b9150509250925092565b600080600080600060a0868803121561448857600080fd5b853567ffffffffffffffff808211156144a057600080fd5b6144ac89838a01613e9a565b965060208801359150808211156144c257600080fd5b6144ce89838a01613e9a565b955060408801359150808211156144e457600080fd5b6144f089838a01613e9a565b9450606088013591508082111561450657600080fd5b61451289838a01613e9a565b9350608088013591508082111561452857600080fd5b5061453588828901613e9a565b9150509295509295909350565b60006101208b835280602084015261455c8184018c61407d565b90508281036040840152614570818b61407d565b90508281036060840152614584818a61407d565b90508281036080840152614598818961407d565b905082810360a08401526145ac818861407d565b905082810360c08401526145c0818761407d565b6001600160a01b039590951660e084015250506101000152979650505050505050565b600060208083016020845280855180835260408601915060408160051b87010192506020870160005b8281101561430f57603f198886030184526146288583516140a9565b9450928501929085019060010161460c565b600060208083016020845280855180835260408601915060408160051b87010192506020870160005b8281101561430f57603f1988860301845261467f85835161431c565b94509285019290850190600101614663565b600060208083016020845280855180835260408601915060408160051b87010192506020870160005b8281101561430f57603f198886030184526146d6858351614223565b945092850192908501906001016146ba565b600080604083850312156146fb57600080fd5b823567ffffffffffffffff81111561471257600080fd5b61471e85828601613e9a565b95602094909401359450505050565b60006101208b83528060208401526147478184018c61407d565b9050828103604084015261475b818b61407d565b9050828103606084015261476f818a61407d565b90508281036080840152614783818961407d565b6001600160a01b03881660a085015283810360c085015290506147a6818761407d565b905082810360e08401526147ba818661407d565b915050826101008301529a9950505050505050505050565b600082516147e4818460208701614059565b9190910192915050565b634e487b7160e01b600052601160045260246000fd5b81810381811115614817576148176147ee565b92915050565b634e487b7160e01b600052603260045260246000fd5b600181811c9082168061484757607f821691505b60208210810361486757634e487b7160e01b600052602260045260246000fd5b50919050565b6000815461487a81614833565b6001828116801561489257600181146148a7576148d6565b60ff19841687528215158302870194506148d6565b8560005260208060002060005b858110156148cd5781548a8201529084019082016148b4565b50505082870194505b5050505092915050565b6000614190828461486d565b601f821115614938576000816000526020600020601f850160051c810160208610156149155750805b601f850160051c820191505b8181101561493457828155600101614921565b5050505b505050565b815167ffffffffffffffff81111561495757614957613e84565b61496b816149658454614833565b846148ec565b602080601f8311600181146149a057600084156149885750858301515b600019600386901b1c1916600185901b178555614934565b600085815260208120601f198616915b828110156149cf578886015182559484019460019091019084016149b0565b50858210156149ed5787850151600019600388901b60f8161c191681555b5050505050600190811b01905550565b80820180821115614817576148176147ee565b600060018201614a2257614a226147ee565b506001019056fea2646970667358221220257e5537986b44691403b9cced97a3fd6ca1bf3e373f25b9966d6c6a20abbbce64736f6c63430008180033","opcodes":"PUSH1 0x80 PUSH1 0x40 MSTORE PUSH1 0x0 DUP1 SSTORE PUSH1 0x0 PUSH1 0x1 SSTORE CALLVALUE DUP1 ISZERO PUSH2 0x19 JUMPI PUSH1 0x0 DUP1 REVERT JUMPDEST POP PUSH2 0x4A5F DUP1 PUSH2 0x29 PUSH1 0x0 CODECOPY PUSH1 0x0 RETURN INVALID PUSH1 0x80 PUSH1 0x40 MSTORE CALLVALUE DUP1 ISZERO PUSH2 0x10 JUMPI PUSH1 0x0 DUP1 REVERT JUMPDEST POP PUSH1 0x4 CALLDATASIZE LT PUSH2 0x137 JUMPI PUSH1 0x0 CALLDATALOAD PUSH1 0xE0 SHR DUP1 PUSH4 0xB62F444E GT PUSH2 0xB8 JUMPI DUP1 PUSH4 0xD3D2BCBD GT PUSH2 0x7C JUMPI DUP1 PUSH4 0xD3D2BCBD EQ PUSH2 0x324 JUMPI DUP1 PUSH4 0xDA2D7E95 EQ PUSH2 0x339 JUMPI DUP1 PUSH4 0xDF70E81E EQ PUSH2 0x342 JUMPI DUP1 PUSH4 0xE49F4D3C EQ PUSH2 0x357 JUMPI DUP1 PUSH4 0xE5414CA8 EQ PUSH2 0x36A JUMPI DUP1 PUSH4 0xFAE1711A EQ PUSH2 0x392 JUMPI PUSH1 0x0 DUP1 REVERT JUMPDEST DUP1 PUSH4 0xB62F444E EQ PUSH2 0x250 JUMPI DUP1 PUSH4 0xBB69350D EQ PUSH2 0x27B JUMPI DUP1 PUSH4 0xC657E22D EQ PUSH2 0x2A3 JUMPI DUP1 PUSH4 0xD061A19E EQ PUSH2 0x2E1 JUMPI DUP1 PUSH4 0xD34BB8D5 EQ PUSH2 0x2F6 JUMPI PUSH1 0x0 DUP1 REVERT JUMPDEST DUP1 PUSH4 0x74D95ADA GT PUSH2 0xFF JUMPI DUP1 PUSH4 0x74D95ADA EQ PUSH2 0x1D5 JUMPI DUP1 PUSH4 0x8169C611 EQ PUSH2 0x1E8 JUMPI DUP1 PUSH4 0x9DCE4667 EQ PUSH2 0x1FB JUMPI DUP1 PUSH4 0xA2ED5AF0 EQ PUSH2 0x20E JUMPI DUP1 PUSH4 0xB4277FFD EQ PUSH2 0x225 JUMPI PUSH1 0x0 DUP1 REVERT JUMPDEST DUP1 PUSH4 0xC57D232 EQ PUSH2 0x13C JUMPI DUP1 PUSH4 0x2687EC42 EQ PUSH2 0x151 JUMPI DUP1 PUSH4 0x3140EC36 EQ PUSH2 0x17A JUMPI DUP1 PUSH4 0x53FC6CBC EQ PUSH2 0x1A0 JUMPI DUP1 PUSH4 0x57958E52 EQ PUSH2 0x1B5 JUMPI JUMPDEST PUSH1 0x0 DUP1 REVERT JUMPDEST PUSH2 0x14F PUSH2 0x14A CALLDATASIZE PUSH1 0x4 PUSH2 0x3F27 JUMP JUMPDEST PUSH2 0x3B5 JUMP JUMPDEST STOP JUMPDEST PUSH2 0x164 PUSH2 0x15F CALLDATASIZE PUSH1 0x4 PUSH2 0x401C JUMP JUMPDEST PUSH2 0xF50 JUMP JUMPDEST PUSH1 0x40 MLOAD PUSH2 0x171 SWAP2 SWAP1 PUSH2 0x417D JUMP JUMPDEST PUSH1 0x40 MLOAD DUP1 SWAP2 SUB SWAP1 RETURN JUMPDEST PUSH2 0x18D PUSH2 0x188 CALLDATASIZE PUSH1 0x4 PUSH2 0x4197 JUMP JUMPDEST PUSH2 0x1404 JUMP JUMPDEST PUSH1 0x40 MLOAD PUSH2 0x171 SWAP8 SWAP7 SWAP6 SWAP5 SWAP4 SWAP3 SWAP2 SWAP1 PUSH2 0x41B0 JUMP JUMPDEST PUSH2 0x1A8 PUSH2 0x167C JUMP JUMPDEST PUSH1 0x40 MLOAD PUSH2 0x171 SWAP2 SWAP1 PUSH2 0x42B8 JUMP JUMPDEST PUSH2 0x1C8 PUSH2 0x1C3 CALLDATASIZE PUSH1 0x4 PUSH2 0x4197 JUMP JUMPDEST PUSH2 0x1950 JUMP JUMPDEST PUSH1 0x40 MLOAD PUSH2 0x171 SWAP2 SWAP1 PUSH2 0x43F0 JUMP JUMPDEST PUSH2 0x18D PUSH2 0x1E3 CALLDATASIZE PUSH1 0x4 PUSH2 0x4197 JUMP JUMPDEST PUSH2 0x1E12 JUMP JUMPDEST PUSH2 0x14F PUSH2 0x1F6 CALLDATASIZE PUSH1 0x4 PUSH2 0x4403 JUMP JUMPDEST PUSH2 0x1E22 JUMP JUMPDEST PUSH2 0x14F PUSH2 0x209 CALLDATASIZE PUSH1 0x4 PUSH2 0x4470 JUMP JUMPDEST PUSH2 0x2639 JUMP JUMPDEST PUSH2 0x217 PUSH1 0x0 SLOAD DUP2 JUMP JUMPDEST PUSH1 0x40 MLOAD SWAP1 DUP2 MSTORE PUSH1 0x20 ADD PUSH2 0x171 JUMP JUMPDEST PUSH2 0x217 PUSH2 0x233 CALLDATASIZE PUSH1 0x4 PUSH2 0x401C JUMP JUMPDEST DUP1 MLOAD PUSH1 0x20 DUP2 DUP4 ADD DUP2 ADD DUP1 MLOAD PUSH1 0x7 DUP3 MSTORE SWAP3 DUP3 ADD SWAP2 SWAP1 SWAP4 ADD KECCAK256 SWAP2 MSTORE SLOAD DUP2 JUMP JUMPDEST PUSH2 0x217 PUSH2 0x25E CALLDATASIZE PUSH1 0x4 PUSH2 0x401C JUMP JUMPDEST DUP1 MLOAD PUSH1 0x20 DUP2 DUP4 ADD DUP2 ADD DUP1 MLOAD PUSH1 0xA DUP3 MSTORE SWAP3 DUP3 ADD SWAP2 SWAP1 SWAP4 ADD KECCAK256 SWAP2 MSTORE SLOAD DUP2 JUMP JUMPDEST PUSH2 0x28E PUSH2 0x289 CALLDATASIZE PUSH1 0x4 PUSH2 0x4197 JUMP JUMPDEST PUSH2 0x2A35 JUMP JUMPDEST PUSH1 0x40 MLOAD PUSH2 0x171 SWAP10 SWAP9 SWAP8 SWAP7 SWAP6 SWAP5 SWAP4 SWAP3 SWAP2 SWAP1 PUSH2 0x4542 JUMP JUMPDEST PUSH2 0x2D1 PUSH2 0x2B1 CALLDATASIZE PUSH1 0x4 PUSH2 0x401C JUMP JUMPDEST DUP1 MLOAD PUSH1 0x20 DUP2 DUP4 ADD DUP2 ADD DUP1 MLOAD PUSH1 0x9 DUP3 MSTORE SWAP3 DUP3 ADD SWAP2 SWAP1 SWAP4 ADD KECCAK256 SWAP2 MSTORE SLOAD PUSH1 0xFF AND DUP2 JUMP JUMPDEST PUSH1 0x40 MLOAD SWAP1 ISZERO ISZERO DUP2 MSTORE PUSH1 0x20 ADD PUSH2 0x171 JUMP JUMPDEST PUSH2 0x2E9 PUSH2 0x2DC9 JUMP JUMPDEST PUSH1 0x40 MLOAD PUSH2 0x171 SWAP2 SWAP1 PUSH2 0x45E3 JUMP JUMPDEST PUSH2 0x2D1 PUSH2 0x304 CALLDATASIZE PUSH1 0x4 PUSH2 0x401C JUMP JUMPDEST DUP1 MLOAD PUSH1 0x20 DUP2 DUP4 ADD DUP2 ADD DUP1 MLOAD PUSH1 0x6 DUP3 MSTORE SWAP3 DUP3 ADD SWAP2 SWAP1 SWAP4 ADD KECCAK256 SWAP2 MSTORE SLOAD PUSH1 0xFF AND DUP2 JUMP JUMPDEST PUSH2 0x32C PUSH2 0x31B9 JUMP JUMPDEST PUSH1 0x40 MLOAD PUSH2 0x171 SWAP2 SWAP1 PUSH2 0x463A JUMP JUMPDEST PUSH2 0x217 PUSH1 0x1 SLOAD DUP2 JUMP JUMPDEST PUSH2 0x34A PUSH2 0x35A7 JUMP JUMPDEST PUSH1 0x40 MLOAD PUSH2 0x171 SWAP2 SWAP1 PUSH2 0x4691 JUMP JUMPDEST PUSH2 0x14F PUSH2 0x365 CALLDATASIZE PUSH1 0x4 PUSH2 0x3F27 JUMP JUMPDEST PUSH2 0x3872 JUMP JUMPDEST PUSH2 0x37D PUSH2 0x378 CALLDATASIZE PUSH1 0x4 PUSH2 0x46E8 JUMP JUMPDEST PUSH2 0x3ACB JUMP JUMPDEST PUSH1 0x40 MLOAD PUSH2 0x171 SWAP10 SWAP9 SWAP8 SWAP7 SWAP6 SWAP5 SWAP4 SWAP3 SWAP2 SWAP1 PUSH2 0x472D JUMP JUMPDEST PUSH2 0x2D1 PUSH2 0x3A0 CALLDATASIZE PUSH1 0x4 PUSH2 0x4197 JUMP JUMPDEST PUSH1 0x8 PUSH1 0x20 MSTORE PUSH1 0x0 SWAP1 DUP2 MSTORE PUSH1 0x40 SWAP1 KECCAK256 SLOAD PUSH1 0xFF AND DUP2 JUMP JUMPDEST PUSH1 0x6 DUP7 PUSH1 0x40 MLOAD PUSH2 0x3C5 SWAP2 SWAP1 PUSH2 0x47D2 JUMP JUMPDEST SWAP1 DUP2 MSTORE PUSH1 0x40 MLOAD SWAP1 DUP2 SWAP1 SUB PUSH1 0x20 ADD SWAP1 KECCAK256 SLOAD PUSH1 0xFF AND PUSH2 0x41F JUMPI PUSH1 0x40 MLOAD PUSH3 0x461BCD PUSH1 0xE5 SHL DUP2 MSTORE PUSH1 0x20 PUSH1 0x4 DUP3 ADD MSTORE PUSH1 0x13 PUSH1 0x24 DUP3 ADD MSTORE PUSH19 0x10D85CD9481A5CC81B9BDD081C1C995CD95B9D PUSH1 0x6A SHL PUSH1 0x44 DUP3 ADD MSTORE PUSH1 0x64 ADD JUMPDEST PUSH1 0x40 MLOAD DUP1 SWAP2 SUB SWAP1 REVERT JUMPDEST PUSH1 0x0 PUSH1 0x1 PUSH1 0x7 DUP9 PUSH1 0x40 MLOAD PUSH2 0x433 SWAP2 SWAP1 PUSH2 0x47D2 JUMP JUMPDEST SWAP1 DUP2 MSTORE PUSH1 0x20 ADD PUSH1 0x40 MLOAD DUP1 SWAP2 SUB SWAP1 KECCAK256 SLOAD PUSH2 0x44C SWAP2 SWAP1 PUSH2 0x4804 JUMP JUMPDEST SWAP1 POP DUP5 DUP1 MLOAD SWAP1 PUSH1 0x20 ADD KECCAK256 PUSH1 0x4 DUP3 DUP2 SLOAD DUP2 LT PUSH2 0x469 JUMPI PUSH2 0x469 PUSH2 0x481D JUMP JUMPDEST SWAP1 PUSH1 0x0 MSTORE PUSH1 0x20 PUSH1 0x0 KECCAK256 SWAP1 PUSH1 0x9 MUL ADD PUSH1 0x4 ADD PUSH1 0x40 MLOAD PUSH2 0x487 SWAP2 SWAP1 PUSH2 0x48E0 JUMP JUMPDEST PUSH1 0x40 MLOAD DUP1 SWAP2 SUB SWAP1 KECCAK256 EQ PUSH2 0x684 JUMPI PUSH1 0x0 PUSH1 0x4 DUP3 DUP2 SLOAD DUP2 LT PUSH2 0x4A9 JUMPI PUSH2 0x4A9 PUSH2 0x481D JUMP JUMPDEST SWAP1 PUSH1 0x0 MSTORE PUSH1 0x20 PUSH1 0x0 KECCAK256 SWAP1 PUSH1 0x9 MUL ADD PUSH1 0x4 ADD DUP1 SLOAD PUSH2 0x4C5 SWAP1 PUSH2 0x4833 JUMP JUMPDEST DUP1 PUSH1 0x1F ADD PUSH1 0x20 DUP1 SWAP2 DIV MUL PUSH1 0x20 ADD PUSH1 0x40 MLOAD SWAP1 DUP2 ADD PUSH1 0x40 MSTORE DUP1 SWAP3 SWAP2 SWAP1 DUP2 DUP2 MSTORE PUSH1 0x20 ADD DUP3 DUP1 SLOAD PUSH2 0x4F1 SWAP1 PUSH2 0x4833 JUMP JUMPDEST DUP1 ISZERO PUSH2 0x53E JUMPI DUP1 PUSH1 0x1F LT PUSH2 0x513 JUMPI PUSH2 0x100 DUP1 DUP4 SLOAD DIV MUL DUP4 MSTORE SWAP2 PUSH1 0x20 ADD SWAP2 PUSH2 0x53E JUMP JUMPDEST DUP3 ADD SWAP2 SWAP1 PUSH1 0x0 MSTORE PUSH1 0x20 PUSH1 0x0 KECCAK256 SWAP1 JUMPDEST DUP2 SLOAD DUP2 MSTORE SWAP1 PUSH1 0x1 ADD SWAP1 PUSH1 0x20 ADD DUP1 DUP4 GT PUSH2 0x521 JUMPI DUP3 SWAP1 SUB PUSH1 0x1F AND DUP3 ADD SWAP2 JUMPDEST POP POP POP POP POP SWAP1 POP DUP6 PUSH1 0x4 DUP4 DUP2 SLOAD DUP2 LT PUSH2 0x559 JUMPI PUSH2 0x559 PUSH2 0x481D JUMP JUMPDEST SWAP1 PUSH1 0x0 MSTORE PUSH1 0x20 PUSH1 0x0 KECCAK256 SWAP1 PUSH1 0x9 MUL ADD PUSH1 0x4 ADD SWAP1 DUP2 PUSH2 0x576 SWAP2 SWAP1 PUSH2 0x493D JUMP JUMPDEST POP PUSH1 0x5 PUSH1 0x40 MLOAD DUP1 PUSH1 0xE0 ADD PUSH1 0x40 MSTORE DUP1 DUP5 PUSH1 0x1 PUSH2 0x591 SWAP2 SWAP1 PUSH2 0x49FD JUMP JUMPDEST DUP2 MSTORE PUSH1 0x20 DUP1 DUP3 ADD DUP13 SWAP1 MSTORE PUSH1 0x40 DUP1 MLOAD DUP1 DUP3 ADD DUP3 MSTORE PUSH1 0xB DUP2 MSTORE PUSH11 0x2232B9B1B934B83A34B7B7 PUSH1 0xA9 SHL DUP2 DUP5 ADD MSTORE SWAP1 DUP4 ADD MSTORE PUSH1 0x60 DUP3 ADD DUP6 SWAP1 MSTORE PUSH1 0x80 DUP3 ADD DUP11 SWAP1 MSTORE CALLER PUSH1 0xA0 DUP4 ADD MSTORE TIMESTAMP PUSH1 0xC0 SWAP1 SWAP3 ADD SWAP2 SWAP1 SWAP2 MSTORE DUP3 SLOAD PUSH1 0x1 DUP2 DUP2 ADD DUP6 SSTORE PUSH1 0x0 SWAP5 DUP6 MSTORE SWAP4 DUP3 SWAP1 KECCAK256 DUP4 MLOAD PUSH1 0x7 SWAP1 SWAP3 MUL ADD SWAP1 DUP2 SSTORE SWAP1 DUP3 ADD MLOAD SWAP2 SWAP3 SWAP1 SWAP2 SWAP1 DUP3 ADD SWAP1 PUSH2 0x610 SWAP1 DUP3 PUSH2 0x493D JUMP JUMPDEST POP PUSH1 0x40 DUP3 ADD MLOAD PUSH1 0x2 DUP3 ADD SWAP1 PUSH2 0x625 SWAP1 DUP3 PUSH2 0x493D JUMP JUMPDEST POP PUSH1 0x60 DUP3 ADD MLOAD PUSH1 0x3 DUP3 ADD SWAP1 PUSH2 0x63A SWAP1 DUP3 PUSH2 0x493D JUMP JUMPDEST POP PUSH1 0x80 DUP3 ADD MLOAD PUSH1 0x4 DUP3 ADD SWAP1 PUSH2 0x64F SWAP1 DUP3 PUSH2 0x493D JUMP JUMPDEST POP PUSH1 0xA0 DUP3 ADD MLOAD PUSH1 0x5 DUP3 ADD DUP1 SLOAD PUSH1 0x1 PUSH1 0x1 PUSH1 0xA0 SHL SUB NOT AND PUSH1 0x1 PUSH1 0x1 PUSH1 0xA0 SHL SUB SWAP1 SWAP3 AND SWAP2 SWAP1 SWAP2 OR SWAP1 SSTORE PUSH1 0xC0 SWAP1 SWAP2 ADD MLOAD PUSH1 0x6 SWAP1 SWAP2 ADD SSTORE POP JUMPDEST DUP6 DUP1 MLOAD SWAP1 PUSH1 0x20 ADD KECCAK256 PUSH1 0x4 DUP3 DUP2 SLOAD DUP2 LT PUSH2 0x69F JUMPI PUSH2 0x69F PUSH2 0x481D JUMP JUMPDEST SWAP1 PUSH1 0x0 MSTORE PUSH1 0x20 PUSH1 0x0 KECCAK256 SWAP1 PUSH1 0x9 MUL ADD PUSH1 0x3 ADD PUSH1 0x40 MLOAD PUSH2 0x6BD SWAP2 SWAP1 PUSH2 0x48E0 JUMP JUMPDEST PUSH1 0x40 MLOAD DUP1 SWAP2 SUB SWAP1 KECCAK256 EQ PUSH2 0x8B3 JUMPI PUSH1 0x0 PUSH1 0x4 DUP3 DUP2 SLOAD DUP2 LT PUSH2 0x6DF JUMPI PUSH2 0x6DF PUSH2 0x481D JUMP JUMPDEST SWAP1 PUSH1 0x0 MSTORE PUSH1 0x20 PUSH1 0x0 KECCAK256 SWAP1 PUSH1 0x9 MUL ADD PUSH1 0x3 ADD DUP1 SLOAD PUSH2 0x6FB SWAP1 PUSH2 0x4833 JUMP JUMPDEST DUP1 PUSH1 0x1F ADD PUSH1 0x20 DUP1 SWAP2 DIV MUL PUSH1 0x20 ADD PUSH1 0x40 MLOAD SWAP1 DUP2 ADD PUSH1 0x40 MSTORE DUP1 SWAP3 SWAP2 SWAP1 DUP2 DUP2 MSTORE PUSH1 0x20 ADD DUP3 DUP1 SLOAD PUSH2 0x727 SWAP1 PUSH2 0x4833 JUMP JUMPDEST DUP1 ISZERO PUSH2 0x774 JUMPI DUP1 PUSH1 0x1F LT PUSH2 0x749 JUMPI PUSH2 0x100 DUP1 DUP4 SLOAD DIV MUL DUP4 MSTORE SWAP2 PUSH1 0x20 ADD SWAP2 PUSH2 0x774 JUMP JUMPDEST DUP3 ADD SWAP2 SWAP1 PUSH1 0x0 MSTORE PUSH1 0x20 PUSH1 0x0 KECCAK256 SWAP1 JUMPDEST DUP2 SLOAD DUP2 MSTORE SWAP1 PUSH1 0x1 ADD SWAP1 PUSH1 0x20 ADD DUP1 DUP4 GT PUSH2 0x757 JUMPI DUP3 SWAP1 SUB PUSH1 0x1F AND DUP3 ADD SWAP2 JUMPDEST POP POP POP POP POP SWAP1 POP DUP7 PUSH1 0x4 DUP4 DUP2 SLOAD DUP2 LT PUSH2 0x78F JUMPI PUSH2 0x78F PUSH2 0x481D JUMP JUMPDEST SWAP1 PUSH1 0x0 MSTORE PUSH1 0x20 PUSH1 0x0 KECCAK256 SWAP1 PUSH1 0x9 MUL ADD PUSH1 0x3 ADD SWAP1 DUP2 PUSH2 0x7AC SWAP2 SWAP1 PUSH2 0x493D JUMP JUMPDEST POP PUSH1 0x5 PUSH1 0x40 MLOAD DUP1 PUSH1 0xE0 ADD PUSH1 0x40 MSTORE DUP1 DUP5 PUSH1 0x1 PUSH2 0x7C7 SWAP2 SWAP1 PUSH2 0x49FD JUMP JUMPDEST DUP2 MSTORE PUSH1 0x20 DUP1 DUP3 ADD DUP13 SWAP1 MSTORE PUSH1 0x40 DUP1 MLOAD DUP1 DUP3 ADD DUP3 MSTORE PUSH1 0x4 DUP2 MSTORE PUSH4 0x4E616D65 PUSH1 0xE0 SHL DUP2 DUP5 ADD MSTORE SWAP1 DUP4 ADD MSTORE PUSH1 0x60 DUP3 ADD DUP6 SWAP1 MSTORE PUSH1 0x80 DUP3 ADD DUP12 SWAP1 MSTORE CALLER PUSH1 0xA0 DUP4 ADD MSTORE TIMESTAMP PUSH1 0xC0 SWAP1 SWAP3 ADD SWAP2 SWAP1 SWAP2 MSTORE DUP3 SLOAD PUSH1 0x1 DUP2 DUP2 ADD DUP6 SSTORE PUSH1 0x0 SWAP5 DUP6 MSTORE SWAP4 DUP3 SWAP1 KECCAK256 DUP4 MLOAD PUSH1 0x7 SWAP1 SWAP3 MUL ADD SWAP1 DUP2 SSTORE SWAP1 DUP3 ADD MLOAD SWAP2 SWAP3 SWAP1 SWAP2 SWAP1 DUP3 ADD SWAP1 PUSH2 0x83F SWAP1 DUP3 PUSH2 0x493D JUMP JUMPDEST POP PUSH1 0x40 DUP3 ADD MLOAD PUSH1 0x2 DUP3 ADD SWAP1 PUSH2 0x854 SWAP1 DUP3 PUSH2 0x493D JUMP JUMPDEST POP PUSH1 0x60 DUP3 ADD MLOAD PUSH1 0x3 DUP3 ADD SWAP1 PUSH2 0x869 SWAP1 DUP3 PUSH2 0x493D JUMP JUMPDEST POP PUSH1 0x80 DUP3 ADD MLOAD PUSH1 0x4 DUP3 ADD SWAP1 PUSH2 0x87E SWAP1 DUP3 PUSH2 0x493D JUMP JUMPDEST POP PUSH1 0xA0 DUP3 ADD MLOAD PUSH1 0x5 DUP3 ADD DUP1 SLOAD PUSH1 0x1 PUSH1 0x1 PUSH1 0xA0 SHL SUB NOT AND PUSH1 0x1 PUSH1 0x1 PUSH1 0xA0 SHL SUB SWAP1 SWAP3 AND SWAP2 SWAP1 SWAP2 OR SWAP1 SSTORE PUSH1 0xC0 SWAP1 SWAP2 ADD MLOAD PUSH1 0x6 SWAP1 SWAP2 ADD SSTORE POP JUMPDEST DUP4 DUP1 MLOAD SWAP1 PUSH1 0x20 ADD KECCAK256 PUSH1 0x4 DUP3 DUP2 SLOAD DUP2 LT PUSH2 0x8CE JUMPI PUSH2 0x8CE PUSH2 0x481D JUMP JUMPDEST SWAP1 PUSH1 0x0 MSTORE PUSH1 0x20 PUSH1 0x0 KECCAK256 SWAP1 PUSH1 0x9 MUL ADD PUSH1 0x5 ADD PUSH1 0x40 MLOAD PUSH2 0x8EC SWAP2 SWAP1 PUSH2 0x48E0 JUMP JUMPDEST PUSH1 0x40 MLOAD DUP1 SWAP2 SUB SWAP1 KECCAK256 EQ PUSH2 0xAE7 JUMPI PUSH1 0x0 PUSH1 0x4 DUP3 DUP2 SLOAD DUP2 LT PUSH2 0x90E JUMPI PUSH2 0x90E PUSH2 0x481D JUMP JUMPDEST SWAP1 PUSH1 0x0 MSTORE PUSH1 0x20 PUSH1 0x0 KECCAK256 SWAP1 PUSH1 0x9 MUL ADD PUSH1 0x5 ADD DUP1 SLOAD PUSH2 0x92A SWAP1 PUSH2 0x4833 JUMP JUMPDEST DUP1 PUSH1 0x1F ADD PUSH1 0x20 DUP1 SWAP2 DIV MUL PUSH1 0x20 ADD PUSH1 0x40 MLOAD SWAP1 DUP2 ADD PUSH1 0x40 MSTORE DUP1 SWAP3 SWAP2 SWAP1 DUP2 DUP2 MSTORE PUSH1 0x20 ADD DUP3 DUP1 SLOAD PUSH2 0x956 SWAP1 PUSH2 0x4833 JUMP JUMPDEST DUP1 ISZERO PUSH2 0x9A3 JUMPI DUP1 PUSH1 0x1F LT PUSH2 0x978 JUMPI PUSH2 0x100 DUP1 DUP4 SLOAD DIV MUL DUP4 MSTORE SWAP2 PUSH1 0x20 ADD SWAP2 PUSH2 0x9A3 JUMP JUMPDEST DUP3 ADD SWAP2 SWAP1 PUSH1 0x0 MSTORE PUSH1 0x20 PUSH1 0x0 KECCAK256 SWAP1 JUMPDEST DUP2 SLOAD DUP2 MSTORE SWAP1 PUSH1 0x1 ADD SWAP1 PUSH1 0x20 ADD DUP1 DUP4 GT PUSH2 0x986 JUMPI DUP3 SWAP1 SUB PUSH1 0x1F AND DUP3 ADD SWAP2 JUMPDEST POP POP POP POP POP SWAP1 POP DUP5 PUSH1 0x4 DUP4 DUP2 SLOAD DUP2 LT PUSH2 0x9BE JUMPI PUSH2 0x9BE PUSH2 0x481D JUMP JUMPDEST SWAP1 PUSH1 0x0 MSTORE PUSH1 0x20 PUSH1 0x0 KECCAK256 SWAP1 PUSH1 0x9 MUL ADD PUSH1 0x3 ADD SWAP1 DUP2 PUSH2 0x9DB SWAP2 SWAP1 PUSH2 0x493D JUMP JUMPDEST POP PUSH1 0x5 PUSH1 0x40 MLOAD DUP1 PUSH1 0xE0 ADD PUSH1 0x40 MSTORE DUP1 DUP5 PUSH1 0x1 PUSH2 0x9F6 SWAP2 SWAP1 PUSH2 0x49FD JUMP JUMPDEST DUP2 MSTORE PUSH1 0x20 DUP1 DUP3 ADD DUP13 SWAP1 MSTORE PUSH1 0x40 DUP1 MLOAD DUP1 DUP3 ADD DUP3 MSTORE PUSH1 0x9 DUP2 MSTORE PUSH9 0x436173652054797065 PUSH1 0xB8 SHL DUP2 DUP5 ADD MSTORE SWAP1 DUP4 ADD MSTORE PUSH1 0x60 DUP3 ADD DUP6 SWAP1 MSTORE PUSH1 0x80 DUP3 ADD DUP10 SWAP1 MSTORE CALLER PUSH1 0xA0 DUP4 ADD MSTORE TIMESTAMP PUSH1 0xC0 SWAP1 SWAP3 ADD SWAP2 SWAP1 SWAP2 MSTORE DUP3 SLOAD PUSH1 0x1 DUP2 DUP2 ADD DUP6 SSTORE PUSH1 0x0 SWAP5 DUP6 MSTORE SWAP4 DUP3 SWAP1 KECCAK256 DUP4 MLOAD PUSH1 0x7 SWAP1 SWAP3 MUL ADD SWAP1 DUP2 SSTORE SWAP1 DUP3 ADD MLOAD SWAP2 SWAP3 SWAP1 SWAP2 SWAP1 DUP3 ADD SWAP1 PUSH2 0xA73 SWAP1 DUP3 PUSH2 0x493D JUMP JUMPDEST POP PUSH1 0x40 DUP3 ADD MLOAD PUSH1 0x2 DUP3 ADD SWAP1 PUSH2 0xA88 SWAP1 DUP3 PUSH2 0x493D JUMP JUMPDEST POP PUSH1 0x60 DUP3 ADD MLOAD PUSH1 0x3 DUP3 ADD SWAP1 PUSH2 0xA9D SWAP1 DUP3 PUSH2 0x493D JUMP JUMPDEST POP PUSH1 0x80 DUP3 ADD MLOAD PUSH1 0x4 DUP3 ADD SWAP1 PUSH2 0xAB2 SWAP1 DUP3 PUSH2 0x493D JUMP JUMPDEST POP PUSH1 0xA0 DUP3 ADD MLOAD PUSH1 0x5 DUP3 ADD DUP1 SLOAD PUSH1 0x1 PUSH1 0x1 PUSH1 0xA0 SHL SUB NOT AND PUSH1 0x1 PUSH1 0x1 PUSH1 0xA0 SHL SUB SWAP1 SWAP3 AND SWAP2 SWAP1 SWAP2 OR SWAP1 SSTORE PUSH1 0xC0 SWAP1 SWAP2 ADD MLOAD PUSH1 0x6 SWAP1 SWAP2 ADD SSTORE POP JUMPDEST DUP2 DUP1 MLOAD SWAP1 PUSH1 0x20 ADD KECCAK256 PUSH1 0x4 DUP3 DUP2 SLOAD DUP2 LT PUSH2 0xB02 JUMPI PUSH2 0xB02 PUSH2 0x481D JUMP JUMPDEST SWAP1 PUSH1 0x0 MSTORE PUSH1 0x20 PUSH1 0x0 KECCAK256 SWAP1 PUSH1 0x9 MUL ADD PUSH1 0x2 ADD PUSH1 0x40 MLOAD PUSH2 0xB20 SWAP2 SWAP1 PUSH2 0x48E0 JUMP JUMPDEST PUSH1 0x40 MLOAD DUP1 SWAP2 SUB SWAP1 KECCAK256 EQ PUSH2 0xD16 JUMPI PUSH1 0x0 PUSH1 0x4 DUP3 DUP2 SLOAD DUP2 LT PUSH2 0xB42 JUMPI PUSH2 0xB42 PUSH2 0x481D JUMP JUMPDEST SWAP1 PUSH1 0x0 MSTORE PUSH1 0x20 PUSH1 0x0 KECCAK256 SWAP1 PUSH1 0x9 MUL ADD PUSH1 0x2 ADD DUP1 SLOAD PUSH2 0xB5E SWAP1 PUSH2 0x4833 JUMP JUMPDEST DUP1 PUSH1 0x1F ADD PUSH1 0x20 DUP1 SWAP2 DIV MUL PUSH1 0x20 ADD PUSH1 0x40 MLOAD SWAP1 DUP2 ADD PUSH1 0x40 MSTORE DUP1 SWAP3 SWAP2 SWAP1 DUP2 DUP2 MSTORE PUSH1 0x20 ADD DUP3 DUP1 SLOAD PUSH2 0xB8A SWAP1 PUSH2 0x4833 JUMP JUMPDEST DUP1 ISZERO PUSH2 0xBD7 JUMPI DUP1 PUSH1 0x1F LT PUSH2 0xBAC JUMPI PUSH2 0x100 DUP1 DUP4 SLOAD DIV MUL DUP4 MSTORE SWAP2 PUSH1 0x20 ADD SWAP2 PUSH2 0xBD7 JUMP JUMPDEST DUP3 ADD SWAP2 SWAP1 PUSH1 0x0 MSTORE PUSH1 0x20 PUSH1 0x0 KECCAK256 SWAP1 JUMPDEST DUP2 SLOAD DUP2 MSTORE SWAP1 PUSH1 0x1 ADD SWAP1 PUSH1 0x20 ADD DUP1 DUP4 GT PUSH2 0xBBA JUMPI DUP3 SWAP1 SUB PUSH1 0x1F AND DUP3 ADD SWAP2 JUMPDEST POP POP POP POP POP SWAP1 POP DUP3 PUSH1 0x4 DUP4 DUP2 SLOAD DUP2 LT PUSH2 0xBF2 JUMPI PUSH2 0xBF2 PUSH2 0x481D JUMP JUMPDEST SWAP1 PUSH1 0x0 MSTORE PUSH1 0x20 PUSH1 0x0 KECCAK256 SWAP1 PUSH1 0x9 MUL ADD PUSH1 0x3 ADD SWAP1 DUP2 PUSH2 0xC0F SWAP2 SWAP1 PUSH2 0x493D JUMP JUMPDEST POP PUSH1 0x5 PUSH1 0x40 MLOAD DUP1 PUSH1 0xE0 ADD PUSH1 0x40 MSTORE DUP1 DUP5 PUSH1 0x1 PUSH2 0xC2A SWAP2 SWAP1 PUSH2 0x49FD JUMP JUMPDEST DUP2 MSTORE PUSH1 0x20 DUP1 DUP3 ADD DUP13 SWAP1 MSTORE PUSH1 0x40 DUP1 MLOAD DUP1 DUP3 ADD DUP3 MSTORE PUSH1 0x4 DUP2 MSTORE PUSH4 0x14D55251 PUSH1 0xE2 SHL DUP2 DUP5 ADD MSTORE SWAP1 DUP4 ADD MSTORE PUSH1 0x60 DUP3 ADD DUP6 SWAP1 MSTORE PUSH1 0x80 DUP3 ADD DUP8 SWAP1 MSTORE CALLER PUSH1 0xA0 DUP4 ADD MSTORE TIMESTAMP PUSH1 0xC0 SWAP1 SWAP3 ADD SWAP2 SWAP1 SWAP2 MSTORE DUP3 SLOAD PUSH1 0x1 DUP2 DUP2 ADD DUP6 SSTORE PUSH1 0x0 SWAP5 DUP6 MSTORE SWAP4 DUP3 SWAP1 KECCAK256 DUP4 MLOAD PUSH1 0x7 SWAP1 SWAP3 MUL ADD SWAP1 DUP2 SSTORE SWAP1 DUP3 ADD MLOAD SWAP2 SWAP3 SWAP1 SWAP2 SWAP1 DUP3 ADD SWAP1 PUSH2 0xCA2 SWAP1 DUP3 PUSH2 0x493D JUMP JUMPDEST POP PUSH1 0x40 DUP3 ADD MLOAD PUSH1 0x2 DUP3 ADD SWAP1 PUSH2 0xCB7 SWAP1 DUP3 PUSH2 0x493D JUMP JUMPDEST POP PUSH1 0x60 DUP3 ADD MLOAD PUSH1 0x3 DUP3 ADD SWAP1 PUSH2 0xCCC SWAP1 DUP3 PUSH2 0x493D JUMP JUMPDEST POP PUSH1 0x80 DUP3 ADD MLOAD PUSH1 0x4 DUP3 ADD SWAP1 PUSH2 0xCE1 SWAP1 DUP3 PUSH2 0x493D JUMP JUMPDEST POP PUSH1 0xA0 DUP3 ADD MLOAD PUSH1 0x5 DUP3 ADD DUP1 SLOAD PUSH1 0x1 PUSH1 0x1 PUSH1 0xA0 SHL SUB NOT AND PUSH1 0x1 PUSH1 0x1 PUSH1 0xA0 SHL SUB SWAP1 SWAP3 AND SWAP2 SWAP1 SWAP2 OR SWAP1 SSTORE PUSH1 0xC0 SWAP1 SWAP2 ADD MLOAD PUSH1 0x6 SWAP1 SWAP2 ADD SSTORE POP JUMPDEST DUP3 DUP1 MLOAD SWAP1 PUSH1 0x20 ADD KECCAK256 PUSH1 0x4 DUP3 DUP2 SLOAD DUP2 LT PUSH2 0xD31 JUMPI PUSH2 0xD31 PUSH2 0x481D JUMP JUMPDEST SWAP1 PUSH1 0x0 MSTORE PUSH1 0x20 PUSH1 0x0 KECCAK256 SWAP1 PUSH1 0x9 MUL ADD PUSH1 0x6 ADD PUSH1 0x40 MLOAD PUSH2 0xD4F SWAP2 SWAP1 PUSH2 0x48E0 JUMP JUMPDEST PUSH1 0x40 MLOAD DUP1 SWAP2 SUB SWAP1 KECCAK256 EQ PUSH2 0xF47 JUMPI PUSH1 0x0 PUSH1 0x4 DUP3 DUP2 SLOAD DUP2 LT PUSH2 0xD71 JUMPI PUSH2 0xD71 PUSH2 0x481D JUMP JUMPDEST SWAP1 PUSH1 0x0 MSTORE PUSH1 0x20 PUSH1 0x0 KECCAK256 SWAP1 PUSH1 0x9 MUL ADD PUSH1 0x6 ADD DUP1 SLOAD PUSH2 0xD8D SWAP1 PUSH2 0x4833 JUMP JUMPDEST DUP1 PUSH1 0x1F ADD PUSH1 0x20 DUP1 SWAP2 DIV MUL PUSH1 0x20 ADD PUSH1 0x40 MLOAD SWAP1 DUP2 ADD PUSH1 0x40 MSTORE DUP1 SWAP3 SWAP2 SWAP1 DUP2 DUP2 MSTORE PUSH1 0x20 ADD DUP3 DUP1 SLOAD PUSH2 0xDB9 SWAP1 PUSH2 0x4833 JUMP JUMPDEST DUP1 ISZERO PUSH2 0xE06 JUMPI DUP1 PUSH1 0x1F LT PUSH2 0xDDB JUMPI PUSH2 0x100 DUP1 DUP4 SLOAD DIV MUL DUP4 MSTORE SWAP2 PUSH1 0x20 ADD SWAP2 PUSH2 0xE06 JUMP JUMPDEST DUP3 ADD SWAP2 SWAP1 PUSH1 0x0 MSTORE PUSH1 0x20 PUSH1 0x0 KECCAK256 SWAP1 JUMPDEST DUP2 SLOAD DUP2 MSTORE SWAP1 PUSH1 0x1 ADD SWAP1 PUSH1 0x20 ADD DUP1 DUP4 GT PUSH2 0xDE9 JUMPI DUP3 SWAP1 SUB PUSH1 0x1F AND DUP3 ADD SWAP2 JUMPDEST POP POP POP POP POP SWAP1 POP DUP4 PUSH1 0x4 DUP4 DUP2 SLOAD DUP2 LT PUSH2 0xE21 JUMPI PUSH2 0xE21 PUSH2 0x481D JUMP JUMPDEST SWAP1 PUSH1 0x0 MSTORE PUSH1 0x20 PUSH1 0x0 KECCAK256 SWAP1 PUSH1 0x9 MUL ADD PUSH1 0x3 ADD SWAP1 DUP2 PUSH2 0xE3E SWAP2 SWAP1 PUSH2 0x493D JUMP JUMPDEST POP PUSH1 0x5 PUSH1 0x40 MLOAD DUP1 PUSH1 0xE0 ADD PUSH1 0x40 MSTORE DUP1 DUP5 PUSH1 0x1 PUSH2 0xE59 SWAP2 SWAP1 PUSH2 0x49FD JUMP JUMPDEST DUP2 MSTORE PUSH1 0x20 DUP1 DUP3 ADD DUP13 SWAP1 MSTORE PUSH1 0x40 DUP1 MLOAD DUP1 DUP3 ADD DUP3 MSTORE PUSH1 0x6 DUP2 MSTORE PUSH6 0x537461747573 PUSH1 0xD0 SHL DUP2 DUP5 ADD MSTORE SWAP1 DUP4 ADD MSTORE PUSH1 0x60 DUP3 ADD DUP6 SWAP1 MSTORE PUSH1 0x80 DUP3 ADD DUP9 SWAP1 MSTORE CALLER PUSH1 0xA0 DUP4 ADD MSTORE TIMESTAMP PUSH1 0xC0 SWAP1 SWAP3 ADD SWAP2 SWAP1 SWAP2 MSTORE DUP3 SLOAD PUSH1 0x1 DUP2 DUP2 ADD DUP6 SSTORE PUSH1 0x0 SWAP5 DUP6 MSTORE SWAP4 DUP3 SWAP1 KECCAK256 DUP4 MLOAD PUSH1 0x7 SWAP1 SWAP3 MUL ADD SWAP1 DUP2 SSTORE SWAP1 DUP3 ADD MLOAD SWAP2 SWAP3 SWAP1 SWAP2 SWAP1 DUP3 ADD SWAP1 PUSH2 0xED3 SWAP1 DUP3 PUSH2 0x493D JUMP JUMPDEST POP PUSH1 0x40 DUP3 ADD MLOAD PUSH1 0x2 DUP3 ADD SWAP1 PUSH2 0xEE8 SWAP1 DUP3 PUSH2 0x493D JUMP JUMPDEST POP PUSH1 0x60 DUP3 ADD MLOAD PUSH1 0x3 DUP3 ADD SWAP1 PUSH2 0xEFD SWAP1 DUP3 PUSH2 0x493D JUMP JUMPDEST POP PUSH1 0x80 DUP3 ADD MLOAD PUSH1 0x4 DUP3 ADD SWAP1 PUSH2 0xF12 SWAP1 DUP3 PUSH2 0x493D JUMP JUMPDEST POP PUSH1 0xA0 DUP3 ADD MLOAD PUSH1 0x5 DUP3 ADD DUP1 SLOAD PUSH1 0x1 PUSH1 0x1 PUSH1 0xA0 SHL SUB NOT AND PUSH1 0x1 PUSH1 0x1 PUSH1 0xA0 SHL SUB SWAP1 SWAP3 AND SWAP2 SWAP1 SWAP2 OR SWAP1 SSTORE PUSH1 0xC0 SWAP1 SWAP2 ADD MLOAD PUSH1 0x6 SWAP1 SWAP2 ADD SSTORE POP JUMPDEST POP POP POP POP POP POP POP JUMP JUMPDEST PUSH2 0xFA8 PUSH1 0x40 MLOAD DUP1 PUSH2 0x120 ADD PUSH1 0x40 MSTORE DUP1 PUSH1 0x0 DUP2 MSTORE PUSH1 0x20 ADD PUSH1 0x60 DUP2 MSTORE PUSH1 0x20 ADD PUSH1 0x60 DUP2 MSTORE PUSH1 0x20 ADD PUSH1 0x60 DUP2 MSTORE PUSH1 0x20 ADD PUSH1 0x60 DUP2 MSTORE PUSH1 0x20 ADD PUSH1 0x60 DUP2 MSTORE PUSH1 0x20 ADD PUSH1 0x60 DUP2 MSTORE PUSH1 0x20 ADD PUSH1 0x0 PUSH1 0x1 PUSH1 0x1 PUSH1 0xA0 SHL SUB AND DUP2 MSTORE PUSH1 0x20 ADD PUSH1 0x0 DUP2 MSTORE POP SWAP1 JUMP JUMPDEST PUSH1 0x6 DUP3 PUSH1 0x40 MLOAD PUSH2 0xFB8 SWAP2 SWAP1 PUSH2 0x47D2 JUMP JUMPDEST SWAP1 DUP2 MSTORE PUSH1 0x40 MLOAD SWAP1 DUP2 SWAP1 SUB PUSH1 0x20 ADD SWAP1 KECCAK256 SLOAD PUSH1 0xFF AND PUSH2 0x100D JUMPI PUSH1 0x40 MLOAD PUSH3 0x461BCD PUSH1 0xE5 SHL DUP2 MSTORE PUSH1 0x20 PUSH1 0x4 DUP3 ADD MSTORE PUSH1 0x13 PUSH1 0x24 DUP3 ADD MSTORE PUSH19 0x10D85CD9481A5CC81B9BDD081C1C995CD95B9D PUSH1 0x6A SHL PUSH1 0x44 DUP3 ADD MSTORE PUSH1 0x64 ADD PUSH2 0x416 JUMP JUMPDEST PUSH1 0x0 PUSH1 0x1 PUSH1 0x7 DUP5 PUSH1 0x40 MLOAD PUSH2 0x1021 SWAP2 SWAP1 PUSH2 0x47D2 JUMP JUMPDEST SWAP1 DUP2 MSTORE PUSH1 0x20 ADD PUSH1 0x40 MLOAD DUP1 SWAP2 SUB SWAP1 KECCAK256 SLOAD PUSH2 0x103A SWAP2 SWAP1 PUSH2 0x4804 JUMP JUMPDEST SWAP1 POP PUSH1 0x4 DUP2 DUP2 SLOAD DUP2 LT PUSH2 0x104F JUMPI PUSH2 0x104F PUSH2 0x481D JUMP JUMPDEST SWAP1 PUSH1 0x0 MSTORE PUSH1 0x20 PUSH1 0x0 KECCAK256 SWAP1 PUSH1 0x9 MUL ADD PUSH1 0x40 MLOAD DUP1 PUSH2 0x120 ADD PUSH1 0x40 MSTORE SWAP1 DUP2 PUSH1 0x0 DUP3 ADD SLOAD DUP2 MSTORE PUSH1 0x20 ADD PUSH1 0x1 DUP3 ADD DUP1 SLOAD PUSH2 0x1083 SWAP1 PUSH2 0x4833 JUMP JUMPDEST DUP1 PUSH1 0x1F ADD PUSH1 0x20 DUP1 SWAP2 DIV MUL PUSH1 0x20 ADD PUSH1 0x40 MLOAD SWAP1 DUP2 ADD PUSH1 0x40 MSTORE DUP1 SWAP3 SWAP2 SWAP1 DUP2 DUP2 MSTORE PUSH1 0x20 ADD DUP3 DUP1 SLOAD PUSH2 0x10AF SWAP1 PUSH2 0x4833 JUMP JUMPDEST DUP1 ISZERO PUSH2 0x10FC JUMPI DUP1 PUSH1 0x1F LT PUSH2 0x10D1 JUMPI PUSH2 0x100 DUP1 DUP4 SLOAD DIV MUL DUP4 MSTORE SWAP2 PUSH1 0x20 ADD SWAP2 PUSH2 0x10FC JUMP JUMPDEST DUP3 ADD SWAP2 SWAP1 PUSH1 0x0 MSTORE PUSH1 0x20 PUSH1 0x0 KECCAK256 SWAP1 JUMPDEST DUP2 SLOAD DUP2 MSTORE SWAP1 PUSH1 0x1 ADD SWAP1 PUSH1 0x20 ADD DUP1 DUP4 GT PUSH2 0x10DF JUMPI DUP3 SWAP1 SUB PUSH1 0x1F AND DUP3 ADD SWAP2 JUMPDEST POP POP POP POP POP DUP2 MSTORE PUSH1 0x20 ADD PUSH1 0x2 DUP3 ADD DUP1 SLOAD PUSH2 0x1115 SWAP1 PUSH2 0x4833 JUMP JUMPDEST DUP1 PUSH1 0x1F ADD PUSH1 0x20 DUP1 SWAP2 DIV MUL PUSH1 0x20 ADD PUSH1 0x40 MLOAD SWAP1 DUP2 ADD PUSH1 0x40 MSTORE DUP1 SWAP3 SWAP2 SWAP1 DUP2 DUP2 MSTORE PUSH1 0x20 ADD DUP3 DUP1 SLOAD PUSH2 0x1141 SWAP1 PUSH2 0x4833 JUMP JUMPDEST DUP1 ISZERO PUSH2 0x118E JUMPI DUP1 PUSH1 0x1F LT PUSH2 0x1163 JUMPI PUSH2 0x100 DUP1 DUP4 SLOAD DIV MUL DUP4 MSTORE SWAP2 PUSH1 0x20 ADD SWAP2 PUSH2 0x118E JUMP JUMPDEST DUP3 ADD SWAP2 SWAP1 PUSH1 0x0 MSTORE PUSH1 0x20 PUSH1 0x0 KECCAK256 SWAP1 JUMPDEST DUP2 SLOAD DUP2 MSTORE SWAP1 PUSH1 0x1 ADD SWAP1 PUSH1 0x20 ADD DUP1 DUP4 GT PUSH2 0x1171 JUMPI DUP3 SWAP1 SUB PUSH1 0x1F AND DUP3 ADD SWAP2 JUMPDEST POP POP POP POP POP DUP2 MSTORE PUSH1 0x20 ADD PUSH1 0x3 DUP3 ADD DUP1 SLOAD PUSH2 0x11A7 SWAP1 PUSH2 0x4833 JUMP JUMPDEST DUP1 PUSH1 0x1F ADD PUSH1 0x20 DUP1 SWAP2 DIV MUL PUSH1 0x20 ADD PUSH1 0x40 MLOAD SWAP1 DUP2 ADD PUSH1 0x40 MSTORE DUP1 SWAP3 SWAP2 SWAP1 DUP2 DUP2 MSTORE PUSH1 0x20 ADD DUP3 DUP1 SLOAD PUSH2 0x11D3 SWAP1 PUSH2 0x4833 JUMP JUMPDEST DUP1 ISZERO PUSH2 0x1220 JUMPI DUP1 PUSH1 0x1F LT PUSH2 0x11F5 JUMPI PUSH2 0x100 DUP1 DUP4 SLOAD DIV MUL DUP4 MSTORE SWAP2 PUSH1 0x20 ADD SWAP2 PUSH2 0x1220 JUMP JUMPDEST DUP3 ADD SWAP2 SWAP1 PUSH1 0x0 MSTORE PUSH1 0x20 PUSH1 0x0 KECCAK256 SWAP1 JUMPDEST DUP2 SLOAD DUP2 MSTORE SWAP1 PUSH1 0x1 ADD SWAP1 PUSH1 0x20 ADD DUP1 DUP4 GT PUSH2 0x1203 JUMPI DUP3 SWAP1 SUB PUSH1 0x1F AND DUP3 ADD SWAP2 JUMPDEST POP POP POP POP POP DUP2 MSTORE PUSH1 0x20 ADD PUSH1 0x4 DUP3 ADD DUP1 SLOAD PUSH2 0x1239 SWAP1 PUSH2 0x4833 JUMP JUMPDEST DUP1 PUSH1 0x1F ADD PUSH1 0x20 DUP1 SWAP2 DIV MUL PUSH1 0x20 ADD PUSH1 0x40 MLOAD SWAP1 DUP2 ADD PUSH1 0x40 MSTORE DUP1 SWAP3 SWAP2 SWAP1 DUP2 DUP2 MSTORE PUSH1 0x20 ADD DUP3 DUP1 SLOAD PUSH2 0x1265 SWAP1 PUSH2 0x4833 JUMP JUMPDEST DUP1 ISZERO PUSH2 0x12B2 JUMPI DUP1 PUSH1 0x1F LT PUSH2 0x1287 JUMPI PUSH2 0x100 DUP1 DUP4 SLOAD DIV MUL DUP4 MSTORE SWAP2 PUSH1 0x20 ADD SWAP2 PUSH2 0x12B2 JUMP JUMPDEST DUP3 ADD SWAP2 SWAP1 PUSH1 0x0 MSTORE PUSH1 0x20 PUSH1 0x0 KECCAK256 SWAP1 JUMPDEST DUP2 SLOAD DUP2 MSTORE SWAP1 PUSH1 0x1 ADD SWAP1 PUSH1 0x20 ADD DUP1 DUP4 GT PUSH2 0x1295 JUMPI DUP3 SWAP1 SUB PUSH1 0x1F AND DUP3 ADD SWAP2 JUMPDEST POP POP POP POP POP DUP2 MSTORE PUSH1 0x20 ADD PUSH1 0x5 DUP3 ADD DUP1 SLOAD PUSH2 0x12CB SWAP1 PUSH2 0x4833 JUMP JUMPDEST DUP1 PUSH1 0x1F ADD PUSH1 0x20 DUP1 SWAP2 DIV MUL PUSH1 0x20 ADD PUSH1 0x40 MLOAD SWAP1 DUP2 ADD PUSH1 0x40 MSTORE DUP1 SWAP3 SWAP2 SWAP1 DUP2 DUP2 MSTORE PUSH1 0x20 ADD DUP3 DUP1 SLOAD PUSH2 0x12F7 SWAP1 PUSH2 0x4833 JUMP JUMPDEST DUP1 ISZERO PUSH2 0x1344 JUMPI DUP1 PUSH1 0x1F LT PUSH2 0x1319 JUMPI PUSH2 0x100 DUP1 DUP4 SLOAD DIV MUL DUP4 MSTORE SWAP2 PUSH1 0x20 ADD SWAP2 PUSH2 0x1344 JUMP JUMPDEST DUP3 ADD SWAP2 SWAP1 PUSH1 0x0 MSTORE PUSH1 0x20 PUSH1 0x0 KECCAK256 SWAP1 JUMPDEST DUP2 SLOAD DUP2 MSTORE SWAP1 PUSH1 0x1 ADD SWAP1 PUSH1 0x20 ADD DUP1 DUP4 GT PUSH2 0x1327 JUMPI DUP3 SWAP1 SUB PUSH1 0x1F AND DUP3 ADD SWAP2 JUMPDEST POP POP POP POP POP DUP2 MSTORE PUSH1 0x20 ADD PUSH1 0x6 DUP3 ADD DUP1 SLOAD PUSH2 0x135D SWAP1 PUSH2 0x4833 JUMP JUMPDEST DUP1 PUSH1 0x1F ADD PUSH1 0x20 DUP1 SWAP2 DIV MUL PUSH1 0x20 ADD PUSH1 0x40 MLOAD SWAP1 DUP2 ADD PUSH1 0x40 MSTORE DUP1 SWAP3 SWAP2 SWAP1 DUP2 DUP2 MSTORE PUSH1 0x20 ADD DUP3 DUP1 SLOAD PUSH2 0x1389 SWAP1 PUSH2 0x4833 JUMP JUMPDEST DUP1 ISZERO PUSH2 0x13D6 JUMPI DUP1 PUSH1 0x1F LT PUSH2 0x13AB JUMPI PUSH2 0x100 DUP1 DUP4 SLOAD DIV MUL DUP4 MSTORE SWAP2 PUSH1 0x20 ADD SWAP2 PUSH2 0x13D6 JUMP JUMPDEST DUP3 ADD SWAP2 SWAP1 PUSH1 0x0 MSTORE PUSH1 0x20 PUSH1 0x0 KECCAK256 SWAP1 JUMPDEST DUP2 SLOAD DUP2 MSTORE SWAP1 PUSH1 0x1 ADD SWAP1 PUSH1 0x20 ADD DUP1 DUP4 GT PUSH2 0x13B9 JUMPI DUP3 SWAP1 SUB PUSH1 0x1F AND DUP3 ADD SWAP2 JUMPDEST POP POP POP SWAP2 DUP4 MSTORE POP POP PUSH1 0x7 DUP3 ADD SLOAD PUSH1 0x1 PUSH1 0x1 PUSH1 0xA0 SHL SUB AND PUSH1 0x20 DUP3 ADD MSTORE PUSH1 0x8 SWAP1 SWAP2 ADD SLOAD PUSH1 0x40 SWAP1 SWAP2 ADD MSTORE SWAP4 SWAP3 POP POP POP JUMP JUMPDEST PUSH1 0x3 DUP2 DUP2 SLOAD DUP2 LT PUSH2 0x1414 JUMPI PUSH1 0x0 DUP1 REVERT JUMPDEST PUSH1 0x0 SWAP2 DUP3 MSTORE PUSH1 0x20 SWAP1 SWAP2 KECCAK256 PUSH1 0x7 SWAP1 SWAP2 MUL ADD DUP1 SLOAD PUSH1 0x1 DUP3 ADD DUP1 SLOAD SWAP2 SWAP4 POP SWAP1 PUSH2 0x1439 SWAP1 PUSH2 0x4833 JUMP JUMPDEST DUP1 PUSH1 0x1F ADD PUSH1 0x20 DUP1 SWAP2 DIV MUL PUSH1 0x20 ADD PUSH1 0x40 MLOAD SWAP1 DUP2 ADD PUSH1 0x40 MSTORE DUP1 SWAP3 SWAP2 SWAP1 DUP2 DUP2 MSTORE PUSH1 0x20 ADD DUP3 DUP1 SLOAD PUSH2 0x1465 SWAP1 PUSH2 0x4833 JUMP JUMPDEST DUP1 ISZERO PUSH2 0x14B2 JUMPI DUP1 PUSH1 0x1F LT PUSH2 0x1487 JUMPI PUSH2 0x100 DUP1 DUP4 SLOAD DIV MUL DUP4 MSTORE SWAP2 PUSH1 0x20 ADD SWAP2 PUSH2 0x14B2 JUMP JUMPDEST DUP3 ADD SWAP2 SWAP1 PUSH1 0x0 MSTORE PUSH1 0x20 PUSH1 0x0 KECCAK256 SWAP1 JUMPDEST DUP2 SLOAD DUP2 MSTORE SWAP1 PUSH1 0x1 ADD SWAP1 PUSH1 0x20 ADD DUP1 DUP4 GT PUSH2 0x1495 JUMPI DUP3 SWAP1 SUB PUSH1 0x1F AND DUP3 ADD SWAP2 JUMPDEST POP POP POP POP POP SWAP1 DUP1 PUSH1 0x2 ADD DUP1 SLOAD PUSH2 0x14C7 SWAP1 PUSH2 0x4833 JUMP JUMPDEST DUP1 PUSH1 0x1F ADD PUSH1 0x20 DUP1 SWAP2 DIV MUL PUSH1 0x20 ADD PUSH1 0x40 MLOAD SWAP1 DUP2 ADD PUSH1 0x40 MSTORE DUP1 SWAP3 SWAP2 SWAP1 DUP2 DUP2 MSTORE PUSH1 0x20 ADD DUP3 DUP1 SLOAD PUSH2 0x14F3 SWAP1 PUSH2 0x4833 JUMP JUMPDEST DUP1 ISZERO PUSH2 0x1540 JUMPI DUP1 PUSH1 0x1F LT PUSH2 0x1515 JUMPI PUSH2 0x100 DUP1 DUP4 SLOAD DIV MUL DUP4 MSTORE SWAP2 PUSH1 0x20 ADD SWAP2 PUSH2 0x1540 JUMP JUMPDEST DUP3 ADD SWAP2 SWAP1 PUSH1 0x0 MSTORE PUSH1 0x20 PUSH1 0x0 KECCAK256 SWAP1 JUMPDEST DUP2 SLOAD DUP2 MSTORE SWAP1 PUSH1 0x1 ADD SWAP1 PUSH1 0x20 ADD DUP1 DUP4 GT PUSH2 0x1523 JUMPI DUP3 SWAP1 SUB PUSH1 0x1F AND DUP3 ADD SWAP2 JUMPDEST POP POP POP POP POP SWAP1 DUP1 PUSH1 0x3 ADD DUP1 SLOAD PUSH2 0x1555 SWAP1 PUSH2 0x4833 JUMP JUMPDEST DUP1 PUSH1 0x1F ADD PUSH1 0x20 DUP1 SWAP2 DIV MUL PUSH1 0x20 ADD PUSH1 0x40 MLOAD SWAP1 DUP2 ADD PUSH1 0x40 MSTORE DUP1 SWAP3 SWAP2 SWAP1 DUP2 DUP2 MSTORE PUSH1 0x20 ADD DUP3 DUP1 SLOAD PUSH2 0x1581 SWAP1 PUSH2 0x4833 JUMP JUMPDEST DUP1 ISZERO PUSH2 0x15CE JUMPI DUP1 PUSH1 0x1F LT PUSH2 0x15A3 JUMPI PUSH2 0x100 DUP1 DUP4 SLOAD DIV MUL DUP4 MSTORE SWAP2 PUSH1 0x20 ADD SWAP2 PUSH2 0x15CE JUMP JUMPDEST DUP3 ADD SWAP2 SWAP1 PUSH1 0x0 MSTORE PUSH1 0x20 PUSH1 0x0 KECCAK256 SWAP1 JUMPDEST DUP2 SLOAD DUP2 MSTORE SWAP1 PUSH1 0x1 ADD SWAP1 PUSH1 0x20 ADD DUP1 DUP4 GT PUSH2 0x15B1 JUMPI DUP3 SWAP1 SUB PUSH1 0x1F AND DUP3 ADD SWAP2 JUMPDEST POP POP POP POP POP SWAP1 DUP1 PUSH1 0x4 ADD DUP1 SLOAD PUSH2 0x15E3 SWAP1 PUSH2 0x4833 JUMP JUMPDEST DUP1 PUSH1 0x1F ADD PUSH1 0x20 DUP1 SWAP2 DIV MUL PUSH1 0x20 ADD PUSH1 0x40 MLOAD SWAP1 DUP2 ADD PUSH1 0x40 MSTORE DUP1 SWAP3 SWAP2 SWAP1 DUP2 DUP2 MSTORE PUSH1 0x20 ADD DUP3 DUP1 SLOAD PUSH2 0x160F SWAP1 PUSH2 0x4833 JUMP JUMPDEST DUP1 ISZERO PUSH2 0x165C JUMPI DUP1 PUSH1 0x1F LT PUSH2 0x1631 JUMPI PUSH2 0x100 DUP1 DUP4 SLOAD DIV MUL DUP4 MSTORE SWAP2 PUSH1 0x20 ADD SWAP2 PUSH2 0x165C JUMP JUMPDEST DUP3 ADD SWAP2 SWAP1 PUSH1 0x0 MSTORE PUSH1 0x20 PUSH1 0x0 KECCAK256 SWAP1 JUMPDEST DUP2 SLOAD DUP2 MSTORE SWAP1 PUSH1 0x1 ADD SWAP1 PUSH1 0x20 ADD DUP1 DUP4 GT PUSH2 0x163F JUMPI DUP3 SWAP1 SUB PUSH1 0x1F AND DUP3 ADD SWAP2 JUMPDEST POP POP POP POP PUSH1 0x5 DUP4 ADD SLOAD PUSH1 0x6 SWAP1 SWAP4 ADD SLOAD SWAP2 SWAP3 PUSH1 0x1 PUSH1 0x1 PUSH1 0xA0 SHL SUB AND SWAP2 SWAP1 POP DUP8 JUMP JUMPDEST PUSH1 0x60 PUSH1 0x5 DUP1 SLOAD DUP1 PUSH1 0x20 MUL PUSH1 0x20 ADD PUSH1 0x40 MLOAD SWAP1 DUP2 ADD PUSH1 0x40 MSTORE DUP1 SWAP3 SWAP2 SWAP1 DUP2 DUP2 MSTORE PUSH1 0x20 ADD PUSH1 0x0 SWAP1 JUMPDEST DUP3 DUP3 LT ISZERO PUSH2 0x1947 JUMPI DUP4 DUP3 SWAP1 PUSH1 0x0 MSTORE PUSH1 0x20 PUSH1 0x0 KECCAK256 SWAP1 PUSH1 0x7 MUL ADD PUSH1 0x40 MLOAD DUP1 PUSH1 0xE0 ADD PUSH1 0x40 MSTORE SWAP1 DUP2 PUSH1 0x0 DUP3 ADD SLOAD DUP2 MSTORE PUSH1 0x20 ADD PUSH1 0x1 DUP3 ADD DUP1 SLOAD PUSH2 0x16DD SWAP1 PUSH2 0x4833 JUMP JUMPDEST DUP1 PUSH1 0x1F ADD PUSH1 0x20 DUP1 SWAP2 DIV MUL PUSH1 0x20 ADD PUSH1 0x40 MLOAD SWAP1 DUP2 ADD PUSH1 0x40 MSTORE DUP1 SWAP3 SWAP2 SWAP1 DUP2 DUP2 MSTORE PUSH1 0x20 ADD DUP3 DUP1 SLOAD PUSH2 0x1709 SWAP1 PUSH2 0x4833 JUMP JUMPDEST DUP1 ISZERO PUSH2 0x1756 JUMPI DUP1 PUSH1 0x1F LT PUSH2 0x172B JUMPI PUSH2 0x100 DUP1 DUP4 SLOAD DIV MUL DUP4 MSTORE SWAP2 PUSH1 0x20 ADD SWAP2 PUSH2 0x1756 JUMP JUMPDEST DUP3 ADD SWAP2 SWAP1 PUSH1 0x0 MSTORE PUSH1 0x20 PUSH1 0x0 KECCAK256 SWAP1 JUMPDEST DUP2 SLOAD DUP2 MSTORE SWAP1 PUSH1 0x1 ADD SWAP1 PUSH1 0x20 ADD DUP1 DUP4 GT PUSH2 0x1739 JUMPI DUP3 SWAP1 SUB PUSH1 0x1F AND DUP3 ADD SWAP2 JUMPDEST POP POP POP POP POP DUP2 MSTORE PUSH1 0x20 ADD PUSH1 0x2 DUP3 ADD DUP1 SLOAD PUSH2 0x176F SWAP1 PUSH2 0x4833 JUMP JUMPDEST DUP1 PUSH1 0x1F ADD PUSH1 0x20 DUP1 SWAP2 DIV MUL PUSH1 0x20 ADD PUSH1 0x40 MLOAD SWAP1 DUP2 ADD PUSH1 0x40 MSTORE DUP1 SWAP3 SWAP2 SWAP1 DUP2 DUP2 MSTORE PUSH1 0x20 ADD DUP3 DUP1 SLOAD PUSH2 0x179B SWAP1 PUSH2 0x4833 JUMP JUMPDEST DUP1 ISZERO PUSH2 0x17E8 JUMPI DUP1 PUSH1 0x1F LT PUSH2 0x17BD JUMPI PUSH2 0x100 DUP1 DUP4 SLOAD DIV MUL DUP4 MSTORE SWAP2 PUSH1 0x20 ADD SWAP2 PUSH2 0x17E8 JUMP JUMPDEST DUP3 ADD SWAP2 SWAP1 PUSH1 0x0 MSTORE PUSH1 0x20 PUSH1 0x0 KECCAK256 SWAP1 JUMPDEST DUP2 SLOAD DUP2 MSTORE SWAP1 PUSH1 0x1 ADD SWAP1 PUSH1 0x20 ADD DUP1 DUP4 GT PUSH2 0x17CB JUMPI DUP3 SWAP1 SUB PUSH1 0x1F AND DUP3 ADD SWAP2 JUMPDEST POP POP POP POP POP DUP2 MSTORE PUSH1 0x20 ADD PUSH1 0x3 DUP3 ADD DUP1 SLOAD PUSH2 0x1801 SWAP1 PUSH2 0x4833 JUMP JUMPDEST DUP1 PUSH1 0x1F ADD PUSH1 0x20 DUP1 SWAP2 DIV MUL PUSH1 0x20 ADD PUSH1 0x40 MLOAD SWAP1 DUP2 ADD PUSH1 0x40 MSTORE DUP1 SWAP3 SWAP2 SWAP1 DUP2 DUP2 MSTORE PUSH1 0x20 ADD DUP3 DUP1 SLOAD PUSH2 0x182D SWAP1 PUSH2 0x4833 JUMP JUMPDEST DUP1 ISZERO PUSH2 0x187A JUMPI DUP1 PUSH1 0x1F LT PUSH2 0x184F JUMPI PUSH2 0x100 DUP1 DUP4 SLOAD DIV MUL DUP4 MSTORE SWAP2 PUSH1 0x20 ADD SWAP2 PUSH2 0x187A JUMP JUMPDEST DUP3 ADD SWAP2 SWAP1 PUSH1 0x0 MSTORE PUSH1 0x20 PUSH1 0x0 KECCAK256 SWAP1 JUMPDEST DUP2 SLOAD DUP2 MSTORE SWAP1 PUSH1 0x1 ADD SWAP1 PUSH1 0x20 ADD DUP1 DUP4 GT PUSH2 0x185D JUMPI DUP3 SWAP1 SUB PUSH1 0x1F AND DUP3 ADD SWAP2 JUMPDEST POP POP POP POP POP DUP2 MSTORE PUSH1 0x20 ADD PUSH1 0x4 DUP3 ADD DUP1 SLOAD PUSH2 0x1893 SWAP1 PUSH2 0x4833 JUMP JUMPDEST DUP1 PUSH1 0x1F ADD PUSH1 0x20 DUP1 SWAP2 DIV MUL PUSH1 0x20 ADD PUSH1 0x40 MLOAD SWAP1 DUP2 ADD PUSH1 0x40 MSTORE DUP1 SWAP3 SWAP2 SWAP1 DUP2 DUP2 MSTORE PUSH1 0x20 ADD DUP3 DUP1 SLOAD PUSH2 0x18BF SWAP1 PUSH2 0x4833 JUMP JUMPDEST DUP1 ISZERO PUSH2 0x190C JUMPI DUP1 PUSH1 0x1F LT PUSH2 0x18E1 JUMPI PUSH2 0x100 DUP1 DUP4 SLOAD DIV MUL DUP4 MSTORE SWAP2 PUSH1 0x20 ADD SWAP2 PUSH2 0x190C JUMP JUMPDEST DUP3 ADD SWAP2 SWAP1 PUSH1 0x0 MSTORE PUSH1 0x20 PUSH1 0x0 KECCAK256 SWAP1 JUMPDEST DUP2 SLOAD DUP2 MSTORE SWAP1 PUSH1 0x1 ADD SWAP1 PUSH1 0x20 ADD DUP1 DUP4 GT PUSH2 0x18EF JUMPI DUP3 SWAP1 SUB PUSH1 0x1F AND DUP3 ADD SWAP2 JUMPDEST POP POP POP SWAP2 DUP4 MSTORE POP POP PUSH1 0x5 DUP3 ADD SLOAD PUSH1 0x1 PUSH1 0x1 PUSH1 0xA0 SHL SUB AND PUSH1 0x20 DUP1 DUP4 ADD SWAP2 SWAP1 SWAP2 MSTORE PUSH1 0x6 SWAP1 SWAP3 ADD SLOAD PUSH1 0x40 SWAP1 SWAP2 ADD MSTORE SWAP1 DUP3 MSTORE PUSH1 0x1 SWAP3 SWAP1 SWAP3 ADD SWAP2 ADD PUSH2 0x16A0 JUMP JUMPDEST POP POP POP POP SWAP1 POP SWAP1 JUMP JUMPDEST PUSH2 0x19A8 PUSH1 0x40 MLOAD DUP1 PUSH2 0x120 ADD PUSH1 0x40 MSTORE DUP1 PUSH1 0x0 DUP2 MSTORE PUSH1 0x20 ADD PUSH1 0x60 DUP2 MSTORE PUSH1 0x20 ADD PUSH1 0x60 DUP2 MSTORE PUSH1 0x20 ADD PUSH1 0x60 DUP2 MSTORE PUSH1 0x20 ADD PUSH1 0x60 DUP2 MSTORE PUSH1 0x20 ADD PUSH1 0x0 PUSH1 0x1 PUSH1 0x1 PUSH1 0xA0 SHL SUB AND DUP2 MSTORE PUSH1 0x20 ADD PUSH1 0x60 DUP2 MSTORE PUSH1 0x20 ADD PUSH1 0x60 DUP2 MSTORE PUSH1 0x20 ADD PUSH1 0x0 DUP2 MSTORE POP SWAP1 JUMP JUMPDEST PUSH1 0x9 PUSH1 0x2 PUSH2 0x19B7 PUSH1 0x1 DUP6 PUSH2 0x4804 JUMP JUMPDEST DUP2 SLOAD DUP2 LT PUSH2 0x19C7 JUMPI PUSH2 0x19C7 PUSH2 0x481D JUMP JUMPDEST SWAP1 PUSH1 0x0 MSTORE PUSH1 0x20 PUSH1 0x0 KECCAK256 SWAP1 PUSH1 0x9 MUL ADD PUSH1 0x7 ADD PUSH1 0x40 MLOAD PUSH2 0x19E5 SWAP2 SWAP1 PUSH2 0x48E0 JUMP JUMPDEST SWAP1 DUP2 MSTORE PUSH1 0x40 MLOAD SWAP1 DUP2 SWAP1 SUB PUSH1 0x20 ADD SWAP1 KECCAK256 SLOAD PUSH1 0xFF AND PUSH2 0x1A3D JUMPI PUSH1 0x40 MLOAD PUSH3 0x461BCD PUSH1 0xE5 SHL DUP2 MSTORE PUSH1 0x20 PUSH1 0x4 DUP3 ADD MSTORE PUSH1 0x16 PUSH1 0x24 DUP3 ADD MSTORE PUSH22 0x115D9A59195B98D948191BD95CDB89DD08195E1A5CDD PUSH1 0x52 SHL PUSH1 0x44 DUP3 ADD MSTORE PUSH1 0x64 ADD PUSH2 0x416 JUMP JUMPDEST PUSH1 0x2 PUSH2 0x1A4A PUSH1 0x1 DUP5 PUSH2 0x4804 JUMP JUMPDEST DUP2 SLOAD DUP2 LT PUSH2 0x1A5A JUMPI PUSH2 0x1A5A PUSH2 0x481D JUMP JUMPDEST SWAP1 PUSH1 0x0 MSTORE PUSH1 0x20 PUSH1 0x0 KECCAK256 SWAP1 PUSH1 0x9 MUL ADD PUSH1 0x40 MLOAD DUP1 PUSH2 0x120 ADD PUSH1 0x40 MSTORE SWAP1 DUP2 PUSH1 0x0 DUP3 ADD SLOAD DUP2 MSTORE PUSH1 0x20 ADD PUSH1 0x1 DUP3 ADD DUP1 SLOAD PUSH2 0x1A8E SWAP1 PUSH2 0x4833 JUMP JUMPDEST DUP1 PUSH1 0x1F ADD PUSH1 0x20 DUP1 SWAP2 DIV MUL PUSH1 0x20 ADD PUSH1 0x40 MLOAD SWAP1 DUP2 ADD PUSH1 0x40 MSTORE DUP1 SWAP3 SWAP2 SWAP1 DUP2 DUP2 MSTORE PUSH1 0x20 ADD DUP3 DUP1 SLOAD PUSH2 0x1ABA SWAP1 PUSH2 0x4833 JUMP JUMPDEST DUP1 ISZERO PUSH2 0x1B07 JUMPI DUP1 PUSH1 0x1F LT PUSH2 0x1ADC JUMPI PUSH2 0x100 DUP1 DUP4 SLOAD DIV MUL DUP4 MSTORE SWAP2 PUSH1 0x20 ADD SWAP2 PUSH2 0x1B07 JUMP JUMPDEST DUP3 ADD SWAP2 SWAP1 PUSH1 0x0 MSTORE PUSH1 0x20 PUSH1 0x0 KECCAK256 SWAP1 JUMPDEST DUP2 SLOAD DUP2 MSTORE SWAP1 PUSH1 0x1 ADD SWAP1 PUSH1 0x20 ADD DUP1 DUP4 GT PUSH2 0x1AEA JUMPI DUP3 SWAP1 SUB PUSH1 0x1F AND DUP3 ADD SWAP2 JUMPDEST POP POP POP POP POP DUP2 MSTORE PUSH1 0x20 ADD PUSH1 0x2 DUP3 ADD DUP1 SLOAD PUSH2 0x1B20 SWAP1 PUSH2 0x4833 JUMP JUMPDEST DUP1 PUSH1 0x1F ADD PUSH1 0x20 DUP1 SWAP2 DIV MUL PUSH1 0x20 ADD PUSH1 0x40 MLOAD SWAP1 DUP2 ADD PUSH1 0x40 MSTORE DUP1 SWAP3 SWAP2 SWAP1 DUP2 DUP2 MSTORE PUSH1 0x20 ADD DUP3 DUP1 SLOAD PUSH2 0x1B4C SWAP1 PUSH2 0x4833 JUMP JUMPDEST DUP1 ISZERO PUSH2 0x1B99 JUMPI DUP1 PUSH1 0x1F LT PUSH2 0x1B6E JUMPI PUSH2 0x100 DUP1 DUP4 SLOAD DIV MUL DUP4 MSTORE SWAP2 PUSH1 0x20 ADD SWAP2 PUSH2 0x1B99 JUMP JUMPDEST DUP3 ADD SWAP2 SWAP1 PUSH1 0x0 MSTORE PUSH1 0x20 PUSH1 0x0 KECCAK256 SWAP1 JUMPDEST DUP2 SLOAD DUP2 MSTORE SWAP1 PUSH1 0x1 ADD SWAP1 PUSH1 0x20 ADD DUP1 DUP4 GT PUSH2 0x1B7C JUMPI DUP3 SWAP1 SUB PUSH1 0x1F AND DUP3 ADD SWAP2 JUMPDEST POP POP POP POP POP DUP2 MSTORE PUSH1 0x20 ADD PUSH1 0x3 DUP3 ADD DUP1 SLOAD PUSH2 0x1BB2 SWAP1 PUSH2 0x4833 JUMP JUMPDEST DUP1 PUSH1 0x1F ADD PUSH1 0x20 DUP1 SWAP2 DIV MUL PUSH1 0x20 ADD PUSH1 0x40 MLOAD SWAP1 DUP2 ADD PUSH1 0x40 MSTORE DUP1 SWAP3 SWAP2 SWAP1 DUP2 DUP2 MSTORE PUSH1 0x20 ADD DUP3 DUP1 SLOAD PUSH2 0x1BDE SWAP1 PUSH2 0x4833 JUMP JUMPDEST DUP1 ISZERO PUSH2 0x1C2B JUMPI DUP1 PUSH1 0x1F LT PUSH2 0x1C00 JUMPI PUSH2 0x100 DUP1 DUP4 SLOAD DIV MUL DUP4 MSTORE SWAP2 PUSH1 0x20 ADD SWAP2 PUSH2 0x1C2B JUMP JUMPDEST DUP3 ADD SWAP2 SWAP1 PUSH1 0x0 MSTORE PUSH1 0x20 PUSH1 0x0 KECCAK256 SWAP1 JUMPDEST DUP2 SLOAD DUP2 MSTORE SWAP1 PUSH1 0x1 ADD SWAP1 PUSH1 0x20 ADD DUP1 DUP4 GT PUSH2 0x1C0E JUMPI DUP3 SWAP1 SUB PUSH1 0x1F AND DUP3 ADD SWAP2 JUMPDEST POP POP POP POP POP DUP2 MSTORE PUSH1 0x20 ADD PUSH1 0x4 DUP3 ADD DUP1 SLOAD PUSH2 0x1C44 SWAP1 PUSH2 0x4833 JUMP JUMPDEST DUP1 PUSH1 0x1F ADD PUSH1 0x20 DUP1 SWAP2 DIV MUL PUSH1 0x20 ADD PUSH1 0x40 MLOAD SWAP1 DUP2 ADD PUSH1 0x40 MSTORE DUP1 SWAP3 SWAP2 SWAP1 DUP2 DUP2 MSTORE PUSH1 0x20 ADD DUP3 DUP1 SLOAD PUSH2 0x1C70 SWAP1 PUSH2 0x4833 JUMP JUMPDEST DUP1 ISZERO PUSH2 0x1CBD JUMPI DUP1 PUSH1 0x1F LT PUSH2 0x1C92 JUMPI PUSH2 0x100 DUP1 DUP4 SLOAD DIV MUL DUP4 MSTORE SWAP2 PUSH1 0x20 ADD SWAP2 PUSH2 0x1CBD JUMP JUMPDEST DUP3 ADD SWAP2 SWAP1 PUSH1 0x0 MSTORE PUSH1 0x20 PUSH1 0x0 KECCAK256 SWAP1 JUMPDEST DUP2 SLOAD DUP2 MSTORE SWAP1 PUSH1 0x1 ADD SWAP1 PUSH1 0x20 ADD DUP1 DUP4 GT PUSH2 0x1CA0 JUMPI DUP3 SWAP1 SUB PUSH1 0x1F AND DUP3 ADD SWAP2 JUMPDEST POP POP POP SWAP2 DUP4 MSTORE POP POP PUSH1 0x5 DUP3 ADD SLOAD PUSH1 0x1 PUSH1 0x1 PUSH1 0xA0 SHL SUB AND PUSH1 0x20 DUP3 ADD MSTORE PUSH1 0x6 DUP3 ADD DUP1 SLOAD PUSH1 0x40 SWAP1 SWAP3 ADD SWAP2 PUSH2 0x1CED SWAP1 PUSH2 0x4833 JUMP JUMPDEST DUP1 PUSH1 0x1F ADD PUSH1 0x20 DUP1 SWAP2 DIV MUL PUSH1 0x20 ADD PUSH1 0x40 MLOAD SWAP1 DUP2 ADD PUSH1 0x40 MSTORE DUP1 SWAP3 SWAP2 SWAP1 DUP2 DUP2 MSTORE PUSH1 0x20 ADD DUP3 DUP1 SLOAD PUSH2 0x1D19 SWAP1 PUSH2 0x4833 JUMP JUMPDEST DUP1 ISZERO PUSH2 0x1D66 JUMPI DUP1 PUSH1 0x1F LT PUSH2 0x1D3B JUMPI PUSH2 0x100 DUP1 DUP4 SLOAD DIV MUL DUP4 MSTORE SWAP2 PUSH1 0x20 ADD SWAP2 PUSH2 0x1D66 JUMP JUMPDEST DUP3 ADD SWAP2 SWAP1 PUSH1 0x0 MSTORE PUSH1 0x20 PUSH1 0x0 KECCAK256 SWAP1 JUMPDEST DUP2 SLOAD DUP2 MSTORE SWAP1 PUSH1 0x1 ADD SWAP1 PUSH1 0x20 ADD DUP1 DUP4 GT PUSH2 0x1D49 JUMPI DUP3 SWAP1 SUB PUSH1 0x1F AND DUP3 ADD SWAP2 JUMPDEST POP POP POP POP POP DUP2 MSTORE PUSH1 0x20 ADD PUSH1 0x7 DUP3 ADD DUP1 SLOAD PUSH2 0x1D7F SWAP1 PUSH2 0x4833 JUMP JUMPDEST DUP1 PUSH1 0x1F ADD PUSH1 0x20 DUP1 SWAP2 DIV MUL PUSH1 0x20 ADD PUSH1 0x40 MLOAD SWAP1 DUP2 ADD PUSH1 0x40 MSTORE DUP1 SWAP3 SWAP2 SWAP1 DUP2 DUP2 MSTORE PUSH1 0x20 ADD DUP3 DUP1 SLOAD PUSH2 0x1DAB SWAP1 PUSH2 0x4833 JUMP JUMPDEST DUP1 ISZERO PUSH2 0x1DF8 JUMPI DUP1 PUSH1 0x1F LT PUSH2 0x1DCD JUMPI PUSH2 0x100 DUP1 DUP4 SLOAD DIV MUL DUP4 MSTORE SWAP2 PUSH1 0x20 ADD SWAP2 PUSH2 0x1DF8 JUMP JUMPDEST DUP3 ADD SWAP2 SWAP1 PUSH1 0x0 MSTORE PUSH1 0x20 PUSH1 0x0 KECCAK256 SWAP1 JUMPDEST DUP2 SLOAD DUP2 MSTORE SWAP1 PUSH1 0x1 ADD SWAP1 PUSH1 0x20 ADD DUP1 DUP4 GT PUSH2 0x1DDB JUMPI DUP3 SWAP1 SUB PUSH1 0x1F AND DUP3 ADD SWAP2 JUMPDEST POP POP POP POP POP DUP2 MSTORE PUSH1 0x20 ADD PUSH1 0x8 DUP3 ADD SLOAD DUP2 MSTORE POP POP SWAP1 POP SWAP2 SWAP1 POP JUMP JUMPDEST PUSH1 0x5 DUP2 DUP2 SLOAD DUP2 LT PUSH2 0x1414 JUMPI PUSH1 0x0 DUP1 REVERT JUMPDEST PUSH1 0x9 PUSH1 0x2 PUSH2 0x1E31 PUSH1 0x1 DUP7 PUSH2 0x4804 JUMP JUMPDEST DUP2 SLOAD DUP2 LT PUSH2 0x1E41 JUMPI PUSH2 0x1E41 PUSH2 0x481D JUMP JUMPDEST SWAP1 PUSH1 0x0 MSTORE PUSH1 0x20 PUSH1 0x0 KECCAK256 SWAP1 PUSH1 0x9 MUL ADD PUSH1 0x7 ADD PUSH1 0x40 MLOAD PUSH2 0x1E5F SWAP2 SWAP1 PUSH2 0x48E0 JUMP JUMPDEST SWAP1 DUP2 MSTORE PUSH1 0x40 MLOAD SWAP1 DUP2 SWAP1 SUB PUSH1 0x20 ADD SWAP1 KECCAK256 SLOAD PUSH1 0xFF AND PUSH2 0x1EB7 JUMPI PUSH1 0x40 MLOAD PUSH3 0x461BCD PUSH1 0xE5 SHL DUP2 MSTORE PUSH1 0x20 PUSH1 0x4 DUP3 ADD MSTORE PUSH1 0x16 PUSH1 0x24 DUP3 ADD MSTORE PUSH22 0x115D9A59195B98D948191BD95CDB89DD08195E1A5CDD PUSH1 0x52 SHL PUSH1 0x44 DUP3 ADD MSTORE PUSH1 0x64 ADD PUSH2 0x416 JUMP JUMPDEST PUSH1 0x0 PUSH1 0x2 PUSH2 0x1EC6 PUSH1 0x1 DUP7 PUSH2 0x4804 JUMP JUMPDEST DUP2 SLOAD DUP2 LT PUSH2 0x1ED6 JUMPI PUSH2 0x1ED6 PUSH2 0x481D JUMP JUMPDEST SWAP1 PUSH1 0x0 MSTORE PUSH1 0x20 PUSH1 0x0 KECCAK256 SWAP1 PUSH1 0x9 MUL ADD PUSH1 0x6 ADD DUP1 SLOAD PUSH2 0x1EF2 SWAP1 PUSH2 0x4833 JUMP JUMPDEST DUP1 PUSH1 0x1F ADD PUSH1 0x20 DUP1 SWAP2 DIV MUL PUSH1 0x20 ADD PUSH1 0x40 MLOAD SWAP1 DUP2 ADD PUSH1 0x40 MSTORE DUP1 SWAP3 SWAP2 SWAP1 DUP2 DUP2 MSTORE PUSH1 0x20 ADD DUP3 DUP1 SLOAD PUSH2 0x1F1E SWAP1 PUSH2 0x4833 JUMP JUMPDEST DUP1 ISZERO PUSH2 0x1F6B JUMPI DUP1 PUSH1 0x1F LT PUSH2 0x1F40 JUMPI PUSH2 0x100 DUP1 DUP4 SLOAD DIV MUL DUP4 MSTORE SWAP2 PUSH1 0x20 ADD SWAP2 PUSH2 0x1F6B JUMP JUMPDEST DUP3 ADD SWAP2 SWAP1 PUSH1 0x0 MSTORE PUSH1 0x20 PUSH1 0x0 KECCAK256 SWAP1 JUMPDEST DUP2 SLOAD DUP2 MSTORE SWAP1 PUSH1 0x1 ADD SWAP1 PUSH1 0x20 ADD DUP1 DUP4 GT PUSH2 0x1F4E JUMPI DUP3 SWAP1 SUB PUSH1 0x1F AND DUP3 ADD SWAP2 JUMPDEST POP POP POP POP POP SWAP1 POP DUP3 DUP1 MLOAD SWAP1 PUSH1 0x20 ADD KECCAK256 PUSH1 0x2 PUSH1 0x1 DUP7 PUSH2 0x1F89 SWAP2 SWAP1 PUSH2 0x4804 JUMP JUMPDEST DUP2 SLOAD DUP2 LT PUSH2 0x1F99 JUMPI PUSH2 0x1F99 PUSH2 0x481D JUMP JUMPDEST SWAP1 PUSH1 0x0 MSTORE PUSH1 0x20 PUSH1 0x0 KECCAK256 SWAP1 PUSH1 0x9 MUL ADD PUSH1 0x4 ADD PUSH1 0x40 MLOAD PUSH2 0x1FB7 SWAP2 SWAP1 PUSH2 0x48E0 JUMP JUMPDEST PUSH1 0x40 MLOAD DUP1 SWAP2 SUB SWAP1 KECCAK256 EQ PUSH2 0x22D2 JUMPI PUSH1 0x0 PUSH1 0x2 PUSH2 0x1FD3 PUSH1 0x1 DUP8 PUSH2 0x4804 JUMP JUMPDEST DUP2 SLOAD DUP2 LT PUSH2 0x1FE3 JUMPI PUSH2 0x1FE3 PUSH2 0x481D JUMP JUMPDEST SWAP1 PUSH1 0x0 MSTORE PUSH1 0x20 PUSH1 0x0 KECCAK256 SWAP1 PUSH1 0x9 MUL ADD PUSH1 0x4 ADD DUP1 SLOAD PUSH2 0x1FFF SWAP1 PUSH2 0x4833 JUMP JUMPDEST DUP1 PUSH1 0x1F ADD PUSH1 0x20 DUP1 SWAP2 DIV MUL PUSH1 0x20 ADD PUSH1 0x40 MLOAD SWAP1 DUP2 ADD PUSH1 0x40 MSTORE DUP1 SWAP3 SWAP2 SWAP1 DUP2 DUP2 MSTORE PUSH1 0x20 ADD DUP3 DUP1 SLOAD PUSH2 0x202B SWAP1 PUSH2 0x4833 JUMP JUMPDEST DUP1 ISZERO PUSH2 0x2078 JUMPI DUP1 PUSH1 0x1F LT PUSH2 0x204D JUMPI PUSH2 0x100 DUP1 DUP4 SLOAD DIV MUL DUP4 MSTORE SWAP2 PUSH1 0x20 ADD SWAP2 PUSH2 0x2078 JUMP JUMPDEST DUP3 ADD SWAP2 SWAP1 PUSH1 0x0 MSTORE PUSH1 0x20 PUSH1 0x0 KECCAK256 SWAP1 JUMPDEST DUP2 SLOAD DUP2 MSTORE SWAP1 PUSH1 0x1 ADD SWAP1 PUSH1 0x20 ADD DUP1 DUP4 GT PUSH2 0x205B JUMPI DUP3 SWAP1 SUB PUSH1 0x1F AND DUP3 ADD SWAP2 JUMPDEST POP POP POP POP POP SWAP1 POP DUP4 PUSH1 0x2 PUSH1 0x1 DUP8 PUSH2 0x208F SWAP2 SWAP1 PUSH2 0x4804 JUMP JUMPDEST DUP2 SLOAD DUP2 LT PUSH2 0x209F JUMPI PUSH2 0x209F PUSH2 0x481D JUMP JUMPDEST SWAP1 PUSH1 0x0 MSTORE PUSH1 0x20 PUSH1 0x0 KECCAK256 SWAP1 PUSH1 0x9 MUL ADD PUSH1 0x4 ADD SWAP1 DUP2 PUSH2 0x20BC SWAP2 SWAP1 PUSH2 0x493D JUMP JUMPDEST POP DUP4 PUSH1 0xB DUP4 PUSH1 0x40 MLOAD PUSH2 0x20CE SWAP2 SWAP1 PUSH2 0x47D2 JUMP JUMPDEST SWAP1 DUP2 MSTORE PUSH1 0x40 MLOAD SWAP1 DUP2 SWAP1 SUB PUSH1 0x20 ADD SWAP1 KECCAK256 PUSH2 0x20E8 PUSH1 0x1 DUP9 PUSH2 0x4804 JUMP JUMPDEST DUP2 SLOAD DUP2 LT PUSH2 0x20F8 JUMPI PUSH2 0x20F8 PUSH2 0x481D JUMP JUMPDEST SWAP1 PUSH1 0x0 MSTORE PUSH1 0x20 PUSH1 0x0 KECCAK256 SWAP1 PUSH1 0x9 MUL ADD PUSH1 0x4 ADD SWAP1 DUP2 PUSH2 0x2115 SWAP2 SWAP1 PUSH2 0x493D JUMP JUMPDEST POP PUSH1 0x3 PUSH1 0x40 MLOAD DUP1 PUSH1 0xE0 ADD PUSH1 0x40 MSTORE DUP1 DUP8 DUP2 MSTORE PUSH1 0x20 ADD PUSH1 0x2 PUSH1 0x1 DUP10 PUSH2 0x2138 SWAP2 SWAP1 PUSH2 0x4804 JUMP JUMPDEST DUP2 SLOAD DUP2 LT PUSH2 0x2148 JUMPI PUSH2 0x2148 PUSH2 0x481D JUMP JUMPDEST SWAP1 PUSH1 0x0 MSTORE PUSH1 0x20 PUSH1 0x0 KECCAK256 SWAP1 PUSH1 0x9 MUL ADD PUSH1 0x6 ADD DUP1 SLOAD PUSH2 0x2164 SWAP1 PUSH2 0x4833 JUMP JUMPDEST DUP1 PUSH1 0x1F ADD PUSH1 0x20 DUP1 SWAP2 DIV MUL PUSH1 0x20 ADD PUSH1 0x40 MLOAD SWAP1 DUP2 ADD PUSH1 0x40 MSTORE DUP1 SWAP3 SWAP2 SWAP1 DUP2 DUP2 MSTORE PUSH1 0x20 ADD DUP3 DUP1 SLOAD PUSH2 0x2190 SWAP1 PUSH2 0x4833 JUMP JUMPDEST DUP1 ISZERO PUSH2 0x21DD JUMPI DUP1 PUSH1 0x1F LT PUSH2 0x21B2 JUMPI PUSH2 0x100 DUP1 DUP4 SLOAD DIV MUL DUP4 MSTORE SWAP2 PUSH1 0x20 ADD SWAP2 PUSH2 0x21DD JUMP JUMPDEST DUP3 ADD SWAP2 SWAP1 PUSH1 0x0 MSTORE PUSH1 0x20 PUSH1 0x0 KECCAK256 SWAP1 JUMPDEST DUP2 SLOAD DUP2 MSTORE SWAP1 PUSH1 0x1 ADD SWAP1 PUSH1 0x20 ADD DUP1 DUP4 GT PUSH2 0x21C0 JUMPI DUP3 SWAP1 SUB PUSH1 0x1F AND DUP3 ADD SWAP2 JUMPDEST POP POP POP SWAP2 DUP4 MSTORE POP POP PUSH1 0x40 DUP1 MLOAD DUP1 DUP3 ADD DUP3 MSTORE PUSH1 0x8 DUP2 MSTORE PUSH8 0x56616C6964697479 PUSH1 0xC0 SHL PUSH1 0x20 DUP3 DUP2 ADD SWAP2 SWAP1 SWAP2 MSTORE DUP1 DUP5 ADD SWAP2 SWAP1 SWAP2 MSTORE SWAP1 DUP3 ADD DUP6 SWAP1 MSTORE PUSH1 0x60 DUP3 ADD DUP9 SWAP1 MSTORE CALLER PUSH1 0x80 DUP4 ADD MSTORE TIMESTAMP PUSH1 0xA0 SWAP1 SWAP3 ADD SWAP2 SWAP1 SWAP2 MSTORE DUP3 SLOAD PUSH1 0x1 DUP2 DUP2 ADD DUP6 SSTORE PUSH1 0x0 SWAP5 DUP6 MSTORE SWAP4 DUP3 SWAP1 KECCAK256 DUP4 MLOAD PUSH1 0x7 SWAP1 SWAP3 MUL ADD SWAP1 DUP2 SSTORE SWAP1 DUP3 ADD MLOAD SWAP2 SWAP3 SWAP1 SWAP2 SWAP1 DUP3 ADD SWAP1 PUSH2 0x225E SWAP1 DUP3 PUSH2 0x493D JUMP JUMPDEST POP PUSH1 0x40 DUP3 ADD MLOAD PUSH1 0x2 DUP3 ADD SWAP1 PUSH2 0x2273 SWAP1 DUP3 PUSH2 0x493D JUMP JUMPDEST POP PUSH1 0x60 DUP3 ADD MLOAD PUSH1 0x3 DUP3 ADD SWAP1 PUSH2 0x2288 SWAP1 DUP3 PUSH2 0x493D JUMP JUMPDEST POP PUSH1 0x80 DUP3 ADD MLOAD PUSH1 0x4 DUP3 ADD SWAP1 PUSH2 0x229D SWAP1 DUP3 PUSH2 0x493D JUMP JUMPDEST POP PUSH1 0xA0 DUP3 ADD MLOAD PUSH1 0x5 DUP3 ADD DUP1 SLOAD PUSH1 0x1 PUSH1 0x1 PUSH1 0xA0 SHL SUB NOT AND PUSH1 0x1 PUSH1 0x1 PUSH1 0xA0 SHL SUB SWAP1 SWAP3 AND SWAP2 SWAP1 SWAP2 OR SWAP1 SSTORE PUSH1 0xC0 SWAP1 SWAP2 ADD MLOAD PUSH1 0x6 SWAP1 SWAP2 ADD SSTORE POP JUMPDEST DUP2 MLOAD PUSH1 0x20 DUP4 ADD KECCAK256 PUSH1 0x2 PUSH2 0x22E6 PUSH1 0x1 DUP8 PUSH2 0x4804 JUMP JUMPDEST DUP2 SLOAD DUP2 LT PUSH2 0x22F6 JUMPI PUSH2 0x22F6 PUSH2 0x481D JUMP JUMPDEST SWAP1 PUSH1 0x0 MSTORE PUSH1 0x20 PUSH1 0x0 KECCAK256 SWAP1 PUSH1 0x9 MUL ADD PUSH1 0x3 ADD PUSH1 0x40 MLOAD PUSH2 0x2314 SWAP2 SWAP1 PUSH2 0x48E0 JUMP JUMPDEST PUSH1 0x40 MLOAD DUP1 SWAP2 SUB SWAP1 KECCAK256 EQ PUSH2 0x2633 JUMPI PUSH1 0x0 PUSH1 0x2 PUSH2 0x2330 PUSH1 0x1 DUP8 PUSH2 0x4804 JUMP JUMPDEST DUP2 SLOAD DUP2 LT PUSH2 0x2340 JUMPI PUSH2 0x2340 PUSH2 0x481D JUMP JUMPDEST SWAP1 PUSH1 0x0 MSTORE PUSH1 0x20 PUSH1 0x0 KECCAK256 SWAP1 PUSH1 0x9 MUL ADD PUSH1 0x3 ADD DUP1 SLOAD PUSH2 0x235C SWAP1 PUSH2 0x4833 JUMP JUMPDEST DUP1 PUSH1 0x1F ADD PUSH1 0x20 DUP1 SWAP2 DIV MUL PUSH1 0x20 ADD PUSH1 0x40 MLOAD SWAP1 DUP2 ADD PUSH1 0x40 MSTORE DUP1 SWAP3 SWAP2 SWAP1 DUP2 DUP2 MSTORE PUSH1 0x20 ADD DUP3 DUP1 SLOAD PUSH2 0x2388 SWAP1 PUSH2 0x4833 JUMP JUMPDEST DUP1 ISZERO PUSH2 0x23D5 JUMPI DUP1 PUSH1 0x1F LT PUSH2 0x23AA JUMPI PUSH2 0x100 DUP1 DUP4 SLOAD DIV MUL DUP4 MSTORE SWAP2 PUSH1 0x20 ADD SWAP2 PUSH2 0x23D5 JUMP JUMPDEST DUP3 ADD SWAP2 SWAP1 PUSH1 0x0 MSTORE PUSH1 0x20 PUSH1 0x0 KECCAK256 SWAP1 JUMPDEST DUP2 SLOAD DUP2 MSTORE SWAP1 PUSH1 0x1 ADD SWAP1 PUSH1 0x20 ADD DUP1 DUP4 GT PUSH2 0x23B8 JUMPI DUP3 SWAP1 SUB PUSH1 0x1F AND DUP3 ADD SWAP2 JUMPDEST POP POP POP POP POP SWAP1 POP DUP3 PUSH1 0x2 PUSH1 0x1 DUP8 PUSH2 0x23EC SWAP2 SWAP1 PUSH2 0x4804 JUMP JUMPDEST DUP2 SLOAD DUP2 LT PUSH2 0x23FC JUMPI PUSH2 0x23FC PUSH2 0x481D JUMP JUMPDEST SWAP1 PUSH1 0x0 MSTORE PUSH1 0x20 PUSH1 0x0 KECCAK256 SWAP1 PUSH1 0x9 MUL ADD PUSH1 0x3 ADD SWAP1 DUP2 PUSH2 0x2419 SWAP2 SWAP1 PUSH2 0x493D JUMP JUMPDEST POP DUP3 PUSH1 0xB DUP4 PUSH1 0x40 MLOAD PUSH2 0x242B SWAP2 SWAP1 PUSH2 0x47D2 JUMP JUMPDEST SWAP1 DUP2 MSTORE PUSH1 0x40 MLOAD SWAP1 DUP2 SWAP1 SUB PUSH1 0x20 ADD SWAP1 KECCAK256 PUSH2 0x2445 PUSH1 0x1 DUP9 PUSH2 0x4804 JUMP JUMPDEST DUP2 SLOAD DUP2 LT PUSH2 0x2455 JUMPI PUSH2 0x2455 PUSH2 0x481D JUMP JUMPDEST SWAP1 PUSH1 0x0 MSTORE PUSH1 0x20 PUSH1 0x0 KECCAK256 SWAP1 PUSH1 0x9 MUL ADD PUSH1 0x3 ADD SWAP1 DUP2 PUSH2 0x2472 SWAP2 SWAP1 PUSH2 0x493D JUMP JUMPDEST POP PUSH1 0x3 PUSH1 0x40 MLOAD DUP1 PUSH1 0xE0 ADD PUSH1 0x40 MSTORE DUP1 DUP8 DUP2 MSTORE PUSH1 0x20 ADD PUSH1 0x2 PUSH1 0x1 DUP10 PUSH2 0x2495 SWAP2 SWAP1 PUSH2 0x4804 JUMP JUMPDEST DUP2 SLOAD DUP2 LT PUSH2 0x24A5 JUMPI PUSH2 0x24A5 PUSH2 0x481D JUMP JUMPDEST SWAP1 PUSH1 0x0 MSTORE PUSH1 0x20 PUSH1 0x0 KECCAK256 SWAP1 PUSH1 0x9 MUL ADD PUSH1 0x6 ADD DUP1 SLOAD PUSH2 0x24C1 SWAP1 PUSH2 0x4833 JUMP JUMPDEST DUP1 PUSH1 0x1F ADD PUSH1 0x20 DUP1 SWAP2 DIV MUL PUSH1 0x20 ADD PUSH1 0x40 MLOAD SWAP1 DUP2 ADD PUSH1 0x40 MSTORE DUP1 SWAP3 SWAP2 SWAP1 DUP2 DUP2 MSTORE PUSH1 0x20 ADD DUP3 DUP1 SLOAD PUSH2 0x24ED SWAP1 PUSH2 0x4833 JUMP JUMPDEST DUP1 ISZERO PUSH2 0x253A JUMPI DUP1 PUSH1 0x1F LT PUSH2 0x250F JUMPI PUSH2 0x100 DUP1 DUP4 SLOAD DIV MUL DUP4 MSTORE SWAP2 PUSH1 0x20 ADD SWAP2 PUSH2 0x253A JUMP JUMPDEST DUP3 ADD SWAP2 SWAP1 PUSH1 0x0 MSTORE PUSH1 0x20 PUSH1 0x0 KECCAK256 SWAP1 JUMPDEST DUP2 SLOAD DUP2 MSTORE SWAP1 PUSH1 0x1 ADD SWAP1 PUSH1 0x20 ADD DUP1 DUP4 GT PUSH2 0x251D JUMPI DUP3 SWAP1 SUB PUSH1 0x1F AND DUP3 ADD SWAP2 JUMPDEST POP POP POP SWAP2 DUP4 MSTORE POP POP PUSH1 0x40 DUP1 MLOAD DUP1 DUP3 ADD DUP3 MSTORE PUSH1 0xC DUP2 MSTORE PUSH12 0x2232B9B1B934B834BA34B7B7 PUSH1 0xA1 SHL PUSH1 0x20 DUP3 DUP2 ADD SWAP2 SWAP1 SWAP2 MSTORE DUP1 DUP5 ADD SWAP2 SWAP1 SWAP2 MSTORE SWAP1 DUP3 ADD DUP6 SWAP1 MSTORE PUSH1 0x60 DUP3 ADD DUP8 SWAP1 MSTORE CALLER PUSH1 0x80 DUP4 ADD MSTORE TIMESTAMP PUSH1 0xA0 SWAP1 SWAP3 ADD SWAP2 SWAP1 SWAP2 MSTORE DUP3 SLOAD PUSH1 0x1 DUP2 DUP2 ADD DUP6 SSTORE PUSH1 0x0 SWAP5 DUP6 MSTORE SWAP4 DUP3 SWAP1 KECCAK256 DUP4 MLOAD PUSH1 0x7 SWAP1 SWAP3 MUL ADD SWAP1 DUP2 SSTORE SWAP1 DUP3 ADD MLOAD SWAP2 SWAP3 SWAP1 SWAP2 SWAP1 DUP3 ADD SWAP1 PUSH2 0x25BF SWAP1 DUP3 PUSH2 0x493D JUMP JUMPDEST POP PUSH1 0x40 DUP3 ADD MLOAD PUSH1 0x2 DUP3 ADD SWAP1 PUSH2 0x25D4 SWAP1 DUP3 PUSH2 0x493D JUMP JUMPDEST POP PUSH1 0x60 DUP3 ADD MLOAD PUSH1 0x3 DUP3 ADD SWAP1 PUSH2 0x25E9 SWAP1 DUP3 PUSH2 0x493D JUMP JUMPDEST POP PUSH1 0x80 DUP3 ADD MLOAD PUSH1 0x4 DUP3 ADD SWAP1 PUSH2 0x25FE SWAP1 DUP3 PUSH2 0x493D JUMP JUMPDEST POP PUSH1 0xA0 DUP3 ADD MLOAD PUSH1 0x5 DUP3 ADD DUP1 SLOAD PUSH1 0x1 PUSH1 0x1 PUSH1 0xA0 SHL SUB NOT AND PUSH1 0x1 PUSH1 0x1 PUSH1 0xA0 SHL SUB SWAP1 SWAP3 AND SWAP2 SWAP1 SWAP2 OR SWAP1 SSTORE PUSH1 0xC0 SWAP1 SWAP2 ADD MLOAD PUSH1 0x6 SWAP1 SWAP2 ADD SSTORE POP JUMPDEST POP POP POP POP JUMP JUMPDEST PUSH1 0x9 DUP2 PUSH1 0x40 MLOAD PUSH2 0x2649 SWAP2 SWAP1 PUSH2 0x47D2 JUMP JUMPDEST SWAP1 DUP2 MSTORE PUSH1 0x40 MLOAD SWAP1 DUP2 SWAP1 SUB PUSH1 0x20 ADD SWAP1 KECCAK256 SLOAD PUSH1 0xFF AND ISZERO PUSH2 0x26A9 JUMPI PUSH1 0x40 MLOAD PUSH3 0x461BCD PUSH1 0xE5 SHL DUP2 MSTORE PUSH1 0x20 PUSH1 0x4 DUP3 ADD MSTORE PUSH1 0x19 PUSH1 0x24 DUP3 ADD MSTORE PUSH32 0x45766964656E65636520616C726561647920696E204C69737400000000000000 PUSH1 0x44 DUP3 ADD MSTORE PUSH1 0x64 ADD PUSH2 0x416 JUMP JUMPDEST PUSH1 0x6 DUP3 PUSH1 0x40 MLOAD PUSH2 0x26B9 SWAP2 SWAP1 PUSH2 0x47D2 JUMP JUMPDEST SWAP1 DUP2 MSTORE PUSH1 0x40 MLOAD SWAP1 DUP2 SWAP1 SUB PUSH1 0x20 ADD SWAP1 KECCAK256 SLOAD PUSH1 0xFF AND PUSH2 0x270D JUMPI PUSH1 0x40 MLOAD PUSH3 0x461BCD PUSH1 0xE5 SHL DUP2 MSTORE PUSH1 0x20 PUSH1 0x4 DUP3 ADD MSTORE PUSH1 0x12 PUSH1 0x24 DUP3 ADD MSTORE PUSH18 0x10D85CD948191BD95CDB89DD08195E1A5CDD PUSH1 0x72 SHL PUSH1 0x44 DUP3 ADD MSTORE PUSH1 0x64 ADD PUSH2 0x416 JUMP JUMPDEST PUSH1 0x0 DUP1 SLOAD SWAP1 DUP1 PUSH2 0x271C DUP4 PUSH2 0x4A10 JUMP JUMPDEST SWAP1 SWAP2 SSTORE POP POP PUSH1 0x40 DUP1 MLOAD PUSH2 0x120 DUP2 ADD DUP3 MSTORE PUSH1 0x0 DUP1 SLOAD DUP3 MSTORE PUSH1 0x20 DUP1 DUP4 ADD DUP10 DUP2 MSTORE DUP4 DUP6 ADD DUP10 SWAP1 MSTORE PUSH1 0x60 DUP5 ADD DUP9 SWAP1 MSTORE DUP5 MLOAD DUP1 DUP7 ADD SWAP1 SWAP6 MSTORE PUSH1 0x5 DUP6 MSTORE PUSH5 0x15985B1A59 PUSH1 0xDA SHL SWAP2 DUP6 ADD SWAP2 SWAP1 SWAP2 MSTORE PUSH1 0x80 DUP4 ADD SWAP4 SWAP1 SWAP4 MSTORE CALLER PUSH1 0xA0 DUP4 ADD MSTORE PUSH1 0xC0 DUP3 ADD DUP6 SWAP1 MSTORE PUSH1 0xE0 DUP3 ADD DUP5 SWAP1 MSTORE TIMESTAMP PUSH2 0x100 DUP4 ADD MSTORE PUSH1 0x2 DUP1 SLOAD PUSH1 0x1 DUP2 ADD DUP3 SSTORE SWAP2 MSTORE DUP2 MLOAD PUSH1 0x9 SWAP1 SWAP2 MUL PUSH32 0x405787FA12A823E0F2B7631CC41B3BA8828B3321CA811111FA75CD3AA3BB5ACE DUP2 ADD SWAP2 DUP3 SSTORE SWAP3 MLOAD SWAP2 SWAP3 SWAP1 SWAP2 PUSH32 0x405787FA12A823E0F2B7631CC41B3BA8828B3321CA811111FA75CD3AA3BB5ACF SWAP1 SWAP2 ADD SWAP1 PUSH2 0x27F4 SWAP1 DUP3 PUSH2 0x493D JUMP JUMPDEST POP PUSH1 0x40 DUP3 ADD MLOAD PUSH1 0x2 DUP3 ADD SWAP1 PUSH2 0x2809 SWAP1 DUP3 PUSH2 0x493D JUMP JUMPDEST POP PUSH1 0x60 DUP3 ADD MLOAD PUSH1 0x3 DUP3 ADD SWAP1 PUSH2 0x281E SWAP1 DUP3 PUSH2 0x493D JUMP JUMPDEST POP PUSH1 0x80 DUP3 ADD MLOAD PUSH1 0x4 DUP3 ADD SWAP1 PUSH2 0x2833 SWAP1 DUP3 PUSH2 0x493D JUMP JUMPDEST POP PUSH1 0xA0 DUP3 ADD MLOAD PUSH1 0x5 DUP3 ADD DUP1 SLOAD PUSH1 0x1 PUSH1 0x1 PUSH1 0xA0 SHL SUB NOT AND PUSH1 0x1 PUSH1 0x1 PUSH1 0xA0 SHL SUB SWAP1 SWAP3 AND SWAP2 SWAP1 SWAP2 OR SWAP1 SSTORE PUSH1 0xC0 DUP3 ADD MLOAD PUSH1 0x6 DUP3 ADD SWAP1 PUSH2 0x286E SWAP1 DUP3 PUSH2 0x493D JUMP JUMPDEST POP PUSH1 0xE0 DUP3 ADD MLOAD PUSH1 0x7 DUP3 ADD SWAP1 PUSH2 0x2883 SWAP1 DUP3 PUSH2 0x493D JUMP JUMPDEST POP PUSH2 0x100 DUP3 ADD MLOAD DUP2 PUSH1 0x8 ADD SSTORE POP POP PUSH1 0x1 PUSH1 0x9 DUP3 PUSH1 0x40 MLOAD PUSH2 0x28A3 SWAP2 SWAP1 PUSH2 0x47D2 JUMP JUMPDEST SWAP1 DUP2 MSTORE PUSH1 0x40 MLOAD SWAP1 DUP2 SWAP1 SUB PUSH1 0x20 ADD DUP2 KECCAK256 DUP1 SLOAD SWAP3 ISZERO ISZERO PUSH1 0xFF NOT SWAP1 SWAP4 AND SWAP3 SWAP1 SWAP3 OR SWAP1 SWAP2 SSTORE PUSH1 0x0 SLOAD SWAP1 PUSH1 0xA SWAP1 PUSH2 0x28D6 SWAP1 DUP5 SWAP1 PUSH2 0x47D2 JUMP JUMPDEST SWAP1 DUP2 MSTORE PUSH1 0x20 ADD PUSH1 0x40 MLOAD DUP1 SWAP2 SUB SWAP1 KECCAK256 DUP2 SWAP1 SSTORE POP PUSH1 0xB DUP3 PUSH1 0x40 MLOAD PUSH2 0x28F8 SWAP2 SWAP1 PUSH2 0x47D2 JUMP JUMPDEST SWAP1 DUP2 MSTORE PUSH1 0x40 DUP1 MLOAD SWAP2 DUP3 SWAP1 SUB PUSH1 0x20 SWAP1 DUP2 ADD DUP4 KECCAK256 PUSH2 0x120 DUP5 ADD DUP4 MSTORE PUSH1 0x0 DUP1 SLOAD DUP6 MSTORE DUP5 DUP4 ADD DUP11 DUP2 MSTORE DUP6 DUP6 ADD DUP11 SWAP1 MSTORE PUSH1 0x60 DUP7 ADD DUP10 SWAP1 MSTORE DUP5 MLOAD DUP1 DUP7 ADD SWAP1 SWAP6 MSTORE PUSH1 0x5 DUP6 MSTORE PUSH5 0x15985B1A59 PUSH1 0xDA SHL DUP6 DUP6 ADD MSTORE PUSH1 0x80 DUP7 ADD SWAP5 SWAP1 SWAP5 MSTORE CALLER PUSH1 0xA0 DUP7 ADD MSTORE PUSH1 0xC0 DUP6 ADD DUP8 SWAP1 MSTORE PUSH1 0xE0 DUP6 ADD DUP7 SWAP1 MSTORE TIMESTAMP PUSH2 0x100 DUP7 ADD MSTORE DUP2 SLOAD PUSH1 0x1 DUP2 DUP2 ADD DUP5 SSTORE SWAP3 DUP3 MSTORE SWAP3 SWAP1 KECCAK256 DUP5 MLOAD PUSH1 0x9 SWAP1 SWAP4 MUL ADD SWAP2 DUP3 SSTORE SWAP2 MLOAD SWAP1 SWAP2 DUP3 ADD SWAP1 PUSH2 0x2991 SWAP1 DUP3 PUSH2 0x493D JUMP JUMPDEST POP PUSH1 0x40 DUP3 ADD MLOAD PUSH1 0x2 DUP3 ADD SWAP1 PUSH2 0x29A6 SWAP1 DUP3 PUSH2 0x493D JUMP JUMPDEST POP PUSH1 0x60 DUP3 ADD MLOAD PUSH1 0x3 DUP3 ADD SWAP1 PUSH2 0x29BB SWAP1 DUP3 PUSH2 0x493D JUMP JUMPDEST POP PUSH1 0x80 DUP3 ADD MLOAD PUSH1 0x4 DUP3 ADD SWAP1 PUSH2 0x29D0 SWAP1 DUP3 PUSH2 0x493D JUMP JUMPDEST POP PUSH1 0xA0 DUP3 ADD MLOAD PUSH1 0x5 DUP3 ADD DUP1 SLOAD PUSH1 0x1 PUSH1 0x1 PUSH1 0xA0 SHL SUB NOT AND PUSH1 0x1 PUSH1 0x1 PUSH1 0xA0 SHL SUB SWAP1 SWAP3 AND SWAP2 SWAP1 SWAP2 OR SWAP1 SSTORE PUSH1 0xC0 DUP3 ADD MLOAD PUSH1 0x6 DUP3 ADD SWAP1 PUSH2 0x2A0B SWAP1 DUP3 PUSH2 0x493D JUMP JUMPDEST POP PUSH1 0xE0 DUP3 ADD MLOAD PUSH1 0x7 DUP3 ADD SWAP1 PUSH2 0x2A20 SWAP1 DUP3 PUSH2 0x493D JUMP JUMPDEST POP PUSH2 0x100 DUP3 ADD MLOAD DUP2 PUSH1 0x8 ADD SSTORE POP POP POP POP POP POP POP JUMP JUMPDEST PUSH1 0x4 DUP2 DUP2 SLOAD DUP2 LT PUSH2 0x2A45 JUMPI PUSH1 0x0 DUP1 REVERT JUMPDEST PUSH1 0x0 SWAP2 DUP3 MSTORE PUSH1 0x20 SWAP1 SWAP2 KECCAK256 PUSH1 0x9 SWAP1 SWAP2 MUL ADD DUP1 SLOAD PUSH1 0x1 DUP3 ADD DUP1 SLOAD SWAP2 SWAP4 POP SWAP1 PUSH2 0x2A6A SWAP1 PUSH2 0x4833 JUMP JUMPDEST DUP1 PUSH1 0x1F ADD PUSH1 0x20 DUP1 SWAP2 DIV MUL PUSH1 0x20 ADD PUSH1 0x40 MLOAD SWAP1 DUP2 ADD PUSH1 0x40 MSTORE DUP1 SWAP3 SWAP2 SWAP1 DUP2 DUP2 MSTORE PUSH1 0x20 ADD DUP3 DUP1 SLOAD PUSH2 0x2A96 SWAP1 PUSH2 0x4833 JUMP JUMPDEST DUP1 ISZERO PUSH2 0x2AE3 JUMPI DUP1 PUSH1 0x1F LT PUSH2 0x2AB8 JUMPI PUSH2 0x100 DUP1 DUP4 SLOAD DIV MUL DUP4 MSTORE SWAP2 PUSH1 0x20 ADD SWAP2 PUSH2 0x2AE3 JUMP JUMPDEST DUP3 ADD SWAP2 SWAP1 PUSH1 0x0 MSTORE PUSH1 0x20 PUSH1 0x0 KECCAK256 SWAP1 JUMPDEST DUP2 SLOAD DUP2 MSTORE SWAP1 PUSH1 0x1 ADD SWAP1 PUSH1 0x20 ADD DUP1 DUP4 GT PUSH2 0x2AC6 JUMPI DUP3 SWAP1 SUB PUSH1 0x1F AND DUP3 ADD SWAP2 JUMPDEST POP POP POP POP POP SWAP1 DUP1 PUSH1 0x2 ADD DUP1 SLOAD PUSH2 0x2AF8 SWAP1 PUSH2 0x4833 JUMP JUMPDEST DUP1 PUSH1 0x1F ADD PUSH1 0x20 DUP1 SWAP2 DIV MUL PUSH1 0x20 ADD PUSH1 0x40 MLOAD SWAP1 DUP2 ADD PUSH1 0x40 MSTORE DUP1 SWAP3 SWAP2 SWAP1 DUP2 DUP2 MSTORE PUSH1 0x20 ADD DUP3 DUP1 SLOAD PUSH2 0x2B24 SWAP1 PUSH2 0x4833 JUMP JUMPDEST DUP1 ISZERO PUSH2 0x2B71 JUMPI DUP1 PUSH1 0x1F LT PUSH2 0x2B46 JUMPI PUSH2 0x100 DUP1 DUP4 SLOAD DIV MUL DUP4 MSTORE SWAP2 PUSH1 0x20 ADD SWAP2 PUSH2 0x2B71 JUMP JUMPDEST DUP3 ADD SWAP2 SWAP1 PUSH1 0x0 MSTORE PUSH1 0x20 PUSH1 0x0 KECCAK256 SWAP1 JUMPDEST DUP2 SLOAD DUP2 MSTORE SWAP1 PUSH1 0x1 ADD SWAP1 PUSH1 0x20 ADD DUP1 DUP4 GT PUSH2 0x2B54 JUMPI DUP3 SWAP1 SUB PUSH1 0x1F AND DUP3 ADD SWAP2 JUMPDEST POP POP POP POP POP SWAP1 DUP1 PUSH1 0x3 ADD DUP1 SLOAD PUSH2 0x2B86 SWAP1 PUSH2 0x4833 JUMP JUMPDEST DUP1 PUSH1 0x1F ADD PUSH1 0x20 DUP1 SWAP2 DIV MUL PUSH1 0x20 ADD PUSH1 0x40 MLOAD SWAP1 DUP2 ADD PUSH1 0x40 MSTORE DUP1 SWAP3 SWAP2 SWAP1 DUP2 DUP2 MSTORE PUSH1 0x20 ADD DUP3 DUP1 SLOAD PUSH2 0x2BB2 SWAP1 PUSH2 0x4833 JUMP JUMPDEST DUP1 ISZERO PUSH2 0x2BFF JUMPI DUP1 PUSH1 0x1F LT PUSH2 0x2BD4 JUMPI PUSH2 0x100 DUP1 DUP4 SLOAD DIV MUL DUP4 MSTORE SWAP2 PUSH1 0x20 ADD SWAP2 PUSH2 0x2BFF JUMP JUMPDEST DUP3 ADD SWAP2 SWAP1 PUSH1 0x0 MSTORE PUSH1 0x20 PUSH1 0x0 KECCAK256 SWAP1 JUMPDEST DUP2 SLOAD DUP2 MSTORE SWAP1 PUSH1 0x1 ADD SWAP1 PUSH1 0x20 ADD DUP1 DUP4 GT PUSH2 0x2BE2 JUMPI DUP3 SWAP1 SUB PUSH1 0x1F AND DUP3 ADD SWAP2 JUMPDEST POP POP POP POP POP SWAP1 DUP1 PUSH1 0x4 ADD DUP1 SLOAD PUSH2 0x2C14 SWAP1 PUSH2 0x4833 JUMP JUMPDEST DUP1 PUSH1 0x1F ADD PUSH1 0x20 DUP1 SWAP2 DIV MUL PUSH1 0x20 ADD PUSH1 0x40 MLOAD SWAP1 DUP2 ADD PUSH1 0x40 MSTORE DUP1 SWAP3 SWAP2 SWAP1 DUP2 DUP2 MSTORE PUSH1 0x20 ADD DUP3 DUP1 SLOAD PUSH2 0x2C40 SWAP1 PUSH2 0x4833 JUMP JUMPDEST DUP1 ISZERO PUSH2 0x2C8D JUMPI DUP1 PUSH1 0x1F LT PUSH2 0x2C62 JUMPI PUSH2 0x100 DUP1 DUP4 SLOAD DIV MUL DUP4 MSTORE SWAP2 PUSH1 0x20 ADD SWAP2 PUSH2 0x2C8D JUMP JUMPDEST DUP3 ADD SWAP2 SWAP1 PUSH1 0x0 MSTORE PUSH1 0x20 PUSH1 0x0 KECCAK256 SWAP1 JUMPDEST DUP2 SLOAD DUP2 MSTORE SWAP1 PUSH1 0x1 ADD SWAP1 PUSH1 0x20 ADD DUP1 DUP4 GT PUSH2 0x2C70 JUMPI DUP3 SWAP1 SUB PUSH1 0x1F AND DUP3 ADD SWAP2 JUMPDEST POP POP POP POP POP SWAP1 DUP1 PUSH1 0x5 ADD DUP1 SLOAD PUSH2 0x2CA2 SWAP1 PUSH2 0x4833 JUMP JUMPDEST DUP1 PUSH1 0x1F ADD PUSH1 0x20 DUP1 SWAP2 DIV MUL PUSH1 0x20 ADD PUSH1 0x40 MLOAD SWAP1 DUP2 ADD PUSH1 0x40 MSTORE DUP1 SWAP3 SWAP2 SWAP1 DUP2 DUP2 MSTORE PUSH1 0x20 ADD DUP3 DUP1 SLOAD PUSH2 0x2CCE SWAP1 PUSH2 0x4833 JUMP JUMPDEST DUP1 ISZERO PUSH2 0x2D1B JUMPI DUP1 PUSH1 0x1F LT PUSH2 0x2CF0 JUMPI PUSH2 0x100 DUP1 DUP4 SLOAD DIV MUL DUP4 MSTORE SWAP2 PUSH1 0x20 ADD SWAP2 PUSH2 0x2D1B JUMP JUMPDEST DUP3 ADD SWAP2 SWAP1 PUSH1 0x0 MSTORE PUSH1 0x20 PUSH1 0x0 KECCAK256 SWAP1 JUMPDEST DUP2 SLOAD DUP2 MSTORE SWAP1 PUSH1 0x1 ADD SWAP1 PUSH1 0x20 ADD DUP1 DUP4 GT PUSH2 0x2CFE JUMPI DUP3 SWAP1 SUB PUSH1 0x1F AND DUP3 ADD SWAP2 JUMPDEST POP POP POP POP POP SWAP1 DUP1 PUSH1 0x6 ADD DUP1 SLOAD PUSH2 0x2D30 SWAP1 PUSH2 0x4833 JUMP JUMPDEST DUP1 PUSH1 0x1F ADD PUSH1 0x20 DUP1 SWAP2 DIV MUL PUSH1 0x20 ADD PUSH1 0x40 MLOAD SWAP1 DUP2 ADD PUSH1 0x40 MSTORE DUP1 SWAP3 SWAP2 SWAP1 DUP2 DUP2 MSTORE PUSH1 0x20 ADD DUP3 DUP1 SLOAD PUSH2 0x2D5C SWAP1 PUSH2 0x4833 JUMP JUMPDEST DUP1 ISZERO PUSH2 0x2DA9 JUMPI DUP1 PUSH1 0x1F LT PUSH2 0x2D7E JUMPI PUSH2 0x100 DUP1 DUP4 SLOAD DIV MUL DUP4 MSTORE SWAP2 PUSH1 0x20 ADD SWAP2 PUSH2 0x2DA9 JUMP JUMPDEST DUP3 ADD SWAP2 SWAP1 PUSH1 0x0 MSTORE PUSH1 0x20 PUSH1 0x0 KECCAK256 SWAP1 JUMPDEST DUP2 SLOAD DUP2 MSTORE SWAP1 PUSH1 0x1 ADD SWAP1 PUSH1 0x20 ADD DUP1 DUP4 GT PUSH2 0x2D8C JUMPI DUP3 SWAP1 SUB PUSH1 0x1F AND DUP3 ADD SWAP2 JUMPDEST POP POP POP POP PUSH1 0x7 DUP4 ADD SLOAD PUSH1 0x8 SWAP1 SWAP4 ADD SLOAD SWAP2 SWAP3 PUSH1 0x1 PUSH1 0x1 PUSH1 0xA0 SHL SUB AND SWAP2 SWAP1 POP DUP10 JUMP JUMPDEST PUSH1 0x60 PUSH1 0x4 DUP1 SLOAD DUP1 PUSH1 0x20 MUL PUSH1 0x20 ADD PUSH1 0x40 MLOAD SWAP1 DUP2 ADD PUSH1 0x40 MSTORE DUP1 SWAP3 SWAP2 SWAP1 DUP2 DUP2 MSTORE PUSH1 0x20 ADD PUSH1 0x0 SWAP1 JUMPDEST DUP3 DUP3 LT ISZERO PUSH2 0x1947 JUMPI DUP4 DUP3 SWAP1 PUSH1 0x0 MSTORE PUSH1 0x20 PUSH1 0x0 KECCAK256 SWAP1 PUSH1 0x9 MUL ADD PUSH1 0x40 MLOAD DUP1 PUSH2 0x120 ADD PUSH1 0x40 MSTORE SWAP1 DUP2 PUSH1 0x0 DUP3 ADD SLOAD DUP2 MSTORE PUSH1 0x20 ADD PUSH1 0x1 DUP3 ADD DUP1 SLOAD PUSH2 0x2E2B SWAP1 PUSH2 0x4833 JUMP JUMPDEST DUP1 PUSH1 0x1F ADD PUSH1 0x20 DUP1 SWAP2 DIV MUL PUSH1 0x20 ADD PUSH1 0x40 MLOAD SWAP1 DUP2 ADD PUSH1 0x40 MSTORE DUP1 SWAP3 SWAP2 SWAP1 DUP2 DUP2 MSTORE PUSH1 0x20 ADD DUP3 DUP1 SLOAD PUSH2 0x2E57 SWAP1 PUSH2 0x4833 JUMP JUMPDEST DUP1 ISZERO PUSH2 0x2EA4 JUMPI DUP1 PUSH1 0x1F LT PUSH2 0x2E79 JUMPI PUSH2 0x100 DUP1 DUP4 SLOAD DIV MUL DUP4 MSTORE SWAP2 PUSH1 0x20 ADD SWAP2 PUSH2 0x2EA4 JUMP JUMPDEST DUP3 ADD SWAP2 SWAP1 PUSH1 0x0 MSTORE PUSH1 0x20 PUSH1 0x0 KECCAK256 SWAP1 JUMPDEST DUP2 SLOAD DUP2 MSTORE SWAP1 PUSH1 0x1 ADD SWAP1 PUSH1 0x20 ADD DUP1 DUP4 GT PUSH2 0x2E87 JUMPI DUP3 SWAP1 SUB PUSH1 0x1F AND DUP3 ADD SWAP2 JUMPDEST POP POP POP POP POP DUP2 MSTORE PUSH1 0x20 ADD PUSH1 0x2 DUP3 ADD DUP1 SLOAD PUSH2 0x2EBD SWAP1 PUSH2 0x4833 JUMP JUMPDEST DUP1 PUSH1 0x1F ADD PUSH1 0x20 DUP1 SWAP2 DIV MUL PUSH1 0x20 ADD PUSH1 0x40 MLOAD SWAP1 DUP2 ADD PUSH1 0x40 MSTORE DUP1 SWAP3 SWAP2 SWAP1 DUP2 DUP2 MSTORE PUSH1 0x20 ADD DUP3 DUP1 SLOAD PUSH2 0x2EE9 SWAP1 PUSH2 0x4833 JUMP JUMPDEST DUP1 ISZERO PUSH2 0x2F36 JUMPI DUP1 PUSH1 0x1F LT PUSH2 0x2F0B JUMPI PUSH2 0x100 DUP1 DUP4 SLOAD DIV MUL DUP4 MSTORE SWAP2 PUSH1 0x20 ADD SWAP2 PUSH2 0x2F36 JUMP JUMPDEST DUP3 ADD SWAP2 SWAP1 PUSH1 0x0 MSTORE PUSH1 0x20 PUSH1 0x0 KECCAK256 SWAP1 JUMPDEST DUP2 SLOAD DUP2 MSTORE SWAP1 PUSH1 0x1 ADD SWAP1 PUSH1 0x20 ADD DUP1 DUP4 GT PUSH2 0x2F19 JUMPI DUP3 SWAP1 SUB PUSH1 0x1F AND DUP3 ADD SWAP2 JUMPDEST POP POP POP POP POP DUP2 MSTORE PUSH1 0x20 ADD PUSH1 0x3 DUP3 ADD DUP1 SLOAD PUSH2 0x2F4F SWAP1 PUSH2 0x4833 JUMP JUMPDEST DUP1 PUSH1 0x1F ADD PUSH1 0x20 DUP1 SWAP2 DIV MUL PUSH1 0x20 ADD PUSH1 0x40 MLOAD SWAP1 DUP2 ADD PUSH1 0x40 MSTORE DUP1 SWAP3 SWAP2 SWAP1 DUP2 DUP2 MSTORE PUSH1 0x20 ADD DUP3 DUP1 SLOAD PUSH2 0x2F7B SWAP1 PUSH2 0x4833 JUMP JUMPDEST DUP1 ISZERO PUSH2 0x2FC8 JUMPI DUP1 PUSH1 0x1F LT PUSH2 0x2F9D JUMPI PUSH2 0x100 DUP1 DUP4 SLOAD DIV MUL DUP4 MSTORE SWAP2 PUSH1 0x20 ADD SWAP2 PUSH2 0x2FC8 JUMP JUMPDEST DUP3 ADD SWAP2 SWAP1 PUSH1 0x0 MSTORE PUSH1 0x20 PUSH1 0x0 KECCAK256 SWAP1 JUMPDEST DUP2 SLOAD DUP2 MSTORE SWAP1 PUSH1 0x1 ADD SWAP1 PUSH1 0x20 ADD DUP1 DUP4 GT PUSH2 0x2FAB JUMPI DUP3 SWAP1 SUB PUSH1 0x1F AND DUP3 ADD SWAP2 JUMPDEST POP POP POP POP POP DUP2 MSTORE PUSH1 0x20 ADD PUSH1 0x4 DUP3 ADD DUP1 SLOAD PUSH2 0x2FE1 SWAP1 PUSH2 0x4833 JUMP JUMPDEST DUP1 PUSH1 0x1F ADD PUSH1 0x20 DUP1 SWAP2 DIV MUL PUSH1 0x20 ADD PUSH1 0x40 MLOAD SWAP1 DUP2 ADD PUSH1 0x40 MSTORE DUP1 SWAP3 SWAP2 SWAP1 DUP2 DUP2 MSTORE PUSH1 0x20 ADD DUP3 DUP1 SLOAD PUSH2 0x300D SWAP1 PUSH2 0x4833 JUMP JUMPDEST DUP1 ISZERO PUSH2 0x305A JUMPI DUP1 PUSH1 0x1F LT PUSH2 0x302F JUMPI PUSH2 0x100 DUP1 DUP4 SLOAD DIV MUL DUP4 MSTORE SWAP2 PUSH1 0x20 ADD SWAP2 PUSH2 0x305A JUMP JUMPDEST DUP3 ADD SWAP2 SWAP1 PUSH1 0x0 MSTORE PUSH1 0x20 PUSH1 0x0 KECCAK256 SWAP1 JUMPDEST DUP2 SLOAD DUP2 MSTORE SWAP1 PUSH1 0x1 ADD SWAP1 PUSH1 0x20 ADD DUP1 DUP4 GT PUSH2 0x303D JUMPI DUP3 SWAP1 SUB PUSH1 0x1F AND DUP3 ADD SWAP2 JUMPDEST POP POP POP POP POP DUP2 MSTORE PUSH1 0x20 ADD PUSH1 0x5 DUP3 ADD DUP1 SLOAD PUSH2 0x3073 SWAP1 PUSH2 0x4833 JUMP JUMPDEST DUP1 PUSH1 0x1F ADD PUSH1 0x20 DUP1 SWAP2 DIV MUL PUSH1 0x20 ADD PUSH1 0x40 MLOAD SWAP1 DUP2 ADD PUSH1 0x40 MSTORE DUP1 SWAP3 SWAP2 SWAP1 DUP2 DUP2 MSTORE PUSH1 0x20 ADD DUP3 DUP1 SLOAD PUSH2 0x309F SWAP1 PUSH2 0x4833 JUMP JUMPDEST DUP1 ISZERO PUSH2 0x30EC JUMPI DUP1 PUSH1 0x1F LT PUSH2 0x30C1 JUMPI PUSH2 0x100 DUP1 DUP4 SLOAD DIV MUL DUP4 MSTORE SWAP2 PUSH1 0x20 ADD SWAP2 PUSH2 0x30EC JUMP JUMPDEST DUP3 ADD SWAP2 SWAP1 PUSH1 0x0 MSTORE PUSH1 0x20 PUSH1 0x0 KECCAK256 SWAP1 JUMPDEST DUP2 SLOAD DUP2 MSTORE SWAP1 PUSH1 0x1 ADD SWAP1 PUSH1 0x20 ADD DUP1 DUP4 GT PUSH2 0x30CF JUMPI DUP3 SWAP1 SUB PUSH1 0x1F AND DUP3 ADD SWAP2 JUMPDEST POP POP POP POP POP DUP2 MSTORE PUSH1 0x20 ADD PUSH1 0x6 DUP3 ADD DUP1 SLOAD PUSH2 0x3105 SWAP1 PUSH2 0x4833 JUMP JUMPDEST DUP1 PUSH1 0x1F ADD PUSH1 0x20 DUP1 SWAP2 DIV MUL PUSH1 0x20 ADD PUSH1 0x40 MLOAD SWAP1 DUP2 ADD PUSH1 0x40 MSTORE DUP1 SWAP3 SWAP2 SWAP1 DUP2 DUP2 MSTORE PUSH1 0x20 ADD DUP3 DUP1 SLOAD PUSH2 0x3131 SWAP1 PUSH2 0x4833 JUMP JUMPDEST DUP1 ISZERO PUSH2 0x317E JUMPI DUP1 PUSH1 0x1F LT PUSH2 0x3153 JUMPI PUSH2 0x100 DUP1 DUP4 SLOAD DIV MUL DUP4 MSTORE SWAP2 PUSH1 0x20 ADD SWAP2 PUSH2 0x317E JUMP JUMPDEST DUP3 ADD SWAP2 SWAP1 PUSH1 0x0 MSTORE PUSH1 0x20 PUSH1 0x0 KECCAK256 SWAP1 JUMPDEST DUP2 SLOAD DUP2 MSTORE SWAP1 PUSH1 0x1 ADD SWAP1 PUSH1 0x20 ADD DUP1 DUP4 GT PUSH2 0x3161 JUMPI DUP3 SWAP1 SUB PUSH1 0x1F AND DUP3 ADD SWAP2 JUMPDEST POP POP POP SWAP2 DUP4 MSTORE POP POP PUSH1 0x7 DUP3 ADD SLOAD PUSH1 0x1 PUSH1 0x1 PUSH1 0xA0 SHL SUB AND PUSH1 0x20 DUP1 DUP4 ADD SWAP2 SWAP1 SWAP2 MSTORE PUSH1 0x8 SWAP1 SWAP3 ADD SLOAD PUSH1 0x40 SWAP1 SWAP2 ADD MSTORE SWAP1 DUP3 MSTORE PUSH1 0x1 SWAP3 SWAP1 SWAP3 ADD SWAP2 ADD PUSH2 0x2DED JUMP JUMPDEST PUSH1 0x60 PUSH1 0x2 DUP1 SLOAD DUP1 PUSH1 0x20 MUL PUSH1 0x20 ADD PUSH1 0x40 MLOAD SWAP1 DUP2 ADD PUSH1 0x40 MSTORE DUP1 SWAP3 SWAP2 SWAP1 DUP2 DUP2 MSTORE PUSH1 0x20 ADD PUSH1 0x0 SWAP1 JUMPDEST DUP3 DUP3 LT ISZERO PUSH2 0x1947 JUMPI DUP4 DUP3 SWAP1 PUSH1 0x0 MSTORE PUSH1 0x20 PUSH1 0x0 KECCAK256 SWAP1 PUSH1 0x9 MUL ADD PUSH1 0x40 MLOAD DUP1 PUSH2 0x120 ADD PUSH1 0x40 MSTORE SWAP1 DUP2 PUSH1 0x0 DUP3 ADD SLOAD DUP2 MSTORE PUSH1 0x20 ADD PUSH1 0x1 DUP3 ADD DUP1 SLOAD PUSH2 0x321B SWAP1 PUSH2 0x4833 JUMP JUMPDEST DUP1 PUSH1 0x1F ADD PUSH1 0x20 DUP1 SWAP2 DIV MUL PUSH1 0x20 ADD PUSH1 0x40 MLOAD SWAP1 DUP2 ADD PUSH1 0x40 MSTORE DUP1 SWAP3 SWAP2 SWAP1 DUP2 DUP2 MSTORE PUSH1 0x20 ADD DUP3 DUP1 SLOAD PUSH2 0x3247 SWAP1 PUSH2 0x4833 JUMP JUMPDEST DUP1 ISZERO PUSH2 0x3294 JUMPI DUP1 PUSH1 0x1F LT PUSH2 0x3269 JUMPI PUSH2 0x100 DUP1 DUP4 SLOAD DIV MUL DUP4 MSTORE SWAP2 PUSH1 0x20 ADD SWAP2 PUSH2 0x3294 JUMP JUMPDEST DUP3 ADD SWAP2 SWAP1 PUSH1 0x0 MSTORE PUSH1 0x20 PUSH1 0x0 KECCAK256 SWAP1 JUMPDEST DUP2 SLOAD DUP2 MSTORE SWAP1 PUSH1 0x1 ADD SWAP1 PUSH1 0x20 ADD DUP1 DUP4 GT PUSH2 0x3277 JUMPI DUP3 SWAP1 SUB PUSH1 0x1F AND DUP3 ADD SWAP2 JUMPDEST POP POP POP POP POP DUP2 MSTORE PUSH1 0x20 ADD PUSH1 0x2 DUP3 ADD DUP1 SLOAD PUSH2 0x32AD SWAP1 PUSH2 0x4833 JUMP JUMPDEST DUP1 PUSH1 0x1F ADD PUSH1 0x20 DUP1 SWAP2 DIV MUL PUSH1 0x20 ADD PUSH1 0x40 MLOAD SWAP1 DUP2 ADD PUSH1 0x40 MSTORE DUP1 SWAP3 SWAP2 SWAP1 DUP2 DUP2 MSTORE PUSH1 0x20 ADD DUP3 DUP1 SLOAD PUSH2 0x32D9 SWAP1 PUSH2 0x4833 JUMP JUMPDEST DUP1 ISZERO PUSH2 0x3326 JUMPI DUP1 PUSH1 0x1F LT PUSH2 0x32FB JUMPI PUSH2 0x100 DUP1 DUP4 SLOAD DIV MUL DUP4 MSTORE SWAP2 PUSH1 0x20 ADD SWAP2 PUSH2 0x3326 JUMP JUMPDEST DUP3 ADD SWAP2 SWAP1 PUSH1 0x0 MSTORE PUSH1 0x20 PUSH1 0x0 KECCAK256 SWAP1 JUMPDEST DUP2 SLOAD DUP2 MSTORE SWAP1 PUSH1 0x1 ADD SWAP1 PUSH1 0x20 ADD DUP1 DUP4 GT PUSH2 0x3309 JUMPI DUP3 SWAP1 SUB PUSH1 0x1F AND DUP3 ADD SWAP2 JUMPDEST POP POP POP POP POP DUP2 MSTORE PUSH1 0x20 ADD PUSH1 0x3 DUP3 ADD DUP1 SLOAD PUSH2 0x333F SWAP1 PUSH2 0x4833 JUMP JUMPDEST DUP1 PUSH1 0x1F ADD PUSH1 0x20 DUP1 SWAP2 DIV MUL PUSH1 0x20 ADD PUSH1 0x40 MLOAD SWAP1 DUP2 ADD PUSH1 0x40 MSTORE DUP1 SWAP3 SWAP2 SWAP1 DUP2 DUP2 MSTORE PUSH1 0x20 ADD DUP3 DUP1 SLOAD PUSH2 0x336B SWAP1 PUSH2 0x4833 JUMP JUMPDEST DUP1 ISZERO PUSH2 0x33B8 JUMPI DUP1 PUSH1 0x1F LT PUSH2 0x338D JUMPI PUSH2 0x100 DUP1 DUP4 SLOAD DIV MUL DUP4 MSTORE SWAP2 PUSH1 0x20 ADD SWAP2 PUSH2 0x33B8 JUMP JUMPDEST DUP3 ADD SWAP2 SWAP1 PUSH1 0x0 MSTORE PUSH1 0x20 PUSH1 0x0 KECCAK256 SWAP1 JUMPDEST DUP2 SLOAD DUP2 MSTORE SWAP1 PUSH1 0x1 ADD SWAP1 PUSH1 0x20 ADD DUP1 DUP4 GT PUSH2 0x339B JUMPI DUP3 SWAP1 SUB PUSH1 0x1F AND DUP3 ADD SWAP2 JUMPDEST POP POP POP POP POP DUP2 MSTORE PUSH1 0x20 ADD PUSH1 0x4 DUP3 ADD DUP1 SLOAD PUSH2 0x33D1 SWAP1 PUSH2 0x4833 JUMP JUMPDEST DUP1 PUSH1 0x1F ADD PUSH1 0x20 DUP1 SWAP2 DIV MUL PUSH1 0x20 ADD PUSH1 0x40 MLOAD SWAP1 DUP2 ADD PUSH1 0x40 MSTORE DUP1 SWAP3 SWAP2 SWAP1 DUP2 DUP2 MSTORE PUSH1 0x20 ADD DUP3 DUP1 SLOAD PUSH2 0x33FD SWAP1 PUSH2 0x4833 JUMP JUMPDEST DUP1 ISZERO PUSH2 0x344A JUMPI DUP1 PUSH1 0x1F LT PUSH2 0x341F JUMPI PUSH2 0x100 DUP1 DUP4 SLOAD DIV MUL DUP4 MSTORE SWAP2 PUSH1 0x20 ADD SWAP2 PUSH2 0x344A JUMP JUMPDEST DUP3 ADD SWAP2 SWAP1 PUSH1 0x0 MSTORE PUSH1 0x20 PUSH1 0x0 KECCAK256 SWAP1 JUMPDEST DUP2 SLOAD DUP2 MSTORE SWAP1 PUSH1 0x1 ADD SWAP1 PUSH1 0x20 ADD DUP1 DUP4 GT PUSH2 0x342D JUMPI DUP3 SWAP1 SUB PUSH1 0x1F AND DUP3 ADD SWAP2 JUMPDEST POP POP POP SWAP2 DUP4 MSTORE POP POP PUSH1 0x5 DUP3 ADD SLOAD PUSH1 0x1 PUSH1 0x1 PUSH1 0xA0 SHL SUB AND PUSH1 0x20 DUP3 ADD MSTORE PUSH1 0x6 DUP3 ADD DUP1 SLOAD PUSH1 0x40 SWAP1 SWAP3 ADD SWAP2 PUSH2 0x347A SWAP1 PUSH2 0x4833 JUMP JUMPDEST DUP1 PUSH1 0x1F ADD PUSH1 0x20 DUP1 SWAP2 DIV MUL PUSH1 0x20 ADD PUSH1 0x40 MLOAD SWAP1 DUP2 ADD PUSH1 0x40 MSTORE DUP1 SWAP3 SWAP2 SWAP1 DUP2 DUP2 MSTORE PUSH1 0x20 ADD DUP3 DUP1 SLOAD PUSH2 0x34A6 SWAP1 PUSH2 0x4833 JUMP JUMPDEST DUP1 ISZERO PUSH2 0x34F3 JUMPI DUP1 PUSH1 0x1F LT PUSH2 0x34C8 JUMPI PUSH2 0x100 DUP1 DUP4 SLOAD DIV MUL DUP4 MSTORE SWAP2 PUSH1 0x20 ADD SWAP2 PUSH2 0x34F3 JUMP JUMPDEST DUP3 ADD SWAP2 SWAP1 PUSH1 0x0 MSTORE PUSH1 0x20 PUSH1 0x0 KECCAK256 SWAP1 JUMPDEST DUP2 SLOAD DUP2 MSTORE SWAP1 PUSH1 0x1 ADD SWAP1 PUSH1 0x20 ADD DUP1 DUP4 GT PUSH2 0x34D6 JUMPI DUP3 SWAP1 SUB PUSH1 0x1F AND DUP3 ADD SWAP2 JUMPDEST POP POP POP POP POP DUP2 MSTORE PUSH1 0x20 ADD PUSH1 0x7 DUP3 ADD DUP1 SLOAD PUSH2 0x350C SWAP1 PUSH2 0x4833 JUMP JUMPDEST DUP1 PUSH1 0x1F ADD PUSH1 0x20 DUP1 SWAP2 DIV MUL PUSH1 0x20 ADD PUSH1 0x40 MLOAD SWAP1 DUP2 ADD PUSH1 0x40 MSTORE DUP1 SWAP3 SWAP2 SWAP1 DUP2 DUP2 MSTORE PUSH1 0x20 ADD DUP3 DUP1 SLOAD PUSH2 0x3538 SWAP1 PUSH2 0x4833 JUMP JUMPDEST DUP1 ISZERO PUSH2 0x3585 JUMPI DUP1 PUSH1 0x1F LT PUSH2 0x355A JUMPI PUSH2 0x100 DUP1 DUP4 SLOAD DIV MUL DUP4 MSTORE SWAP2 PUSH1 0x20 ADD SWAP2 PUSH2 0x3585 JUMP JUMPDEST DUP3 ADD SWAP2 SWAP1 PUSH1 0x0 MSTORE PUSH1 0x20 PUSH1 0x0 KECCAK256 SWAP1 JUMPDEST DUP2 SLOAD DUP2 MSTORE SWAP1 PUSH1 0x1 ADD SWAP1 PUSH1 0x20 ADD DUP1 DUP4 GT PUSH2 0x3568 JUMPI DUP3 SWAP1 SUB PUSH1 0x1F AND DUP3 ADD SWAP2 JUMPDEST POP POP POP POP POP DUP2 MSTORE PUSH1 0x20 ADD PUSH1 0x8 DUP3 ADD SLOAD DUP2 MSTORE POP POP DUP2 MSTORE PUSH1 0x20 ADD SWAP1 PUSH1 0x1 ADD SWAP1 PUSH2 0x31DD JUMP JUMPDEST PUSH1 0x60 PUSH1 0x3 DUP1 SLOAD DUP1 PUSH1 0x20 MUL PUSH1 0x20 ADD PUSH1 0x40 MLOAD SWAP1 DUP2 ADD PUSH1 0x40 MSTORE DUP1 SWAP3 SWAP2 SWAP1 DUP2 DUP2 MSTORE PUSH1 0x20 ADD PUSH1 0x0 SWAP1 JUMPDEST DUP3 DUP3 LT ISZERO PUSH2 0x1947 JUMPI DUP4 DUP3 SWAP1 PUSH1 0x0 MSTORE PUSH1 0x20 PUSH1 0x0 KECCAK256 SWAP1 PUSH1 0x7 MUL ADD PUSH1 0x40 MLOAD DUP1 PUSH1 0xE0 ADD PUSH1 0x40 MSTORE SWAP1 DUP2 PUSH1 0x0 DUP3 ADD SLOAD DUP2 MSTORE PUSH1 0x20 ADD PUSH1 0x1 DUP3 ADD DUP1 SLOAD PUSH2 0x3608 SWAP1 PUSH2 0x4833 JUMP JUMPDEST DUP1 PUSH1 0x1F ADD PUSH1 0x20 DUP1 SWAP2 DIV MUL PUSH1 0x20 ADD PUSH1 0x40 MLOAD SWAP1 DUP2 ADD PUSH1 0x40 MSTORE DUP1 SWAP3 SWAP2 SWAP1 DUP2 DUP2 MSTORE PUSH1 0x20 ADD DUP3 DUP1 SLOAD PUSH2 0x3634 SWAP1 PUSH2 0x4833 JUMP JUMPDEST DUP1 ISZERO PUSH2 0x3681 JUMPI DUP1 PUSH1 0x1F LT PUSH2 0x3656 JUMPI PUSH2 0x100 DUP1 DUP4 SLOAD DIV MUL DUP4 MSTORE SWAP2 PUSH1 0x20 ADD SWAP2 PUSH2 0x3681 JUMP JUMPDEST DUP3 ADD SWAP2 SWAP1 PUSH1 0x0 MSTORE PUSH1 0x20 PUSH1 0x0 KECCAK256 SWAP1 JUMPDEST DUP2 SLOAD DUP2 MSTORE SWAP1 PUSH1 0x1 ADD SWAP1 PUSH1 0x20 ADD DUP1 DUP4 GT PUSH2 0x3664 JUMPI DUP3 SWAP1 SUB PUSH1 0x1F AND DUP3 ADD SWAP2 JUMPDEST POP POP POP POP POP DUP2 MSTORE PUSH1 0x20 ADD PUSH1 0x2 DUP3 ADD DUP1 SLOAD PUSH2 0x369A SWAP1 PUSH2 0x4833 JUMP JUMPDEST DUP1 PUSH1 0x1F ADD PUSH1 0x20 DUP1 SWAP2 DIV MUL PUSH1 0x20 ADD PUSH1 0x40 MLOAD SWAP1 DUP2 ADD PUSH1 0x40 MSTORE DUP1 SWAP3 SWAP2 SWAP1 DUP2 DUP2 MSTORE PUSH1 0x20 ADD DUP3 DUP1 SLOAD PUSH2 0x36C6 SWAP1 PUSH2 0x4833 JUMP JUMPDEST DUP1 ISZERO PUSH2 0x3713 JUMPI DUP1 PUSH1 0x1F LT PUSH2 0x36E8 JUMPI PUSH2 0x100 DUP1 DUP4 SLOAD DIV MUL DUP4 MSTORE SWAP2 PUSH1 0x20 ADD SWAP2 PUSH2 0x3713 JUMP JUMPDEST DUP3 ADD SWAP2 SWAP1 PUSH1 0x0 MSTORE PUSH1 0x20 PUSH1 0x0 KECCAK256 SWAP1 JUMPDEST DUP2 SLOAD DUP2 MSTORE SWAP1 PUSH1 0x1 ADD SWAP1 PUSH1 0x20 ADD DUP1 DUP4 GT PUSH2 0x36F6 JUMPI DUP3 SWAP1 SUB PUSH1 0x1F AND DUP3 ADD SWAP2 JUMPDEST POP POP POP POP POP DUP2 MSTORE PUSH1 0x20 ADD PUSH1 0x3 DUP3 ADD DUP1 SLOAD PUSH2 0x372C SWAP1 PUSH2 0x4833 JUMP JUMPDEST DUP1 PUSH1 0x1F ADD PUSH1 0x20 DUP1 SWAP2 DIV MUL PUSH1 0x20 ADD PUSH1 0x40 MLOAD SWAP1 DUP2 ADD PUSH1 0x40 MSTORE DUP1 SWAP3 SWAP2 SWAP1 DUP2 DUP2 MSTORE PUSH1 0x20 ADD DUP3 DUP1 SLOAD PUSH2 0x3758 SWAP1 PUSH2 0x4833 JUMP JUMPDEST DUP1 ISZERO PUSH2 0x37A5 JUMPI DUP1 PUSH1 0x1F LT PUSH2 0x377A JUMPI PUSH2 0x100 DUP1 DUP4 SLOAD DIV MUL DUP4 MSTORE SWAP2 PUSH1 0x20 ADD SWAP2 PUSH2 0x37A5 JUMP JUMPDEST DUP3 ADD SWAP2 SWAP1 PUSH1 0x0 MSTORE PUSH1 0x20 PUSH1 0x0 KECCAK256 SWAP1 JUMPDEST DUP2 SLOAD DUP2 MSTORE SWAP1 PUSH1 0x1 ADD SWAP1 PUSH1 0x20 ADD DUP1 DUP4 GT PUSH2 0x3788 JUMPI DUP3 SWAP1 SUB PUSH1 0x1F AND DUP3 ADD SWAP2 JUMPDEST POP POP POP POP POP DUP2 MSTORE PUSH1 0x20 ADD PUSH1 0x4 DUP3 ADD DUP1 SLOAD PUSH2 0x37BE SWAP1 PUSH2 0x4833 JUMP JUMPDEST DUP1 PUSH1 0x1F ADD PUSH1 0x20 DUP1 SWAP2 DIV MUL PUSH1 0x20 ADD PUSH1 0x40 MLOAD SWAP1 DUP2 ADD PUSH1 0x40 MSTORE DUP1 SWAP3 SWAP2 SWAP1 DUP2 DUP2 MSTORE PUSH1 0x20 ADD DUP3 DUP1 SLOAD PUSH2 0x37EA SWAP1 PUSH2 0x4833 JUMP JUMPDEST DUP1 ISZERO PUSH2 0x3837 JUMPI DUP1 PUSH1 0x1F LT PUSH2 0x380C JUMPI PUSH2 0x100 DUP1 DUP4 SLOAD DIV MUL DUP4 MSTORE SWAP2 PUSH1 0x20 ADD SWAP2 PUSH2 0x3837 JUMP JUMPDEST DUP3 ADD SWAP2 SWAP1 PUSH1 0x0 MSTORE PUSH1 0x20 PUSH1 0x0 KECCAK256 SWAP1 JUMPDEST DUP2 SLOAD DUP2 MSTORE SWAP1 PUSH1 0x1 ADD SWAP1 PUSH1 0x20 ADD DUP1 DUP4 GT PUSH2 0x381A JUMPI DUP3 SWAP1 SUB PUSH1 0x1F AND DUP3 ADD SWAP2 JUMPDEST POP POP POP SWAP2 DUP4 MSTORE POP POP PUSH1 0x5 DUP3 ADD SLOAD PUSH1 0x1 PUSH1 0x1 PUSH1 0xA0 SHL SUB AND PUSH1 0x20 DUP1 DUP4 ADD SWAP2 SWAP1 SWAP2 MSTORE PUSH1 0x6 SWAP1 SWAP3 ADD SLOAD PUSH1 0x40 SWAP1 SWAP2 ADD MSTORE SWAP1 DUP3 MSTORE PUSH1 0x1 SWAP3 SWAP1 SWAP3 ADD SWAP2 ADD PUSH2 0x35CB JUMP JUMPDEST DUP6 PUSH1 0x6 DUP2 PUSH1 0x40 MLOAD PUSH2 0x3883 SWAP2 SWAP1 PUSH2 0x47D2 JUMP JUMPDEST SWAP1 DUP2 MSTORE PUSH1 0x40 MLOAD SWAP1 DUP2 SWAP1 SUB PUSH1 0x20 ADD SWAP1 KECCAK256 SLOAD PUSH1 0xFF AND ISZERO PUSH2 0x38E3 JUMPI PUSH1 0x40 MLOAD PUSH3 0x461BCD PUSH1 0xE5 SHL DUP2 MSTORE PUSH1 0x20 PUSH1 0x4 DUP3 ADD DUP2 SWAP1 MSTORE PUSH1 0x24 DUP3 ADD MSTORE PUSH32 0x43617365207769746820746869732055494420616C7265616479204578697374 PUSH1 0x44 DUP3 ADD MSTORE PUSH1 0x64 ADD PUSH2 0x416 JUMP JUMPDEST PUSH1 0x1 DUP1 SLOAD SWAP1 PUSH1 0x0 PUSH2 0x38F3 DUP4 PUSH2 0x4A10 JUMP JUMPDEST SWAP1 SWAP2 SSTORE POP POP PUSH1 0x40 DUP1 MLOAD PUSH2 0x120 DUP2 ADD DUP3 MSTORE PUSH1 0x1 DUP1 SLOAD DUP3 MSTORE PUSH1 0x20 DUP3 ADD DUP11 DUP2 MSTORE SWAP3 DUP3 ADD DUP10 SWAP1 MSTORE PUSH1 0x60 DUP3 ADD DUP9 SWAP1 MSTORE PUSH1 0x80 DUP3 ADD DUP8 SWAP1 MSTORE PUSH1 0xA0 DUP3 ADD DUP7 SWAP1 MSTORE PUSH1 0xC0 DUP3 ADD DUP6 SWAP1 MSTORE CALLER PUSH1 0xE0 DUP4 ADD MSTORE TIMESTAMP PUSH2 0x100 DUP4 ADD MSTORE PUSH1 0x4 DUP1 SLOAD SWAP2 DUP3 ADD DUP2 SSTORE PUSH1 0x0 MSTORE DUP2 MLOAD PUSH1 0x9 SWAP1 SWAP2 MUL PUSH32 0x8A35ACFBC15FF81A39AE7D344FD709F28E8600B4AA8C65C6B64BFE7FE36BD19B DUP2 ADD SWAP2 DUP3 SSTORE SWAP3 MLOAD SWAP2 SWAP3 SWAP1 SWAP2 PUSH32 0x8A35ACFBC15FF81A39AE7D344FD709F28E8600B4AA8C65C6B64BFE7FE36BD19C SWAP1 SWAP2 ADD SWAP1 PUSH2 0x39AD SWAP1 DUP3 PUSH2 0x493D JUMP JUMPDEST POP PUSH1 0x40 DUP3 ADD MLOAD PUSH1 0x2 DUP3 ADD SWAP1 PUSH2 0x39C2 SWAP1 DUP3 PUSH2 0x493D JUMP JUMPDEST POP PUSH1 0x60 DUP3 ADD MLOAD PUSH1 0x3 DUP3 ADD SWAP1 PUSH2 0x39D7 SWAP1 DUP3 PUSH2 0x493D JUMP JUMPDEST POP PUSH1 0x80 DUP3 ADD MLOAD PUSH1 0x4 DUP3 ADD SWAP1 PUSH2 0x39EC SWAP1 DUP3 PUSH2 0x493D JUMP JUMPDEST POP PUSH1 0xA0 DUP3 ADD MLOAD PUSH1 0x5 DUP3 ADD SWAP1 PUSH2 0x3A01 SWAP1 DUP3 PUSH2 0x493D JUMP JUMPDEST POP PUSH1 0xC0 DUP3 ADD MLOAD PUSH1 0x6 DUP3 ADD SWAP1 PUSH2 0x3A16 SWAP1 DUP3 PUSH2 0x493D JUMP JUMPDEST POP PUSH1 0xE0 DUP3 ADD MLOAD PUSH1 0x7 DUP3 ADD DUP1 SLOAD PUSH1 0x1 PUSH1 0x1 PUSH1 0xA0 SHL SUB NOT AND PUSH1 0x1 PUSH1 0x1 PUSH1 0xA0 SHL SUB SWAP1 SWAP3 AND SWAP2 SWAP1 SWAP2 OR SWAP1 SSTORE PUSH2 0x100 SWAP1 SWAP2 ADD MLOAD PUSH1 0x8 SWAP1 SWAP2 ADD SSTORE PUSH1 0x40 MLOAD PUSH1 0x1 SWAP1 PUSH1 0x6 SWAP1 PUSH2 0x3A5E SWAP1 DUP11 SWAP1 PUSH2 0x47D2 JUMP JUMPDEST SWAP1 DUP2 MSTORE PUSH1 0x40 MLOAD SWAP1 DUP2 SWAP1 SUB PUSH1 0x20 ADD DUP2 KECCAK256 DUP1 SLOAD SWAP3 ISZERO ISZERO PUSH1 0xFF NOT SWAP1 SWAP4 AND SWAP3 SWAP1 SWAP3 OR SWAP1 SWAP2 SSTORE PUSH1 0x1 SLOAD SWAP1 PUSH1 0x7 SWAP1 PUSH2 0x3A91 SWAP1 DUP11 SWAP1 PUSH2 0x47D2 JUMP JUMPDEST SWAP1 DUP2 MSTORE PUSH1 0x40 DUP1 MLOAD PUSH1 0x20 SWAP3 DUP2 SWAP1 SUB DUP4 ADD SWAP1 KECCAK256 SWAP3 SWAP1 SWAP3 SSTORE PUSH1 0x1 DUP1 SLOAD PUSH1 0x0 SWAP1 DUP2 MSTORE PUSH1 0x8 SWAP1 SWAP3 MSTORE SWAP2 SWAP1 KECCAK256 DUP1 SLOAD PUSH1 0xFF NOT AND SWAP1 SWAP2 OR SWAP1 SSTORE POP POP POP POP POP POP POP JUMP JUMPDEST DUP2 MLOAD PUSH1 0x20 DUP2 DUP5 ADD DUP2 ADD DUP1 MLOAD PUSH1 0xB DUP3 MSTORE SWAP3 DUP3 ADD SWAP2 DUP6 ADD SWAP2 SWAP1 SWAP2 KECCAK256 SWAP2 SWAP1 MSTORE DUP1 SLOAD DUP3 SWAP1 DUP2 LT PUSH2 0x3AF6 JUMPI PUSH1 0x0 DUP1 REVERT JUMPDEST SWAP1 PUSH1 0x0 MSTORE PUSH1 0x20 PUSH1 0x0 KECCAK256 SWAP1 PUSH1 0x9 MUL ADD PUSH1 0x0 SWAP2 POP SWAP2 POP POP DUP1 PUSH1 0x0 ADD SLOAD SWAP1 DUP1 PUSH1 0x1 ADD DUP1 SLOAD PUSH2 0x3B20 SWAP1 PUSH2 0x4833 JUMP JUMPDEST DUP1 PUSH1 0x1F ADD PUSH1 0x20 DUP1 SWAP2 DIV MUL PUSH1 0x20 ADD PUSH1 0x40 MLOAD SWAP1 DUP2 ADD PUSH1 0x40 MSTORE DUP1 SWAP3 SWAP2 SWAP1 DUP2 DUP2 MSTORE PUSH1 0x20 ADD DUP3 DUP1 SLOAD PUSH2 0x3B4C SWAP1 PUSH2 0x4833 JUMP JUMPDEST DUP1 ISZERO PUSH2 0x3B99 JUMPI DUP1 PUSH1 0x1F LT PUSH2 0x3B6E JUMPI PUSH2 0x100 DUP1 DUP4 SLOAD DIV MUL DUP4 MSTORE SWAP2 PUSH1 0x20 ADD SWAP2 PUSH2 0x3B99 JUMP JUMPDEST DUP3 ADD SWAP2 SWAP1 PUSH1 0x0 MSTORE PUSH1 0x20 PUSH1 0x0 KECCAK256 SWAP1 JUMPDEST DUP2 SLOAD DUP2 MSTORE SWAP1 PUSH1 0x1 ADD SWAP1 PUSH1 0x20 ADD DUP1 DUP4 GT PUSH2 0x3B7C JUMPI DUP3 SWAP1 SUB PUSH1 0x1F AND DUP3 ADD SWAP2 JUMPDEST POP POP POP POP POP SWAP1 DUP1 PUSH1 0x2 ADD DUP1 SLOAD PUSH2 0x3BAE SWAP1 PUSH2 0x4833 JUMP JUMPDEST DUP1 PUSH1 0x1F ADD PUSH1 0x20 DUP1 SWAP2 DIV MUL PUSH1 0x20 ADD PUSH1 0x40 MLOAD SWAP1 DUP2 ADD PUSH1 0x40 MSTORE DUP1 SWAP3 SWAP2 SWAP1 DUP2 DUP2 MSTORE PUSH1 0x20 ADD DUP3 DUP1 SLOAD PUSH2 0x3BDA SWAP1 PUSH2 0x4833 JUMP JUMPDEST DUP1 ISZERO PUSH2 0x3C27 JUMPI DUP1 PUSH1 0x1F LT PUSH2 0x3BFC JUMPI PUSH2 0x100 DUP1 DUP4 SLOAD DIV MUL DUP4 MSTORE SWAP2 PUSH1 0x20 ADD SWAP2 PUSH2 0x3C27 JUMP JUMPDEST DUP3 ADD SWAP2 SWAP1 PUSH1 0x0 MSTORE PUSH1 0x20 PUSH1 0x0 KECCAK256 SWAP1 JUMPDEST DUP2 SLOAD DUP2 MSTORE SWAP1 PUSH1 0x1 ADD SWAP1 PUSH1 0x20 ADD DUP1 DUP4 GT PUSH2 0x3C0A JUMPI DUP3 SWAP1 SUB PUSH1 0x1F AND DUP3 ADD SWAP2 JUMPDEST POP POP POP POP POP SWAP1 DUP1 PUSH1 0x3 ADD DUP1 SLOAD PUSH2 0x3C3C SWAP1 PUSH2 0x4833 JUMP JUMPDEST DUP1 PUSH1 0x1F ADD PUSH1 0x20 DUP1 SWAP2 DIV MUL PUSH1 0x20 ADD PUSH1 0x40 MLOAD SWAP1 DUP2 ADD PUSH1 0x40 MSTORE DUP1 SWAP3 SWAP2 SWAP1 DUP2 DUP2 MSTORE PUSH1 0x20 ADD DUP3 DUP1 SLOAD PUSH2 0x3C68 SWAP1 PUSH2 0x4833 JUMP JUMPDEST DUP1 ISZERO PUSH2 0x3CB5 JUMPI DUP1 PUSH1 0x1F LT PUSH2 0x3C8A JUMPI PUSH2 0x100 DUP1 DUP4 SLOAD DIV MUL DUP4 MSTORE SWAP2 PUSH1 0x20 ADD SWAP2 PUSH2 0x3CB5 JUMP JUMPDEST DUP3 ADD SWAP2 SWAP1 PUSH1 0x0 MSTORE PUSH1 0x20 PUSH1 0x0 KECCAK256 SWAP1 JUMPDEST DUP2 SLOAD DUP2 MSTORE SWAP1 PUSH1 0x1 ADD SWAP1 PUSH1 0x20 ADD DUP1 DUP4 GT PUSH2 0x3C98 JUMPI DUP3 SWAP1 SUB PUSH1 0x1F AND DUP3 ADD SWAP2 JUMPDEST POP POP POP POP POP SWAP1 DUP1 PUSH1 0x4 ADD DUP1 SLOAD PUSH2 0x3CCA SWAP1 PUSH2 0x4833 JUMP JUMPDEST DUP1 PUSH1 0x1F ADD PUSH1 0x20 DUP1 SWAP2 DIV MUL PUSH1 0x20 ADD PUSH1 0x40 MLOAD SWAP1 DUP2 ADD PUSH1 0x40 MSTORE DUP1 SWAP3 SWAP2 SWAP1 DUP2 DUP2 MSTORE PUSH1 0x20 ADD DUP3 DUP1 SLOAD PUSH2 0x3CF6 SWAP1 PUSH2 0x4833 JUMP JUMPDEST DUP1 ISZERO PUSH2 0x3D43 JUMPI DUP1 PUSH1 0x1F LT PUSH2 0x3D18 JUMPI PUSH2 0x100 DUP1 DUP4 SLOAD DIV MUL DUP4 MSTORE SWAP2 PUSH1 0x20 ADD SWAP2 PUSH2 0x3D43 JUMP JUMPDEST DUP3 ADD SWAP2 SWAP1 PUSH1 0x0 MSTORE PUSH1 0x20 PUSH1 0x0 KECCAK256 SWAP1 JUMPDEST DUP2 SLOAD DUP2 MSTORE SWAP1 PUSH1 0x1 ADD SWAP1 PUSH1 0x20 ADD DUP1 DUP4 GT PUSH2 0x3D26 JUMPI DUP3 SWAP1 SUB PUSH1 0x1F AND DUP3 ADD SWAP2 JUMPDEST POP POP POP PUSH1 0x5 DUP5 ADD SLOAD PUSH1 0x6 DUP6 ADD DUP1 SLOAD SWAP5 SWAP6 PUSH1 0x1 PUSH1 0x1 PUSH1 0xA0 SHL SUB SWAP1 SWAP3 AND SWAP5 SWAP2 SWAP4 POP SWAP2 POP PUSH2 0x3D6D SWAP1 PUSH2 0x4833 JUMP JUMPDEST DUP1 PUSH1 0x1F ADD PUSH1 0x20 DUP1 SWAP2 DIV MUL PUSH1 0x20 ADD PUSH1 0x40 MLOAD SWAP1 DUP2 ADD PUSH1 0x40 MSTORE DUP1 SWAP3 SWAP2 SWAP1 DUP2 DUP2 MSTORE PUSH1 0x20 ADD DUP3 DUP1 SLOAD PUSH2 0x3D99 SWAP1 PUSH2 0x4833 JUMP JUMPDEST DUP1 ISZERO PUSH2 0x3DE6 JUMPI DUP1 PUSH1 0x1F LT PUSH2 0x3DBB JUMPI PUSH2 0x100 DUP1 DUP4 SLOAD DIV MUL DUP4 MSTORE SWAP2 PUSH1 0x20 ADD SWAP2 PUSH2 0x3DE6 JUMP JUMPDEST DUP3 ADD SWAP2 SWAP1 PUSH1 0x0 MSTORE PUSH1 0x20 PUSH1 0x0 KECCAK256 SWAP1 JUMPDEST DUP2 SLOAD DUP2 MSTORE SWAP1 PUSH1 0x1 ADD SWAP1 PUSH1 0x20 ADD DUP1 DUP4 GT PUSH2 0x3DC9 JUMPI DUP3 SWAP1 SUB PUSH1 0x1F AND DUP3 ADD SWAP2 JUMPDEST POP POP POP POP POP SWAP1 DUP1 PUSH1 0x7 ADD DUP1 SLOAD PUSH2 0x3DFB SWAP1 PUSH2 0x4833 JUMP JUMPDEST DUP1 PUSH1 0x1F ADD PUSH1 0x20 DUP1 SWAP2 DIV MUL PUSH1 0x20 ADD PUSH1 0x40 MLOAD SWAP1 DUP2 ADD PUSH1 0x40 MSTORE DUP1 SWAP3 SWAP2 SWAP1 DUP2 DUP2 MSTORE PUSH1 0x20 ADD DUP3 DUP1 SLOAD PUSH2 0x3E27 SWAP1 PUSH2 0x4833 JUMP JUMPDEST DUP1 ISZERO PUSH2 0x3E74 JUMPI DUP1 PUSH1 0x1F LT PUSH2 0x3E49 JUMPI PUSH2 0x100 DUP1 DUP4 SLOAD DIV MUL DUP4 MSTORE SWAP2 PUSH1 0x20 ADD SWAP2 PUSH2 0x3E74 JUMP JUMPDEST DUP3 ADD SWAP2 SWAP1 PUSH1 0x0 MSTORE PUSH1 0x20 PUSH1 0x0 KECCAK256 SWAP1 JUMPDEST DUP2 SLOAD DUP2 MSTORE SWAP1 PUSH1 0x1 ADD SWAP1 PUSH1 0x20 ADD DUP1 DUP4 GT PUSH2 0x3E57 JUMPI DUP3 SWAP1 SUB PUSH1 0x1F AND DUP3 ADD SWAP2 JUMPDEST POP POP POP POP POP SWAP1 DUP1 PUSH1 0x8 ADD SLOAD SWAP1 POP DUP10 JUMP JUMPDEST PUSH4 0x4E487B71 PUSH1 0xE0 SHL PUSH1 0x0 MSTORE PUSH1 0x41 PUSH1 0x4 MSTORE PUSH1 0x24 PUSH1 0x0 REVERT JUMPDEST PUSH1 0x0 DUP3 PUSH1 0x1F DUP4 ADD SLT PUSH2 0x3EAB JUMPI PUSH1 0x0 DUP1 REVERT JUMPDEST DUP2 CALLDATALOAD PUSH8 0xFFFFFFFFFFFFFFFF DUP1 DUP3 GT ISZERO PUSH2 0x3EC6 JUMPI PUSH2 0x3EC6 PUSH2 0x3E84 JUMP JUMPDEST PUSH1 0x40 MLOAD PUSH1 0x1F DUP4 ADD PUSH1 0x1F NOT SWAP1 DUP2 AND PUSH1 0x3F ADD AND DUP2 ADD SWAP1 DUP3 DUP3 GT DUP2 DUP4 LT OR ISZERO PUSH2 0x3EEE JUMPI PUSH2 0x3EEE PUSH2 0x3E84 JUMP JUMPDEST DUP2 PUSH1 0x40 MSTORE DUP4 DUP2 MSTORE DUP7 PUSH1 0x20 DUP6 DUP9 ADD ADD GT ISZERO PUSH2 0x3F07 JUMPI PUSH1 0x0 DUP1 REVERT JUMPDEST DUP4 PUSH1 0x20 DUP8 ADD PUSH1 0x20 DUP4 ADD CALLDATACOPY PUSH1 0x0 PUSH1 0x20 DUP6 DUP4 ADD ADD MSTORE DUP1 SWAP5 POP POP POP POP POP SWAP3 SWAP2 POP POP JUMP JUMPDEST PUSH1 0x0 DUP1 PUSH1 0x0 DUP1 PUSH1 0x0 DUP1 PUSH1 0xC0 DUP8 DUP10 SUB SLT ISZERO PUSH2 0x3F40 JUMPI PUSH1 0x0 DUP1 REVERT JUMPDEST DUP7 CALLDATALOAD PUSH8 0xFFFFFFFFFFFFFFFF DUP1 DUP3 GT ISZERO PUSH2 0x3F58 JUMPI PUSH1 0x0 DUP1 REVERT JUMPDEST PUSH2 0x3F64 DUP11 DUP4 DUP12 ADD PUSH2 0x3E9A JUMP JUMPDEST SWAP8 POP PUSH1 0x20 DUP10 ADD CALLDATALOAD SWAP2 POP DUP1 DUP3 GT ISZERO PUSH2 0x3F7A JUMPI PUSH1 0x0 DUP1 REVERT JUMPDEST PUSH2 0x3F86 DUP11 DUP4 DUP12 ADD PUSH2 0x3E9A JUMP JUMPDEST SWAP7 POP PUSH1 0x40 DUP10 ADD CALLDATALOAD SWAP2 POP DUP1 DUP3 GT ISZERO PUSH2 0x3F9C JUMPI PUSH1 0x0 DUP1 REVERT JUMPDEST PUSH2 0x3FA8 DUP11 DUP4 DUP12 ADD PUSH2 0x3E9A JUMP JUMPDEST SWAP6 POP PUSH1 0x60 DUP10 ADD CALLDATALOAD SWAP2 POP DUP1 DUP3 GT ISZERO PUSH2 0x3FBE JUMPI PUSH1 0x0 DUP1 REVERT JUMPDEST PUSH2 0x3FCA DUP11 DUP4 DUP12 ADD PUSH2 0x3E9A JUMP JUMPDEST SWAP5 POP PUSH1 0x80 DUP10 ADD CALLDATALOAD SWAP2 POP DUP1 DUP3 GT ISZERO PUSH2 0x3FE0 JUMPI PUSH1 0x0 DUP1 REVERT JUMPDEST PUSH2 0x3FEC DUP11 DUP4 DUP12 ADD PUSH2 0x3E9A JUMP JUMPDEST SWAP4 POP PUSH1 0xA0 DUP10 ADD CALLDATALOAD SWAP2 POP DUP1 DUP3 GT ISZERO PUSH2 0x4002 JUMPI PUSH1 0x0 DUP1 REVERT JUMPDEST POP PUSH2 0x400F DUP10 DUP3 DUP11 ADD PUSH2 0x3E9A JUMP JUMPDEST SWAP2 POP POP SWAP3 SWAP6 POP SWAP3 SWAP6 POP SWAP3 SWAP6 JUMP JUMPDEST PUSH1 0x0 PUSH1 0x20 DUP3 DUP5 SUB SLT ISZERO PUSH2 0x402E JUMPI PUSH1 0x0 DUP1 REVERT JUMPDEST DUP2 CALLDATALOAD PUSH8 0xFFFFFFFFFFFFFFFF DUP2 GT ISZERO PUSH2 0x4045 JUMPI PUSH1 0x0 DUP1 REVERT JUMPDEST PUSH2 0x4051 DUP5 DUP3 DUP6 ADD PUSH2 0x3E9A JUMP JUMPDEST SWAP5 SWAP4 POP POP POP POP JUMP JUMPDEST PUSH1 0x0 JUMPDEST DUP4 DUP2 LT ISZERO PUSH2 0x4074 JUMPI DUP2 DUP2 ADD MLOAD DUP4 DUP3 ADD MSTORE PUSH1 0x20 ADD PUSH2 0x405C JUMP JUMPDEST POP POP PUSH1 0x0 SWAP2 ADD MSTORE JUMP JUMPDEST PUSH1 0x0 DUP2 MLOAD DUP1 DUP5 MSTORE PUSH2 0x4095 DUP2 PUSH1 0x20 DUP7 ADD PUSH1 0x20 DUP7 ADD PUSH2 0x4059 JUMP JUMPDEST PUSH1 0x1F ADD PUSH1 0x1F NOT AND SWAP3 SWAP1 SWAP3 ADD PUSH1 0x20 ADD SWAP3 SWAP2 POP POP JUMP JUMPDEST PUSH1 0x0 PUSH2 0x120 DUP3 MLOAD DUP5 MSTORE PUSH1 0x20 DUP4 ADD MLOAD DUP2 PUSH1 0x20 DUP7 ADD MSTORE PUSH2 0x40C9 DUP3 DUP7 ADD DUP3 PUSH2 0x407D JUMP JUMPDEST SWAP2 POP POP PUSH1 0x40 DUP4 ADD MLOAD DUP5 DUP3 SUB PUSH1 0x40 DUP7 ADD MSTORE PUSH2 0x40E3 DUP3 DUP3 PUSH2 0x407D JUMP JUMPDEST SWAP2 POP POP PUSH1 0x60 DUP4 ADD MLOAD DUP5 DUP3 SUB PUSH1 0x60 DUP7 ADD MSTORE PUSH2 0x40FD DUP3 DUP3 PUSH2 0x407D JUMP JUMPDEST SWAP2 POP POP PUSH1 0x80 DUP4 ADD MLOAD DUP5 DUP3 SUB PUSH1 0x80 DUP7 ADD MSTORE PUSH2 0x4117 DUP3 DUP3 PUSH2 0x407D JUMP JUMPDEST SWAP2 POP POP PUSH1 0xA0 DUP4 ADD MLOAD DUP5 DUP3 SUB PUSH1 0xA0 DUP7 ADD MSTORE PUSH2 0x4131 DUP3 DUP3 PUSH2 0x407D JUMP JUMPDEST SWAP2 POP POP PUSH1 0xC0 DUP4 ADD MLOAD DUP5 DUP3 SUB PUSH1 0xC0 DUP7 ADD MSTORE PUSH2 0x414B DUP3 DUP3 PUSH2 0x407D JUMP JUMPDEST SWAP2 POP POP PUSH1 0xE0 DUP4 ADD MLOAD PUSH2 0x4168 PUSH1 0xE0 DUP7 ADD DUP3 PUSH1 0x1 PUSH1 0x1 PUSH1 0xA0 SHL SUB AND SWAP1 MSTORE JUMP JUMPDEST POP PUSH2 0x100 SWAP3 DUP4 ADD MLOAD SWAP4 SWAP1 SWAP3 ADD SWAP3 SWAP1 SWAP3 MSTORE SWAP2 SWAP1 POP JUMP JUMPDEST PUSH1 0x20 DUP2 MSTORE PUSH1 0x0 PUSH2 0x4190 PUSH1 0x20 DUP4 ADD DUP5 PUSH2 0x40A9 JUMP JUMPDEST SWAP4 SWAP3 POP POP POP JUMP JUMPDEST PUSH1 0x0 PUSH1 0x20 DUP3 DUP5 SUB SLT ISZERO PUSH2 0x41A9 JUMPI PUSH1 0x0 DUP1 REVERT JUMPDEST POP CALLDATALOAD SWAP2 SWAP1 POP JUMP JUMPDEST DUP8 DUP2 MSTORE PUSH1 0xE0 PUSH1 0x20 DUP3 ADD MSTORE PUSH1 0x0 PUSH2 0x41C9 PUSH1 0xE0 DUP4 ADD DUP10 PUSH2 0x407D JUMP JUMPDEST DUP3 DUP2 SUB PUSH1 0x40 DUP5 ADD MSTORE PUSH2 0x41DB DUP2 DUP10 PUSH2 0x407D JUMP JUMPDEST SWAP1 POP DUP3 DUP2 SUB PUSH1 0x60 DUP5 ADD MSTORE PUSH2 0x41EF DUP2 DUP9 PUSH2 0x407D JUMP JUMPDEST SWAP1 POP DUP3 DUP2 SUB PUSH1 0x80 DUP5 ADD MSTORE PUSH2 0x4203 DUP2 DUP8 PUSH2 0x407D JUMP JUMPDEST PUSH1 0x1 PUSH1 0x1 PUSH1 0xA0 SHL SUB SWAP6 SWAP1 SWAP6 AND PUSH1 0xA0 DUP5 ADD MSTORE POP POP PUSH1 0xC0 ADD MSTORE SWAP6 SWAP5 POP POP POP POP POP JUMP JUMPDEST DUP1 MLOAD DUP3 MSTORE PUSH1 0x0 PUSH1 0x20 DUP3 ADD MLOAD PUSH1 0xE0 PUSH1 0x20 DUP6 ADD MSTORE PUSH2 0x4242 PUSH1 0xE0 DUP6 ADD DUP3 PUSH2 0x407D JUMP JUMPDEST SWAP1 POP PUSH1 0x40 DUP4 ADD MLOAD DUP5 DUP3 SUB PUSH1 0x40 DUP7 ADD MSTORE PUSH2 0x425B DUP3 DUP3 PUSH2 0x407D JUMP JUMPDEST SWAP2 POP POP PUSH1 0x60 DUP4 ADD MLOAD DUP5 DUP3 SUB PUSH1 0x60 DUP7 ADD MSTORE PUSH2 0x4275 DUP3 DUP3 PUSH2 0x407D JUMP JUMPDEST SWAP2 POP POP PUSH1 0x80 DUP4 ADD MLOAD DUP5 DUP3 SUB PUSH1 0x80 DUP7 ADD MSTORE PUSH2 0x428F DUP3 DUP3 PUSH2 0x407D JUMP JUMPDEST PUSH1 0xA0 DUP6 DUP2 ADD MLOAD PUSH1 0x1 PUSH1 0x1 PUSH1 0xA0 SHL SUB AND SWAP1 DUP8 ADD MSTORE PUSH1 0xC0 SWAP5 DUP6 ADD MLOAD SWAP5 SWAP1 SWAP6 ADD SWAP4 SWAP1 SWAP4 MSTORE POP SWAP2 SWAP3 SWAP2 POP POP JUMP JUMPDEST PUSH1 0x0 PUSH1 0x20 DUP1 DUP4 ADD PUSH1 0x20 DUP5 MSTORE DUP1 DUP6 MLOAD DUP1 DUP4 MSTORE PUSH1 0x40 DUP7 ADD SWAP2 POP PUSH1 0x40 DUP2 PUSH1 0x5 SHL DUP8 ADD ADD SWAP3 POP PUSH1 0x20 DUP8 ADD PUSH1 0x0 JUMPDEST DUP3 DUP2 LT ISZERO PUSH2 0x430F JUMPI PUSH1 0x3F NOT DUP9 DUP7 SUB ADD DUP5 MSTORE PUSH2 0x42FD DUP6 DUP4 MLOAD PUSH2 0x4223 JUMP JUMPDEST SWAP5 POP SWAP3 DUP6 ADD SWAP3 SWAP1 DUP6 ADD SWAP1 PUSH1 0x1 ADD PUSH2 0x42E1 JUMP JUMPDEST POP SWAP3 SWAP8 SWAP7 POP POP POP POP POP POP POP JUMP JUMPDEST PUSH1 0x0 PUSH2 0x120 DUP3 MLOAD DUP5 MSTORE PUSH1 0x20 DUP4 ADD MLOAD DUP2 PUSH1 0x20 DUP7 ADD MSTORE PUSH2 0x433C DUP3 DUP7 ADD DUP3 PUSH2 0x407D JUMP JUMPDEST SWAP2 POP POP PUSH1 0x40 DUP4 ADD MLOAD DUP5 DUP3 SUB PUSH1 0x40 DUP7 ADD MSTORE PUSH2 0x4356 DUP3 DUP3 PUSH2 0x407D JUMP JUMPDEST SWAP2 POP POP PUSH1 0x60 DUP4 ADD MLOAD DUP5 DUP3 SUB PUSH1 0x60 DUP7 ADD MSTORE PUSH2 0x4370 DUP3 DUP3 PUSH2 0x407D JUMP JUMPDEST SWAP2 POP POP PUSH1 0x80 DUP4 ADD MLOAD DUP5 DUP3 SUB PUSH1 0x80 DUP7 ADD MSTORE PUSH2 0x438A DUP3 DUP3 PUSH2 0x407D JUMP JUMPDEST SWAP2 POP POP PUSH1 0xA0 DUP4 ADD MLOAD PUSH2 0x43A7 PUSH1 0xA0 DUP7 ADD DUP3 PUSH1 0x1 PUSH1 0x1 PUSH1 0xA0 SHL SUB AND SWAP1 MSTORE JUMP JUMPDEST POP PUSH1 0xC0 DUP4 ADD MLOAD DUP5 DUP3 SUB PUSH1 0xC0 DUP7 ADD MSTORE PUSH2 0x43BF DUP3 DUP3 PUSH2 0x407D JUMP JUMPDEST SWAP2 POP POP PUSH1 0xE0 DUP4 ADD MLOAD DUP5 DUP3 SUB PUSH1 0xE0 DUP7 ADD MSTORE PUSH2 0x43D9 DUP3 DUP3 PUSH2 0x407D JUMP JUMPDEST PUSH2 0x100 SWAP5 DUP6 ADD MLOAD SWAP6 SWAP1 SWAP5 ADD SWAP5 SWAP1 SWAP5 MSTORE POP SWAP1 SWAP3 SWAP2 POP POP JUMP JUMPDEST PUSH1 0x20 DUP2 MSTORE PUSH1 0x0 PUSH2 0x4190 PUSH1 0x20 DUP4 ADD DUP5 PUSH2 0x431C JUMP JUMPDEST PUSH1 0x0 DUP1 PUSH1 0x0 PUSH1 0x60 DUP5 DUP7 SUB SLT ISZERO PUSH2 0x4418 JUMPI PUSH1 0x0 DUP1 REVERT JUMPDEST DUP4 CALLDATALOAD SWAP3 POP PUSH1 0x20 DUP5 ADD CALLDATALOAD PUSH8 0xFFFFFFFFFFFFFFFF DUP1 DUP3 GT ISZERO PUSH2 0x4437 JUMPI PUSH1 0x0 DUP1 REVERT JUMPDEST PUSH2 0x4443 DUP8 DUP4 DUP9 ADD PUSH2 0x3E9A JUMP JUMPDEST SWAP4 POP PUSH1 0x40 DUP7 ADD CALLDATALOAD SWAP2 POP DUP1 DUP3 GT ISZERO PUSH2 0x4459 JUMPI PUSH1 0x0 DUP1 REVERT JUMPDEST POP PUSH2 0x4466 DUP7 DUP3 DUP8 ADD PUSH2 0x3E9A JUMP JUMPDEST SWAP2 POP POP SWAP3 POP SWAP3 POP SWAP3 JUMP JUMPDEST PUSH1 0x0 DUP1 PUSH1 0x0 DUP1 PUSH1 0x0 PUSH1 0xA0 DUP7 DUP9 SUB SLT ISZERO PUSH2 0x4488 JUMPI PUSH1 0x0 DUP1 REVERT JUMPDEST DUP6 CALLDATALOAD PUSH8 0xFFFFFFFFFFFFFFFF DUP1 DUP3 GT ISZERO PUSH2 0x44A0 JUMPI PUSH1 0x0 DUP1 REVERT JUMPDEST PUSH2 0x44AC DUP10 DUP4 DUP11 ADD PUSH2 0x3E9A JUMP JUMPDEST SWAP7 POP PUSH1 0x20 DUP9 ADD CALLDATALOAD SWAP2 POP DUP1 DUP3 GT ISZERO PUSH2 0x44C2 JUMPI PUSH1 0x0 DUP1 REVERT JUMPDEST PUSH2 0x44CE DUP10 DUP4 DUP11 ADD PUSH2 0x3E9A JUMP JUMPDEST SWAP6 POP PUSH1 0x40 DUP9 ADD CALLDATALOAD SWAP2 POP DUP1 DUP3 GT ISZERO PUSH2 0x44E4 JUMPI PUSH1 0x0 DUP1 REVERT JUMPDEST PUSH2 0x44F0 DUP10 DUP4 DUP11 ADD PUSH2 0x3E9A JUMP JUMPDEST SWAP5 POP PUSH1 0x60 DUP9 ADD CALLDATALOAD SWAP2 POP DUP1 DUP3 GT ISZERO PUSH2 0x4506 JUMPI PUSH1 0x0 DUP1 REVERT JUMPDEST PUSH2 0x4512 DUP10 DUP4 DUP11 ADD PUSH2 0x3E9A JUMP JUMPDEST SWAP4 POP PUSH1 0x80 DUP9 ADD CALLDATALOAD SWAP2 POP DUP1 DUP3 GT ISZERO PUSH2 0x4528 JUMPI PUSH1 0x0 DUP1 REVERT JUMPDEST POP PUSH2 0x4535 DUP9 DUP3 DUP10 ADD PUSH2 0x3E9A JUMP JUMPDEST SWAP2 POP POP SWAP3 SWAP6 POP SWAP3 SWAP6 SWAP1 SWAP4 POP JUMP JUMPDEST PUSH1 0x0 PUSH2 0x120 DUP12 DUP4 MSTORE DUP1 PUSH1 0x20 DUP5 ADD MSTORE PUSH2 0x455C DUP2 DUP5 ADD DUP13 PUSH2 0x407D JUMP JUMPDEST SWAP1 POP DUP3 DUP2 SUB PUSH1 0x40 DUP5 ADD MSTORE PUSH2 0x4570 DUP2 DUP12 PUSH2 0x407D JUMP JUMPDEST SWAP1 POP DUP3 DUP2 SUB PUSH1 0x60 DUP5 ADD MSTORE PUSH2 0x4584 DUP2 DUP11 PUSH2 0x407D JUMP JUMPDEST SWAP1 POP DUP3 DUP2 SUB PUSH1 0x80 DUP5 ADD MSTORE PUSH2 0x4598 DUP2 DUP10 PUSH2 0x407D JUMP JUMPDEST SWAP1 POP DUP3 DUP2 SUB PUSH1 0xA0 DUP5 ADD MSTORE PUSH2 0x45AC DUP2 DUP9 PUSH2 0x407D JUMP JUMPDEST SWAP1 POP DUP3 DUP2 SUB PUSH1 0xC0 DUP5 ADD MSTORE PUSH2 0x45C0 DUP2 DUP8 PUSH2 0x407D JUMP JUMPDEST PUSH1 0x1 PUSH1 0x1 PUSH1 0xA0 SHL SUB SWAP6 SWAP1 SWAP6 AND PUSH1 0xE0 DUP5 ADD MSTORE POP POP PUSH2 0x100 ADD MSTORE SWAP8 SWAP7 POP POP POP POP POP POP POP JUMP JUMPDEST PUSH1 0x0 PUSH1 0x20 DUP1 DUP4 ADD PUSH1 0x20 DUP5 MSTORE DUP1 DUP6 MLOAD DUP1 DUP4 MSTORE PUSH1 0x40 DUP7 ADD SWAP2 POP PUSH1 0x40 DUP2 PUSH1 0x5 SHL DUP8 ADD ADD SWAP3 POP PUSH1 0x20 DUP8 ADD PUSH1 0x0 JUMPDEST DUP3 DUP2 LT ISZERO PUSH2 0x430F JUMPI PUSH1 0x3F NOT DUP9 DUP7 SUB ADD DUP5 MSTORE PUSH2 0x4628 DUP6 DUP4 MLOAD PUSH2 0x40A9 JUMP JUMPDEST SWAP5 POP SWAP3 DUP6 ADD SWAP3 SWAP1 DUP6 ADD SWAP1 PUSH1 0x1 ADD PUSH2 0x460C JUMP JUMPDEST PUSH1 0x0 PUSH1 0x20 DUP1 DUP4 ADD PUSH1 0x20 DUP5 MSTORE DUP1 DUP6 MLOAD DUP1 DUP4 MSTORE PUSH1 0x40 DUP7 ADD SWAP2 POP PUSH1 0x40 DUP2 PUSH1 0x5 SHL DUP8 ADD ADD SWAP3 POP PUSH1 0x20 DUP8 ADD PUSH1 0x0 JUMPDEST DUP3 DUP2 LT ISZERO PUSH2 0x430F JUMPI PUSH1 0x3F NOT DUP9 DUP7 SUB ADD DUP5 MSTORE PUSH2 0x467F DUP6 DUP4 MLOAD PUSH2 0x431C JUMP JUMPDEST SWAP5 POP SWAP3 DUP6 ADD SWAP3 SWAP1 DUP6 ADD SWAP1 PUSH1 0x1 ADD PUSH2 0x4663 JUMP JUMPDEST PUSH1 0x0 PUSH1 0x20 DUP1 DUP4 ADD PUSH1 0x20 DUP5 MSTORE DUP1 DUP6 MLOAD DUP1 DUP4 MSTORE PUSH1 0x40 DUP7 ADD SWAP2 POP PUSH1 0x40 DUP2 PUSH1 0x5 SHL DUP8 ADD ADD SWAP3 POP PUSH1 0x20 DUP8 ADD PUSH1 0x0 JUMPDEST DUP3 DUP2 LT ISZERO PUSH2 0x430F JUMPI PUSH1 0x3F NOT DUP9 DUP7 SUB ADD DUP5 MSTORE PUSH2 0x46D6 DUP6 DUP4 MLOAD PUSH2 0x4223 JUMP JUMPDEST SWAP5 POP SWAP3 DUP6 ADD SWAP3 SWAP1 DUP6 ADD SWAP1 PUSH1 0x1 ADD PUSH2 0x46BA JUMP JUMPDEST PUSH1 0x0 DUP1 PUSH1 0x40 DUP4 DUP6 SUB SLT ISZERO PUSH2 0x46FB JUMPI PUSH1 0x0 DUP1 REVERT JUMPDEST DUP3 CALLDATALOAD PUSH8 0xFFFFFFFFFFFFFFFF DUP2 GT ISZERO PUSH2 0x4712 JUMPI PUSH1 0x0 DUP1 REVERT JUMPDEST PUSH2 0x471E DUP6 DUP3 DUP7 ADD PUSH2 0x3E9A JUMP JUMPDEST SWAP6 PUSH1 0x20 SWAP5 SWAP1 SWAP5 ADD CALLDATALOAD SWAP5 POP POP POP POP JUMP JUMPDEST PUSH1 0x0 PUSH2 0x120 DUP12 DUP4 MSTORE DUP1 PUSH1 0x20 DUP5 ADD MSTORE PUSH2 0x4747 DUP2 DUP5 ADD DUP13 PUSH2 0x407D JUMP JUMPDEST SWAP1 POP DUP3 DUP2 SUB PUSH1 0x40 DUP5 ADD MSTORE PUSH2 0x475B DUP2 DUP12 PUSH2 0x407D JUMP JUMPDEST SWAP1 POP DUP3 DUP2 SUB PUSH1 0x60 DUP5 ADD MSTORE PUSH2 0x476F DUP2 DUP11 PUSH2 0x407D JUMP JUMPDEST SWAP1 POP DUP3 DUP2 SUB PUSH1 0x80 DUP5 ADD MSTORE PUSH2 0x4783 DUP2 DUP10 PUSH2 0x407D JUMP JUMPDEST PUSH1 0x1 PUSH1 0x1 PUSH1 0xA0 SHL SUB DUP9 AND PUSH1 0xA0 DUP6 ADD MSTORE DUP4 DUP2 SUB PUSH1 0xC0 DUP6 ADD MSTORE SWAP1 POP PUSH2 0x47A6 DUP2 DUP8 PUSH2 0x407D JUMP JUMPDEST SWAP1 POP DUP3 DUP2 SUB PUSH1 0xE0 DUP5 ADD MSTORE PUSH2 0x47BA DUP2 DUP7 PUSH2 0x407D JUMP JUMPDEST SWAP2 POP POP DUP3 PUSH2 0x100 DUP4 ADD MSTORE SWAP11 SWAP10 POP POP POP POP POP POP POP POP POP POP JUMP JUMPDEST PUSH1 0x0 DUP3 MLOAD PUSH2 0x47E4 DUP2 DUP5 PUSH1 0x20 DUP8 ADD PUSH2 0x4059 JUMP JUMPDEST SWAP2 SWAP1 SWAP2 ADD SWAP3 SWAP2 POP POP JUMP JUMPDEST PUSH4 0x4E487B71 PUSH1 0xE0 SHL PUSH1 0x0 MSTORE PUSH1 0x11 PUSH1 0x4 MSTORE PUSH1 0x24 PUSH1 0x0 REVERT JUMPDEST DUP2 DUP2 SUB DUP2 DUP2 GT ISZERO PUSH2 0x4817 JUMPI PUSH2 0x4817 PUSH2 0x47EE JUMP JUMPDEST SWAP3 SWAP2 POP POP JUMP JUMPDEST PUSH4 0x4E487B71 PUSH1 0xE0 SHL PUSH1 0x0 MSTORE PUSH1 0x32 PUSH1 0x4 MSTORE PUSH1 0x24 PUSH1 0x0 REVERT JUMPDEST PUSH1 0x1 DUP2 DUP2 SHR SWAP1 DUP3 AND DUP1 PUSH2 0x4847 JUMPI PUSH1 0x7F DUP3 AND SWAP2 POP JUMPDEST PUSH1 0x20 DUP3 LT DUP2 SUB PUSH2 0x4867 JUMPI PUSH4 0x4E487B71 PUSH1 0xE0 SHL PUSH1 0x0 MSTORE PUSH1 0x22 PUSH1 0x4 MSTORE PUSH1 0x24 PUSH1 0x0 REVERT JUMPDEST POP SWAP2 SWAP1 POP JUMP JUMPDEST PUSH1 0x0 DUP2 SLOAD PUSH2 0x487A DUP2 PUSH2 0x4833 JUMP JUMPDEST PUSH1 0x1 DUP3 DUP2 AND DUP1 ISZERO PUSH2 0x4892 JUMPI PUSH1 0x1 DUP2 EQ PUSH2 0x48A7 JUMPI PUSH2 0x48D6 JUMP JUMPDEST PUSH1 0xFF NOT DUP5 AND DUP8 MSTORE DUP3 ISZERO ISZERO DUP4 MUL DUP8 ADD SWAP5 POP PUSH2 0x48D6 JUMP JUMPDEST DUP6 PUSH1 0x0 MSTORE PUSH1 0x20 DUP1 PUSH1 0x0 KECCAK256 PUSH1 0x0 JUMPDEST DUP6 DUP2 LT ISZERO PUSH2 0x48CD JUMPI DUP2 SLOAD DUP11 DUP3 ADD MSTORE SWAP1 DUP5 ADD SWAP1 DUP3 ADD PUSH2 0x48B4 JUMP JUMPDEST POP POP POP DUP3 DUP8 ADD SWAP5 POP JUMPDEST POP POP POP POP SWAP3 SWAP2 POP POP JUMP JUMPDEST PUSH1 0x0 PUSH2 0x4190 DUP3 DUP5 PUSH2 0x486D JUMP JUMPDEST PUSH1 0x1F DUP3 GT ISZERO PUSH2 0x4938 JUMPI PUSH1 0x0 DUP2 PUSH1 0x0 MSTORE PUSH1 0x20 PUSH1 0x0 KECCAK256 PUSH1 0x1F DUP6 ADD PUSH1 0x5 SHR DUP2 ADD PUSH1 0x20 DUP7 LT ISZERO PUSH2 0x4915 JUMPI POP DUP1 JUMPDEST PUSH1 0x1F DUP6 ADD PUSH1 0x5 SHR DUP3 ADD SWAP2 POP JUMPDEST DUP2 DUP2 LT ISZERO PUSH2 0x4934 JUMPI DUP3 DUP2 SSTORE PUSH1 0x1 ADD PUSH2 0x4921 JUMP JUMPDEST POP POP POP JUMPDEST POP POP POP JUMP JUMPDEST DUP2 MLOAD PUSH8 0xFFFFFFFFFFFFFFFF DUP2 GT ISZERO PUSH2 0x4957 JUMPI PUSH2 0x4957 PUSH2 0x3E84 JUMP JUMPDEST PUSH2 0x496B DUP2 PUSH2 0x4965 DUP5 SLOAD PUSH2 0x4833 JUMP JUMPDEST DUP5 PUSH2 0x48EC JUMP JUMPDEST PUSH1 0x20 DUP1 PUSH1 0x1F DUP4 GT PUSH1 0x1 DUP2 EQ PUSH2 0x49A0 JUMPI PUSH1 0x0 DUP5 ISZERO PUSH2 0x4988 JUMPI POP DUP6 DUP4 ADD MLOAD JUMPDEST PUSH1 0x0 NOT PUSH1 0x3 DUP7 SWAP1 SHL SHR NOT AND PUSH1 0x1 DUP6 SWAP1 SHL OR DUP6 SSTORE PUSH2 0x4934 JUMP JUMPDEST PUSH1 0x0 DUP6 DUP2 MSTORE PUSH1 0x20 DUP2 KECCAK256 PUSH1 0x1F NOT DUP7 AND SWAP2 JUMPDEST DUP3 DUP2 LT ISZERO PUSH2 0x49CF JUMPI DUP9 DUP7 ADD MLOAD DUP3 SSTORE SWAP5 DUP5 ADD SWAP5 PUSH1 0x1 SWAP1 SWAP2 ADD SWAP1 DUP5 ADD PUSH2 0x49B0 JUMP JUMPDEST POP DUP6 DUP3 LT ISZERO PUSH2 0x49ED JUMPI DUP8 DUP6 ADD MLOAD PUSH1 0x0 NOT PUSH1 0x3 DUP9 SWAP1 SHL PUSH1 0xF8 AND SHR NOT AND DUP2 SSTORE JUMPDEST POP POP POP POP POP PUSH1 0x1 SWAP1 DUP2 SHL ADD SWAP1 SSTORE POP JUMP JUMPDEST DUP1 DUP3 ADD DUP1 DUP3 GT ISZERO PUSH2 0x4817 JUMPI PUSH2 0x4817 PUSH2 0x47EE JUMP JUMPDEST PUSH1 0x0 PUSH1 0x1 DUP3 ADD PUSH2 0x4A22 JUMPI PUSH2 0x4A22 PUSH2 0x47EE JUMP JUMPDEST POP PUSH1 0x1 ADD SWAP1 JUMP INVALID LOG2 PUSH5 0x6970667358 0x22 SLT KECCAK256 0x25 PUSH31 0x5537986B44691403B9CCED97A3FD6CA1BF3E373F25B9966D6C6A20ABBBCE64 PUSH20 0x6F6C634300081800330000000000000000000000 "},"methodIdentifiers":{"CaseEvidence(string,uint256)":"e5414ca8","EvidenceisinList(string)":"c657e22d","HashEvidence(string)":"b62f444e","UIDCase(string)":"b4277ffd","UID_viewCase(string)":"2687ec42","UIDinCaseList(string)":"d34bb8d5","addEvidence(string,string,string,string,string)":"9dce4667","caseCount()":"da2d7e95","caseList(uint256)":"bb69350d","evidenceCount()":"a2ed5af0","isCaseID(uint256)":"fae1711a","trackChangeinCase(uint256)":"74d95ada","trackEvidence(uint256)":"3140ec36","updateCase(string,string,string,string,string,string)":"0c57d232","updateEvidence(uint256,string,string)":"8169c611","uploadCase(string,string,string,string,string,string)":"e49f4d3c","viewCase()":"d061a19e","viewChangesInEvidence()":"df70e81e","viewEvidence()":"d3d2bcbd","viewEvidenceByID(uint256)":"57958e52","viewTrackChangeinCase()":"53fc6cbc"}}}}}