{
  "_format": "hh-sol-artifact-1",
  "contractName": "EMS",
  "sourceName": "contracts/EMS.sol",
  "abi": [
    {
      "inputs": [
        {
          "internalType": "string",
          "name": "",
          "type": "string"
        },
        {
          "internalType": "uint256",
          "name": "",
          "type": "uint256"
        }
      ],
      "name": "CaseEvidence",
      "outputs": [
        {
          "internalType": "uint256",
          "name": "ID",
          "type": "uint256"
        },
        {
          "internalType": "string",
          "name": "filename",
          "type": "string"
        },
        {
          "internalType": "string",
          "name": "filetype",
          "type": "string"
        },
        {
          "internalType": "string",
          "name": "desc",
          "type": "string"
        },
        {
          "internalType": "string",
          "name": "valid",
          "type": "string"
        },
        {
          "internalType": "address",
          "name": "officer",
          "type": "address"
        },
        {
          "internalType": "string",
          "name": "caseUID",
          "type": "string"
        },
        {
          "internalType": "string",
          "name": "hash",
          "type": "string"
        },
        {
          "internalType": "uint256",
          "name": "timestamp",
          "type": "uint256"
        }
      ],
      "stateMutability": "view",
      "type": "function"
    },
    {
      "inputs": [
        {
          "internalType": "string",
          "name": "",
          "type": "string"
        }
      ],
      "name": "EvidenceisinList",
      "outputs": [
        {
          "internalType": "bool",
          "name": "",
          "type": "bool"
        }
      ],
      "stateMutability": "view",
      "type": "function"
    },
    {
      "inputs": [
        {
          "internalType": "string",
          "name": "",
          "type": "string"
        }
      ],
      "name": "HashEvidence",
      "outputs": [
        {
          "internalType": "uint256",
          "name": "",
          "type": "uint256"
        }
      ],
      "stateMutability": "view",
      "type": "function"
    },
    {
      "inputs": [
        {
          "internalType": "string",
          "name": "",
          "type": "string"
        }
      ],
      "name": "UIDCase",
      "outputs": [
        {
          "internalType": "uint256",
          "name": "",
          "type": "uint256"
        }
      ],
      "stateMutability": "view",
      "type": "function"
    },
    {
      "inputs": [
        {
          "internalType": "string",
          "name": "_UID",
          "type": "string"
        }
      ],
      "name": "UID_viewCase",
      "outputs": [
        {
          "components": [
            {
              "internalType": "uint256",
              "name": "ID",
              "type": "uint256"
            },
            {
              "internalType": "string",
              "name": "UID",
              "type": "string"
            },
            {
              "internalType": "string",
              "name": "SUID",
              "type": "string"
            },
            {
              "internalType": "string",
              "name": "name",
              "type": "string"
            },
            {
              "internalType": "string",
              "name": "desc",
              "type": "string"
            },
            {
              "internalType": "string",
              "name": "caseType",
              "type": "string"
            },
            {
              "internalType": "string",
              "name": "status",
              "type": "string"
            },
            {
              "internalType": "address",
              "name": "upladedBy",
              "type": "address"
            },
            {
              "internalType": "uint256",
              "name": "timestamp",
              "type": "uint256"
            }
          ],
          "internalType": "struct EMS.Case",
          "name": "",
          "type": "tuple"
        }
      ],
      "stateMutability": "view",
      "type": "function"
    },
    {
      "inputs": [
        {
          "internalType": "string",
          "name": "",
          "type": "string"
        }
      ],
      "name": "UIDinCaseList",
      "outputs": [
        {
          "internalType": "bool",
          "name": "",
          "type": "bool"
        }
      ],
      "stateMutability": "view",
      "type": "function"
    },
    {
      "inputs": [
        {
          "internalType": "string",
          "name": "filename",
          "type": "string"
        },
        {
          "internalType": "string",
          "name": "filetype",
          "type": "string"
        },
        {
          "internalType": "string",
          "name": "desc",
          "type": "string"
        },
        {
          "internalType": "string",
          "name": "caseUID",
          "type": "string"
        },
        {
          "internalType": "string",
          "name": "hash",
          "type": "string"
        }
      ],
      "name": "addEvidence",
      "outputs": [],
      "stateMutability": "nonpayable",
      "type": "function"
    },
    {
      "inputs": [],
      "name": "caseCount",
      "outputs": [
        {
          "internalType": "uint256",
          "name": "",
          "type": "uint256"
        }
      ],
      "stateMutability": "view",
      "type": "function"
    },
    {
      "inputs": [
        {
          "internalType": "uint256",
          "name": "",
          "type": "uint256"
        }
      ],
      "name": "caseList",
      "outputs": [
        {
          "internalType": "uint256",
          "name": "ID",
          "type": "uint256"
        },
        {
          "internalType": "string",
          "name": "UID",
          "type": "string"
        },
        {
          "internalType": "string",
          "name": "SUID",
          "type": "string"
        },
        {
          "internalType": "string",
          "name": "name",
          "type": "string"
        },
        {
          "internalType": "string",
          "name": "desc",
          "type": "string"
        },
        {
          "internalType": "string",
          "name": "caseType",
          "type": "string"
        },
        {
          "internalType": "string",
          "name": "status",
          "type": "string"
        },
        {
          "internalType": "address",
          "name": "upladedBy",
          "type": "address"
        },
        {
          "internalType": "uint256",
          "name": "timestamp",
          "type": "uint256"
        }
      ],
      "stateMutability": "view",
      "type": "function"
    },
    {
      "inputs": [],
      "name": "evidenceCount",
      "outputs": [
        {
          "internalType": "uint256",
          "name": "",
          "type": "uint256"
        }
      ],
      "stateMutability": "view",
      "type": "function"
    },
    {
      "inputs": [
        {
          "internalType": "uint256",
          "name": "",
          "type": "uint256"
        }
      ],
      "name": "isCaseID",
      "outputs": [
        {
          "internalType": "bool",
          "name": "",
          "type": "bool"
        }
      ],
      "stateMutability": "view",
      "type": "function"
    },
    {
      "inputs": [
        {
          "internalType": "uint256",
          "name": "",
          "type": "uint256"
        }
      ],
      "name": "trackChangeinCase",
      "outputs": [
        {
          "internalType": "uint256",
          "name": "caseID",
          "type": "uint256"
        },
        {
          "internalType": "string",
          "name": "UID",
          "type": "string"
        },
        {
          "internalType": "string",
          "name": "changeIn",
          "type": "string"
        },
        {
          "internalType": "string",
          "name": "prevValue",
          "type": "string"
        },
        {
          "internalType": "string",
          "name": "updatedValue",
          "type": "string"
        },
        {
          "internalType": "address",
          "name": "updatedBy",
          "type": "address"
        },
        {
          "internalType": "uint256",
          "name": "timestamp",
          "type": "uint256"
        }
      ],
      "stateMutability": "view",
      "type": "function"
    },
    {
      "inputs": [
        {
          "internalType": "uint256",
          "name": "",
          "type": "uint256"
        }
      ],
      "name": "trackEvidence",
      "outputs": [
        {
          "internalType": "uint256",
          "name": "evidenceID",
          "type": "uint256"
        },
        {
          "internalType": "string",
          "name": "caseUID",
          "type": "string"
        },
        {
          "internalType": "string",
          "name": "changeIn",
          "type": "string"
        },
        {
          "internalType": "string",
          "name": "prevValue",
          "type": "string"
        },
        {
          "internalType": "string",
          "name": "updatedValue",
          "type": "string"
        },
        {
          "internalType": "address",
          "name": "updatedBy",
          "type": "address"
        },
        {
          "internalType": "uint256",
          "name": "timestamp",
          "type": "uint256"
        }
      ],
      "stateMutability": "view",
      "type": "function"
    },
    {
      "inputs": [
        {
          "internalType": "string",
          "name": "_UID",
          "type": "string"
        },
        {
          "internalType": "string",
          "name": "_name",
          "type": "string"
        },
        {
          "internalType": "string",
          "name": "_desc",
          "type": "string"
        },
        {
          "internalType": "string",
          "name": "_caseType",
          "type": "string"
        },
        {
          "internalType": "string",
          "name": "_status",
          "type": "string"
        },
        {
          "internalType": "string",
          "name": "_SUID",
          "type": "string"
        }
      ],
      "name": "updateCase",
      "outputs": [],
      "stateMutability": "nonpayable",
      "type": "function"
    },
    {
      "inputs": [
        {
          "internalType": "uint256",
          "name": "_ID",
          "type": "uint256"
        },
        {
          "internalType": "string",
          "name": "_valid",
          "type": "string"
        },
        {
          "internalType": "string",
          "name": "_desc",
          "type": "string"
        }
      ],
      "name": "updateEvidence",
      "outputs": [],
      "stateMutability": "nonpayable",
      "type": "function"
    },
    {
      "inputs": [
        {
          "internalType": "string",
          "name": "UID",
          "type": "string"
        },
        {
          "internalType": "string",
          "name": "SUID",
          "type": "string"
        },
        {
          "internalType": "string",
          "name": "_name",
          "type": "string"
        },
        {
          "internalType": "string",
          "name": "_desc",
          "type": "string"
        },
        {
          "internalType": "string",
          "name": "_type",
          "type": "string"
        },
        {
          "internalType": "string",
          "name": "_status",
          "type": "string"
        }
      ],
      "name": "uploadCase",
      "outputs": [],
      "stateMutability": "nonpayable",
      "type": "function"
    },
    {
      "inputs": [],
      "name": "viewCase",
      "outputs": [
        {
          "components": [
            {
              "internalType": "uint256",
              "name": "ID",
              "type": "uint256"
            },
            {
              "internalType": "string",
              "name": "UID",
              "type": "string"
            },
            {
              "internalType": "string",
              "name": "SUID",
              "type": "string"
            },
            {
              "internalType": "string",
              "name": "name",
              "type": "string"
            },
            {
              "internalType": "string",
              "name": "desc",
              "type": "string"
            },
            {
              "internalType": "string",
              "name": "caseType",
              "type": "string"
            },
            {
              "internalType": "string",
              "name": "status",
              "type": "string"
            },
            {
              "internalType": "address",
              "name": "upladedBy",
              "type": "address"
            },
            {
              "internalType": "uint256",
              "name": "timestamp",
              "type": "uint256"
            }
          ],
          "internalType": "struct EMS.Case[]",
          "name": "",
          "type": "tuple[]"
        }
      ],
      "stateMutability": "view",
      "type": "function"
    },
    {
      "inputs": [],
      "name": "viewChangesInEvidence",
      "outputs": [
        {
          "components": [
            {
              "internalType": "uint256",
              "name": "evidenceID",
              "type": "uint256"
            },
            {
              "internalType": "string",
              "name": "caseUID",
              "type": "string"
            },
            {
              "internalType": "string",
              "name": "changeIn",
              "type": "string"
            },
            {
              "internalType": "string",
              "name": "prevValue",
              "type": "string"
            },
            {
              "internalType": "string",
              "name": "updatedValue",
              "type": "string"
            },
            {
              "internalType": "address",
              "name": "updatedBy",
              "type": "address"
            },
            {
              "internalType": "uint256",
              "name": "timestamp",
              "type": "uint256"
            }
          ],
          "internalType": "struct EMS.TrackEvidence[]",
          "name": "",
          "type": "tuple[]"
        }
      ],
      "stateMutability": "view",
      "type": "function"
    },
    {
      "inputs": [],
      "name": "viewEvidence",
      "outputs": [
        {
          "components": [
            {
              "internalType": "uint256",
              "name": "ID",
              "type": "uint256"
            },
            {
              "internalType": "string",
              "name": "filename",
              "type": "string"
            },
            {
              "internalType": "string",
              "name": "filetype",
              "type": "string"
            },
            {
              "internalType": "string",
              "name": "desc",
              "type": "string"
            },
            {
              "internalType": "string",
              "name": "valid",
              "type": "string"
            },
            {
              "internalType": "address",
              "name": "officer",
              "type": "address"
            },
            {
              "internalType": "string",
              "name": "caseUID",
              "type": "string"
            },
            {
              "internalType": "string",
              "name": "hash",
              "type": "string"
            },
            {
              "internalType": "uint256",
              "name": "timestamp",
              "type": "uint256"
            }
          ],
          "internalType": "struct EMS.Evidence[]",
          "name": "",
          "type": "tuple[]"
        }
      ],
      "stateMutability": "view",
      "type": "function"
    },
    {
      "inputs": [
        {
          "internalType": "uint256",
          "name": "_ID",
          "type": "uint256"
        }
      ],
      "name": "viewEvidenceByID",
      "outputs": [
        {
          "components": [
            {
              "internalType": "uint256",
              "name": "ID",
              "type": "uint256"
            },
            {
              "internalType": "string",
              "name": "filename",
              "type": "string"
            },
            {
              "internalType": "string",
              "name": "filetype",
              "type": "string"
            },
            {
              "internalType": "string",
              "name": "desc",
              "type": "string"
            },
            {
              "internalType": "string",
              "name": "valid",
              "type": "string"
            },
            {
              "internalType": "address",
              "name": "officer",
              "type": "address"
            },
            {
              "internalType": "string",
              "name": "caseUID",
              "type": "string"
            },
            {
              "internalType": "string",
              "name": "hash",
              "type": "string"
            },
            {
              "internalType": "uint256",
              "name": "timestamp",
              "type": "uint256"
            }
          ],
          "internalType": "struct EMS.Evidence",
          "name": "",
          "type": "tuple"
        }
      ],
      "stateMutability": "view",
      "type": "function"
    },
    {
      "inputs": [],
      "name": "viewTrackChangeinCase",
      "outputs": [
        {
          "components": [
            {
              "internalType": "uint256",
              "name": "caseID",
              "type": "uint256"
            },
            {
              "internalType": "string",
              "name": "UID",
              "type": "string"
            },
            {
              "internalType": "string",
              "name": "changeIn",
              "type": "string"
            },
            {
              "internalType": "string",
              "name": "prevValue",
              "type": "string"
            },
            {
              "internalType": "string",
              "name": "updatedValue",
              "type": "string"
            },
            {
              "internalType": "address",
              "name": "updatedBy",
              "type": "address"
            },
            {
              "internalType": "uint256",
              "name": "timestamp",
              "type": "uint256"
            }
          ],
          "internalType": "struct EMS.TrackChangeinCase[]",
          "name": "",
          "type": "tuple[]"
        }
      ],
      "stateMutability": "view",
      "type": "function"
    }
  ],
  "bytecode": "0x608060405260008055600060015534801561001957600080fd5b50614a5f806100296000396000f3fe608060405234801561001057600080fd5b50600436106101375760003560e01c8063b62f444e116100b8578063d3d2bcbd1161007c578063d3d2bcbd14610324578063da2d7e9514610339578063df70e81e14610342578063e49f4d3c14610357578063e5414ca81461036a578063fae1711a1461039257600080fd5b8063b62f444e14610250578063bb69350d1461027b578063c657e22d146102a3578063d061a19e146102e1578063d34bb8d5146102f657600080fd5b806374d95ada116100ff57806374d95ada146101d55780638169c611146101e85780639dce4667146101fb578063a2ed5af01461020e578063b4277ffd1461022557600080fd5b80630c57d2321461013c5780632687ec42146101515780633140ec361461017a57806353fc6cbc146101a057806357958e52146101b5575b600080fd5b61014f61014a366004613f27565b6103b5565b005b61016461015f36600461401c565b610f50565b604051610171919061417d565b60405180910390f35b61018d610188366004614197565b611404565b60405161017197969594939291906141b0565b6101a861167c565b60405161017191906142b8565b6101c86101c3366004614197565b611950565b60405161017191906143f0565b61018d6101e3366004614197565b611e12565b61014f6101f6366004614403565b611e22565b61014f610209366004614470565b612639565b61021760005481565b604051908152602001610171565b61021761023336600461401c565b805160208183018101805160078252928201919093012091525481565b61021761025e36600461401c565b8051602081830181018051600a8252928201919093012091525481565b61028e610289366004614197565b612a35565b60405161017199989796959493929190614542565b6102d16102b136600461401c565b805160208183018101805160098252928201919093012091525460ff1681565b6040519015158152602001610171565b6102e9612dc9565b60405161017191906145e3565b6102d161030436600461401c565b805160208183018101805160068252928201919093012091525460ff1681565b61032c6131b9565b604051610171919061463a565b61021760015481565b61034a6135a7565b6040516101719190614691565b61014f610365366004613f27565b613872565b61037d6103783660046146e8565b613acb565b6040516101719998979695949392919061472d565b6102d16103a0366004614197565b60086020526000908152604090205460ff1681565b6006866040516103c591906147d2565b9081526040519081900360200190205460ff1661041f5760405162461bcd60e51b815260206004820152601360248201527210d85cd9481a5cc81b9bdd081c1c995cd95b9d606a1b60448201526064015b60405180910390fd5b6000600160078860405161043391906147d2565b90815260200160405180910390205461044c9190614804565b90508480519060200120600482815481106104695761046961481d565b906000526020600020906009020160040160405161048791906148e0565b604051809103902014610684576000600482815481106104a9576104a961481d565b906000526020600020906009020160040180546104c590614833565b80601f01602080910402602001604051908101604052809291908181526020018280546104f190614833565b801561053e5780601f106105135761010080835404028352916020019161053e565b820191906000526020600020905b81548152906001019060200180831161052157829003601f168201915b5050505050905085600483815481106105595761055961481d565b90600052602060002090600902016004019081610576919061493d565b5060056040518060e0016040528084600161059191906149fd565b815260208082018c9052604080518082018252600b81526a2232b9b1b934b83a34b7b760a91b818401529083015260608201859052608082018a90523360a08301524260c0909201919091528254600181810185556000948552938290208351600790920201908155908201519192909190820190610610908261493d565b5060408201516002820190610625908261493d565b506060820151600382019061063a908261493d565b506080820151600482019061064f908261493d565b5060a08201516005820180546001600160a01b0319166001600160a01b0390921691909117905560c090910151600690910155505b85805190602001206004828154811061069f5761069f61481d565b90600052602060002090600902016003016040516106bd91906148e0565b6040518091039020146108b3576000600482815481106106df576106df61481d565b906000526020600020906009020160030180546106fb90614833565b80601f016020809104026020016040519081016040528092919081815260200182805461072790614833565b80156107745780601f1061074957610100808354040283529160200191610774565b820191906000526020600020905b81548152906001019060200180831161075757829003601f168201915b50505050509050866004838154811061078f5761078f61481d565b906000526020600020906009020160030190816107ac919061493d565b5060056040518060e001604052808460016107c791906149fd565b815260208082018c905260408051808201825260048152634e616d6560e01b818401529083015260608201859052608082018b90523360a08301524260c090920191909152825460018181018555600094855293829020835160079092020190815590820151919290919082019061083f908261493d565b5060408201516002820190610854908261493d565b5060608201516003820190610869908261493d565b506080820151600482019061087e908261493d565b5060a08201516005820180546001600160a01b0319166001600160a01b0390921691909117905560c090910151600690910155505b8380519060200120600482815481106108ce576108ce61481d565b90600052602060002090600902016005016040516108ec91906148e0565b604051809103902014610ae75760006004828154811061090e5761090e61481d565b9060005260206000209060090201600501805461092a90614833565b80601f016020809104026020016040519081016040528092919081815260200182805461095690614833565b80156109a35780601f10610978576101008083540402835291602001916109a3565b820191906000526020600020905b81548152906001019060200180831161098657829003601f168201915b5050505050905084600483815481106109be576109be61481d565b906000526020600020906009020160030190816109db919061493d565b5060056040518060e001604052808460016109f691906149fd565b815260208082018c9052604080518082018252600981526843617365205479706560b81b818401529083015260608201859052608082018990523360a08301524260c0909201919091528254600181810185556000948552938290208351600790920201908155908201519192909190820190610a73908261493d565b5060408201516002820190610a88908261493d565b5060608201516003820190610a9d908261493d565b5060808201516004820190610ab2908261493d565b5060a08201516005820180546001600160a01b0319166001600160a01b0390921691909117905560c090910151600690910155505b818051906020012060048281548110610b0257610b0261481d565b9060005260206000209060090201600201604051610b2091906148e0565b604051809103902014610d1657600060048281548110610b4257610b4261481d565b90600052602060002090600902016002018054610b5e90614833565b80601f0160208091040260200160405190810160405280929190818152602001828054610b8a90614833565b8015610bd75780601f10610bac57610100808354040283529160200191610bd7565b820191906000526020600020905b815481529060010190602001808311610bba57829003601f168201915b505050505090508260048381548110610bf257610bf261481d565b90600052602060002090600902016003019081610c0f919061493d565b5060056040518060e00160405280846001610c2a91906149fd565b815260208082018c9052604080518082018252600481526314d5525160e21b818401529083015260608201859052608082018790523360a08301524260c0909201919091528254600181810185556000948552938290208351600790920201908155908201519192909190820190610ca2908261493d565b5060408201516002820190610cb7908261493d565b5060608201516003820190610ccc908261493d565b5060808201516004820190610ce1908261493d565b5060a08201516005820180546001600160a01b0319166001600160a01b0390921691909117905560c090910151600690910155505b828051906020012060048281548110610d3157610d3161481d565b9060005260206000209060090201600601604051610d4f91906148e0565b604051809103902014610f4757600060048281548110610d7157610d7161481d565b90600052602060002090600902016006018054610d8d90614833565b80601f0160208091040260200160405190810160405280929190818152602001828054610db990614833565b8015610e065780601f10610ddb57610100808354040283529160200191610e06565b820191906000526020600020905b815481529060010190602001808311610de957829003601f168201915b505050505090508360048381548110610e2157610e2161481d565b90600052602060002090600902016003019081610e3e919061493d565b5060056040518060e00160405280846001610e5991906149fd565b815260208082018c9052604080518082018252600681526553746174757360d01b818401529083015260608201859052608082018890523360a08301524260c0909201919091528254600181810185556000948552938290208351600790920201908155908201519192909190820190610ed3908261493d565b5060408201516002820190610ee8908261493d565b5060608201516003820190610efd908261493d565b5060808201516004820190610f12908261493d565b5060a08201516005820180546001600160a01b0319166001600160a01b0390921691909117905560c090910151600690910155505b50505050505050565b610fa86040518061012001604052806000815260200160608152602001606081526020016060815260200160608152602001606081526020016060815260200160006001600160a01b03168152602001600081525090565b600682604051610fb891906147d2565b9081526040519081900360200190205460ff1661100d5760405162461bcd60e51b815260206004820152601360248201527210d85cd9481a5cc81b9bdd081c1c995cd95b9d606a1b6044820152606401610416565b6000600160078460405161102191906147d2565b90815260200160405180910390205461103a9190614804565b90506004818154811061104f5761104f61481d565b9060005260206000209060090201604051806101200160405290816000820154815260200160018201805461108390614833565b80601f01602080910402602001604051908101604052809291908181526020018280546110af90614833565b80156110fc5780601f106110d1576101008083540402835291602001916110fc565b820191906000526020600020905b8154815290600101906020018083116110df57829003601f168201915b5050505050815260200160028201805461111590614833565b80601f016020809104026020016040519081016040528092919081815260200182805461114190614833565b801561118e5780601f106111635761010080835404028352916020019161118e565b820191906000526020600020905b81548152906001019060200180831161117157829003601f168201915b505050505081526020016003820180546111a790614833565b80601f01602080910402602001604051908101604052809291908181526020018280546111d390614833565b80156112205780601f106111f557610100808354040283529160200191611220565b820191906000526020600020905b81548152906001019060200180831161120357829003601f168201915b5050505050815260200160048201805461123990614833565b80601f016020809104026020016040519081016040528092919081815260200182805461126590614833565b80156112b25780601f10611287576101008083540402835291602001916112b2565b820191906000526020600020905b81548152906001019060200180831161129557829003601f168201915b505050505081526020016005820180546112cb90614833565b80601f01602080910402602001604051908101604052809291908181526020018280546112f790614833565b80156113445780601f1061131957610100808354040283529160200191611344565b820191906000526020600020905b81548152906001019060200180831161132757829003601f168201915b5050505050815260200160068201805461135d90614833565b80601f016020809104026020016040519081016040528092919081815260200182805461138990614833565b80156113d65780601f106113ab576101008083540402835291602001916113d6565b820191906000526020600020905b8154815290600101906020018083116113b957829003601f168201915b505050918352505060078201546001600160a01b031660208201526008909101546040909101529392505050565b6003818154811061141457600080fd5b6000918252602090912060079091020180546001820180549193509061143990614833565b80601f016020809104026020016040519081016040528092919081815260200182805461146590614833565b80156114b25780601f10611487576101008083540402835291602001916114b2565b820191906000526020600020905b81548152906001019060200180831161149557829003601f168201915b5050505050908060020180546114c790614833565b80601f01602080910402602001604051908101604052809291908181526020018280546114f390614833565b80156115405780601f1061151557610100808354040283529160200191611540565b820191906000526020600020905b81548152906001019060200180831161152357829003601f168201915b50505050509080600301805461155590614833565b80601f016020809104026020016040519081016040528092919081815260200182805461158190614833565b80156115ce5780601f106115a3576101008083540402835291602001916115ce565b820191906000526020600020905b8154815290600101906020018083116115b157829003601f168201915b5050505050908060040180546115e390614833565b80601f016020809104026020016040519081016040528092919081815260200182805461160f90614833565b801561165c5780601f106116315761010080835404028352916020019161165c565b820191906000526020600020905b81548152906001019060200180831161163f57829003601f168201915b50505050600583015460069093015491926001600160a01b031691905087565b60606005805480602002602001604051908101604052809291908181526020016000905b8282101561194757838290600052602060002090600702016040518060e0016040529081600082015481526020016001820180546116dd90614833565b80601f016020809104026020016040519081016040528092919081815260200182805461170990614833565b80156117565780601f1061172b57610100808354040283529160200191611756565b820191906000526020600020905b81548152906001019060200180831161173957829003601f168201915b5050505050815260200160028201805461176f90614833565b80601f016020809104026020016040519081016040528092919081815260200182805461179b90614833565b80156117e85780601f106117bd576101008083540402835291602001916117e8565b820191906000526020600020905b8154815290600101906020018083116117cb57829003601f168201915b5050505050815260200160038201805461180190614833565b80601f016020809104026020016040519081016040528092919081815260200182805461182d90614833565b801561187a5780601f1061184f5761010080835404028352916020019161187a565b820191906000526020600020905b81548152906001019060200180831161185d57829003601f168201915b5050505050815260200160048201805461189390614833565b80601f01602080910402602001604051908101604052809291908181526020018280546118bf90614833565b801561190c5780601f106118e15761010080835404028352916020019161190c565b820191906000526020600020905b8154815290600101906020018083116118ef57829003601f168201915b505050918352505060058201546001600160a01b031660208083019190915260069092015460409091015290825260019290920191016116a0565b50505050905090565b6119a8604051806101200160405280600081526020016060815260200160608152602001606081526020016060815260200160006001600160a01b031681526020016060815260200160608152602001600081525090565b600960026119b7600185614804565b815481106119c7576119c761481d565b90600052602060002090600902016007016040516119e591906148e0565b9081526040519081900360200190205460ff16611a3d5760405162461bcd60e51b8152602060048201526016602482015275115d9a59195b98d948191bd95cdb89dd08195e1a5cdd60521b6044820152606401610416565b6002611a4a600184614804565b81548110611a5a57611a5a61481d565b90600052602060002090600902016040518061012001604052908160008201548152602001600182018054611a8e90614833565b80601f0160208091040260200160405190810160405280929190818152602001828054611aba90614833565b8015611b075780601f10611adc57610100808354040283529160200191611b07565b820191906000526020600020905b815481529060010190602001808311611aea57829003601f168201915b50505050508152602001600282018054611b2090614833565b80601f0160208091040260200160405190810160405280929190818152602001828054611b4c90614833565b8015611b995780601f10611b6e57610100808354040283529160200191611b99565b820191906000526020600020905b815481529060010190602001808311611b7c57829003601f168201915b50505050508152602001600382018054611bb290614833565b80601f0160208091040260200160405190810160405280929190818152602001828054611bde90614833565b8015611c2b5780601f10611c0057610100808354040283529160200191611c2b565b820191906000526020600020905b815481529060010190602001808311611c0e57829003601f168201915b50505050508152602001600482018054611c4490614833565b80601f0160208091040260200160405190810160405280929190818152602001828054611c7090614833565b8015611cbd5780601f10611c9257610100808354040283529160200191611cbd565b820191906000526020600020905b815481529060010190602001808311611ca057829003601f168201915b505050918352505060058201546001600160a01b03166020820152600682018054604090920191611ced90614833565b80601f0160208091040260200160405190810160405280929190818152602001828054611d1990614833565b8015611d665780601f10611d3b57610100808354040283529160200191611d66565b820191906000526020600020905b815481529060010190602001808311611d4957829003601f168201915b50505050508152602001600782018054611d7f90614833565b80601f0160208091040260200160405190810160405280929190818152602001828054611dab90614833565b8015611df85780601f10611dcd57610100808354040283529160200191611df8565b820191906000526020600020905b815481529060010190602001808311611ddb57829003601f168201915b505050505081526020016008820154815250509050919050565b6005818154811061141457600080fd5b60096002611e31600186614804565b81548110611e4157611e4161481d565b9060005260206000209060090201600701604051611e5f91906148e0565b9081526040519081900360200190205460ff16611eb75760405162461bcd60e51b8152602060048201526016602482015275115d9a59195b98d948191bd95cdb89dd08195e1a5cdd60521b6044820152606401610416565b60006002611ec6600186614804565b81548110611ed657611ed661481d565b90600052602060002090600902016006018054611ef290614833565b80601f0160208091040260200160405190810160405280929190818152602001828054611f1e90614833565b8015611f6b5780601f10611f4057610100808354040283529160200191611f6b565b820191906000526020600020905b815481529060010190602001808311611f4e57829003601f168201915b5050505050905082805190602001206002600186611f899190614804565b81548110611f9957611f9961481d565b9060005260206000209060090201600401604051611fb791906148e0565b6040518091039020146122d25760006002611fd3600187614804565b81548110611fe357611fe361481d565b90600052602060002090600902016004018054611fff90614833565b80601f016020809104026020016040519081016040528092919081815260200182805461202b90614833565b80156120785780601f1061204d57610100808354040283529160200191612078565b820191906000526020600020905b81548152906001019060200180831161205b57829003601f168201915b5050505050905083600260018761208f9190614804565b8154811061209f5761209f61481d565b906000526020600020906009020160040190816120bc919061493d565b5083600b836040516120ce91906147d2565b9081526040519081900360200190206120e8600188614804565b815481106120f8576120f861481d565b90600052602060002090600902016004019081612115919061493d565b5060036040518060e0016040528087815260200160026001896121389190614804565b815481106121485761214861481d565b9060005260206000209060090201600601805461216490614833565b80601f016020809104026020016040519081016040528092919081815260200182805461219090614833565b80156121dd5780601f106121b2576101008083540402835291602001916121dd565b820191906000526020600020905b8154815290600101906020018083116121c057829003601f168201915b5050509183525050604080518082018252600881526756616c696469747960c01b60208281019190915280840191909152908201859052606082018890523360808301524260a090920191909152825460018181018555600094855293829020835160079092020190815590820151919290919082019061225e908261493d565b5060408201516002820190612273908261493d565b5060608201516003820190612288908261493d565b506080820151600482019061229d908261493d565b5060a08201516005820180546001600160a01b0319166001600160a01b0390921691909117905560c090910151600690910155505b8151602083012060026122e6600187614804565b815481106122f6576122f661481d565b906000526020600020906009020160030160405161231491906148e0565b6040518091039020146126335760006002612330600187614804565b815481106123405761234061481d565b9060005260206000209060090201600301805461235c90614833565b80601f016020809104026020016040519081016040528092919081815260200182805461238890614833565b80156123d55780601f106123aa576101008083540402835291602001916123d5565b820191906000526020600020905b8154815290600101906020018083116123b857829003601f168201915b505050505090508260026001876123ec9190614804565b815481106123fc576123fc61481d565b90600052602060002090600902016003019081612419919061493d565b5082600b8360405161242b91906147d2565b908152604051908190036020019020612445600188614804565b815481106124555761245561481d565b90600052602060002090600902016003019081612472919061493d565b5060036040518060e0016040528087815260200160026001896124959190614804565b815481106124a5576124a561481d565b906000526020600020906009020160060180546124c190614833565b80601f01602080910402602001604051908101604052809291908181526020018280546124ed90614833565b801561253a5780601f1061250f5761010080835404028352916020019161253a565b820191906000526020600020905b81548152906001019060200180831161251d57829003601f168201915b5050509183525050604080518082018252600c81526b2232b9b1b934b834ba34b7b760a11b60208281019190915280840191909152908201859052606082018790523360808301524260a09092019190915282546001818101855560009485529382902083516007909202019081559082015191929091908201906125bf908261493d565b50604082015160028201906125d4908261493d565b50606082015160038201906125e9908261493d565b50608082015160048201906125fe908261493d565b5060a08201516005820180546001600160a01b0319166001600160a01b0390921691909117905560c090910151600690910155505b50505050565b60098160405161264991906147d2565b9081526040519081900360200190205460ff16156126a95760405162461bcd60e51b815260206004820152601960248201527f45766964656e65636520616c726561647920696e204c697374000000000000006044820152606401610416565b6006826040516126b991906147d2565b9081526040519081900360200190205460ff1661270d5760405162461bcd60e51b815260206004820152601260248201527110d85cd948191bd95cdb89dd08195e1a5cdd60721b6044820152606401610416565b60008054908061271c83614a10565b909155505060408051610120810182526000805482526020808301898152838501899052606084018890528451808601909552600585526415985b1a5960da1b9185019190915260808301939093523360a083015260c0820185905260e0820184905242610100830152600280546001810182559152815160099091027f405787fa12a823e0f2b7631cc41b3ba8828b3321ca811111fa75cd3aa3bb5ace81019182559251919290917f405787fa12a823e0f2b7631cc41b3ba8828b3321ca811111fa75cd3aa3bb5acf909101906127f4908261493d565b5060408201516002820190612809908261493d565b506060820151600382019061281e908261493d565b5060808201516004820190612833908261493d565b5060a08201516005820180546001600160a01b0319166001600160a01b0390921691909117905560c0820151600682019061286e908261493d565b5060e08201516007820190612883908261493d565b506101008201518160080155505060016009826040516128a391906147d2565b908152604051908190036020018120805492151560ff199093169290921790915560005490600a906128d69084906147d2565b908152602001604051809103902081905550600b826040516128f891906147d2565b908152604080519182900360209081018320610120840183526000805485528483018a81528585018a9052606086018990528451808601909552600585526415985b1a5960da1b8585015260808601949094523360a086015260c0850187905260e0850186905242610100860152815460018181018455928252929020845160099093020191825591519091820190612991908261493d565b50604082015160028201906129a6908261493d565b50606082015160038201906129bb908261493d565b50608082015160048201906129d0908261493d565b5060a08201516005820180546001600160a01b0319166001600160a01b0390921691909117905560c08201516006820190612a0b908261493d565b5060e08201516007820190612a20908261493d565b50610100820151816008015550505050505050565b60048181548110612a4557600080fd5b60009182526020909120600990910201805460018201805491935090612a6a90614833565b80601f0160208091040260200160405190810160405280929190818152602001828054612a9690614833565b8015612ae35780601f10612ab857610100808354040283529160200191612ae3565b820191906000526020600020905b815481529060010190602001808311612ac657829003601f168201915b505050505090806002018054612af890614833565b80601f0160208091040260200160405190810160405280929190818152602001828054612b2490614833565b8015612b715780601f10612b4657610100808354040283529160200191612b71565b820191906000526020600020905b815481529060010190602001808311612b5457829003601f168201915b505050505090806003018054612b8690614833565b80601f0160208091040260200160405190810160405280929190818152602001828054612bb290614833565b8015612bff5780601f10612bd457610100808354040283529160200191612bff565b820191906000526020600020905b815481529060010190602001808311612be257829003601f168201915b505050505090806004018054612c1490614833565b80601f0160208091040260200160405190810160405280929190818152602001828054612c4090614833565b8015612c8d5780601f10612c6257610100808354040283529160200191612c8d565b820191906000526020600020905b815481529060010190602001808311612c7057829003601f168201915b505050505090806005018054612ca290614833565b80601f0160208091040260200160405190810160405280929190818152602001828054612cce90614833565b8015612d1b5780601f10612cf057610100808354040283529160200191612d1b565b820191906000526020600020905b815481529060010190602001808311612cfe57829003601f168201915b505050505090806006018054612d3090614833565b80601f0160208091040260200160405190810160405280929190818152602001828054612d5c90614833565b8015612da95780601f10612d7e57610100808354040283529160200191612da9565b820191906000526020600020905b815481529060010190602001808311612d8c57829003601f168201915b50505050600783015460089093015491926001600160a01b031691905089565b60606004805480602002602001604051908101604052809291908181526020016000905b8282101561194757838290600052602060002090600902016040518061012001604052908160008201548152602001600182018054612e2b90614833565b80601f0160208091040260200160405190810160405280929190818152602001828054612e5790614833565b8015612ea45780601f10612e7957610100808354040283529160200191612ea4565b820191906000526020600020905b815481529060010190602001808311612e8757829003601f168201915b50505050508152602001600282018054612ebd90614833565b80601f0160208091040260200160405190810160405280929190818152602001828054612ee990614833565b8015612f365780601f10612f0b57610100808354040283529160200191612f36565b820191906000526020600020905b815481529060010190602001808311612f1957829003601f168201915b50505050508152602001600382018054612f4f90614833565b80601f0160208091040260200160405190810160405280929190818152602001828054612f7b90614833565b8015612fc85780601f10612f9d57610100808354040283529160200191612fc8565b820191906000526020600020905b815481529060010190602001808311612fab57829003601f168201915b50505050508152602001600482018054612fe190614833565b80601f016020809104026020016040519081016040528092919081815260200182805461300d90614833565b801561305a5780601f1061302f5761010080835404028352916020019161305a565b820191906000526020600020905b81548152906001019060200180831161303d57829003601f168201915b5050505050815260200160058201805461307390614833565b80601f016020809104026020016040519081016040528092919081815260200182805461309f90614833565b80156130ec5780601f106130c1576101008083540402835291602001916130ec565b820191906000526020600020905b8154815290600101906020018083116130cf57829003601f168201915b5050505050815260200160068201805461310590614833565b80601f016020809104026020016040519081016040528092919081815260200182805461313190614833565b801561317e5780601f106131535761010080835404028352916020019161317e565b820191906000526020600020905b81548152906001019060200180831161316157829003601f168201915b505050918352505060078201546001600160a01b03166020808301919091526008909201546040909101529082526001929092019101612ded565b60606002805480602002602001604051908101604052809291908181526020016000905b828210156119475783829060005260206000209060090201604051806101200160405290816000820154815260200160018201805461321b90614833565b80601f016020809104026020016040519081016040528092919081815260200182805461324790614833565b80156132945780601f1061326957610100808354040283529160200191613294565b820191906000526020600020905b81548152906001019060200180831161327757829003601f168201915b505050505081526020016002820180546132ad90614833565b80601f01602080910402602001604051908101604052809291908181526020018280546132d990614833565b80156133265780601f106132fb57610100808354040283529160200191613326565b820191906000526020600020905b81548152906001019060200180831161330957829003601f168201915b5050505050815260200160038201805461333f90614833565b80601f016020809104026020016040519081016040528092919081815260200182805461336b90614833565b80156133b85780601f1061338d576101008083540402835291602001916133b8565b820191906000526020600020905b81548152906001019060200180831161339b57829003601f168201915b505050505081526020016004820180546133d190614833565b80601f01602080910402602001604051908101604052809291908181526020018280546133fd90614833565b801561344a5780601f1061341f5761010080835404028352916020019161344a565b820191906000526020600020905b81548152906001019060200180831161342d57829003601f168201915b505050918352505060058201546001600160a01b0316602082015260068201805460409092019161347a90614833565b80601f01602080910402602001604051908101604052809291908181526020018280546134a690614833565b80156134f35780601f106134c8576101008083540402835291602001916134f3565b820191906000526020600020905b8154815290600101906020018083116134d657829003601f168201915b5050505050815260200160078201805461350c90614833565b80601f016020809104026020016040519081016040528092919081815260200182805461353890614833565b80156135855780601f1061355a57610100808354040283529160200191613585565b820191906000526020600020905b81548152906001019060200180831161356857829003601f168201915b50505050508152602001600882015481525050815260200190600101906131dd565b60606003805480602002602001604051908101604052809291908181526020016000905b8282101561194757838290600052602060002090600702016040518060e00160405290816000820154815260200160018201805461360890614833565b80601f016020809104026020016040519081016040528092919081815260200182805461363490614833565b80156136815780601f1061365657610100808354040283529160200191613681565b820191906000526020600020905b81548152906001019060200180831161366457829003601f168201915b5050505050815260200160028201805461369a90614833565b80601f01602080910402602001604051908101604052809291908181526020018280546136c690614833565b80156137135780601f106136e857610100808354040283529160200191613713565b820191906000526020600020905b8154815290600101906020018083116136f657829003601f168201915b5050505050815260200160038201805461372c90614833565b80601f016020809104026020016040519081016040528092919081815260200182805461375890614833565b80156137a55780601f1061377a576101008083540402835291602001916137a5565b820191906000526020600020905b81548152906001019060200180831161378857829003601f168201915b505050505081526020016004820180546137be90614833565b80601f01602080910402602001604051908101604052809291908181526020018280546137ea90614833565b80156138375780601f1061380c57610100808354040283529160200191613837565b820191906000526020600020905b81548152906001019060200180831161381a57829003601f168201915b505050918352505060058201546001600160a01b031660208083019190915260069092015460409091015290825260019290920191016135cb565b8560068160405161388391906147d2565b9081526040519081900360200190205460ff16156138e35760405162461bcd60e51b815260206004820181905260248201527f43617365207769746820746869732055494420616c72656164792045786973746044820152606401610416565b600180549060006138f383614a10565b90915550506040805161012081018252600180548252602082018a8152928201899052606082018890526080820187905260a0820186905260c082018590523360e083015242610100830152600480549182018155600052815160099091027f8a35acfbc15ff81a39ae7d344fd709f28e8600b4aa8c65c6b64bfe7fe36bd19b81019182559251919290917f8a35acfbc15ff81a39ae7d344fd709f28e8600b4aa8c65c6b64bfe7fe36bd19c909101906139ad908261493d565b50604082015160028201906139c2908261493d565b50606082015160038201906139d7908261493d565b50608082015160048201906139ec908261493d565b5060a08201516005820190613a01908261493d565b5060c08201516006820190613a16908261493d565b5060e08201516007820180546001600160a01b0319166001600160a01b0390921691909117905561010090910151600890910155604051600190600690613a5e908a906147d2565b908152604051908190036020018120805492151560ff199093169290921790915560015490600790613a91908a906147d2565b9081526040805160209281900383019020929092556001805460009081526008909252919020805460ff1916909117905550505050505050565b8151602081840181018051600b825292820191850191909120919052805482908110613af657600080fd5b906000526020600020906009020160009150915050806000015490806001018054613b2090614833565b80601f0160208091040260200160405190810160405280929190818152602001828054613b4c90614833565b8015613b995780601f10613b6e57610100808354040283529160200191613b99565b820191906000526020600020905b815481529060010190602001808311613b7c57829003601f168201915b505050505090806002018054613bae90614833565b80601f0160208091040260200160405190810160405280929190818152602001828054613bda90614833565b8015613c275780601f10613bfc57610100808354040283529160200191613c27565b820191906000526020600020905b815481529060010190602001808311613c0a57829003601f168201915b505050505090806003018054613c3c90614833565b80601f0160208091040260200160405190810160405280929190818152602001828054613c6890614833565b8015613cb55780601f10613c8a57610100808354040283529160200191613cb5565b820191906000526020600020905b815481529060010190602001808311613c9857829003601f168201915b505050505090806004018054613cca90614833565b80601f0160208091040260200160405190810160405280929190818152602001828054613cf690614833565b8015613d435780601f10613d1857610100808354040283529160200191613d43565b820191906000526020600020905b815481529060010190602001808311613d2657829003601f168201915b505050600584015460068501805494956001600160a01b03909216949193509150613d6d90614833565b80601f0160208091040260200160405190810160405280929190818152602001828054613d9990614833565b8015613de65780601f10613dbb57610100808354040283529160200191613de6565b820191906000526020600020905b815481529060010190602001808311613dc957829003601f168201915b505050505090806007018054613dfb90614833565b80601f0160208091040260200160405190810160405280929190818152602001828054613e2790614833565b8015613e745780601f10613e4957610100808354040283529160200191613e74565b820191906000526020600020905b815481529060010190602001808311613e5757829003601f168201915b5050505050908060080154905089565b634e487b7160e01b600052604160045260246000fd5b600082601f830112613eab57600080fd5b813567ffffffffffffffff80821115613ec657613ec6613e84565b604051601f8301601f19908116603f01168101908282118183101715613eee57613eee613e84565b81604052838152866020858801011115613f0757600080fd5b836020870160208301376000602085830101528094505050505092915050565b60008060008060008060c08789031215613f4057600080fd5b863567ffffffffffffffff80821115613f5857600080fd5b613f648a838b01613e9a565b97506020890135915080821115613f7a57600080fd5b613f868a838b01613e9a565b96506040890135915080821115613f9c57600080fd5b613fa88a838b01613e9a565b95506060890135915080821115613fbe57600080fd5b613fca8a838b01613e9a565b94506080890135915080821115613fe057600080fd5b613fec8a838b01613e9a565b935060a089013591508082111561400257600080fd5b5061400f89828a01613e9a565b9150509295509295509295565b60006020828403121561402e57600080fd5b813567ffffffffffffffff81111561404557600080fd5b61405184828501613e9a565b949350505050565b60005b8381101561407457818101518382015260200161405c565b50506000910152565b60008151808452614095816020860160208601614059565b601f01601f19169290920160200192915050565b60006101208251845260208301518160208601526140c98286018261407d565b915050604083015184820360408601526140e3828261407d565b915050606083015184820360608601526140fd828261407d565b91505060808301518482036080860152614117828261407d565b91505060a083015184820360a0860152614131828261407d565b91505060c083015184820360c086015261414b828261407d565b91505060e083015161416860e08601826001600160a01b03169052565b50610100928301519390920192909252919050565b60208152600061419060208301846140a9565b9392505050565b6000602082840312156141a957600080fd5b5035919050565b87815260e0602082015260006141c960e083018961407d565b82810360408401526141db818961407d565b905082810360608401526141ef818861407d565b90508281036080840152614203818761407d565b6001600160a01b039590951660a0840152505060c0015295945050505050565b805182526000602082015160e0602085015261424260e085018261407d565b90506040830151848203604086015261425b828261407d565b91505060608301518482036060860152614275828261407d565b9150506080830151848203608086015261428f828261407d565b60a0858101516001600160a01b03169087015260c0948501519490950193909352509192915050565b600060208083016020845280855180835260408601915060408160051b87010192506020870160005b8281101561430f57603f198886030184526142fd858351614223565b945092850192908501906001016142e1565b5092979650505050505050565b600061012082518452602083015181602086015261433c8286018261407d565b91505060408301518482036040860152614356828261407d565b91505060608301518482036060860152614370828261407d565b9150506080830151848203608086015261438a828261407d565b91505060a08301516143a760a08601826001600160a01b03169052565b5060c083015184820360c08601526143bf828261407d565b91505060e083015184820360e08601526143d9828261407d565b610100948501519590940194909452509092915050565b602081526000614190602083018461431c565b60008060006060848603121561441857600080fd5b83359250602084013567ffffffffffffffff8082111561443757600080fd5b61444387838801613e9a565b9350604086013591508082111561445957600080fd5b5061446686828701613e9a565b9150509250925092565b600080600080600060a0868803121561448857600080fd5b853567ffffffffffffffff808211156144a057600080fd5b6144ac89838a01613e9a565b965060208801359150808211156144c257600080fd5b6144ce89838a01613e9a565b955060408801359150808211156144e457600080fd5b6144f089838a01613e9a565b9450606088013591508082111561450657600080fd5b61451289838a01613e9a565b9350608088013591508082111561452857600080fd5b5061453588828901613e9a565b9150509295509295909350565b60006101208b835280602084015261455c8184018c61407d565b90508281036040840152614570818b61407d565b90508281036060840152614584818a61407d565b90508281036080840152614598818961407d565b905082810360a08401526145ac818861407d565b905082810360c08401526145c0818761407d565b6001600160a01b039590951660e084015250506101000152979650505050505050565b600060208083016020845280855180835260408601915060408160051b87010192506020870160005b8281101561430f57603f198886030184526146288583516140a9565b9450928501929085019060010161460c565b600060208083016020845280855180835260408601915060408160051b87010192506020870160005b8281101561430f57603f1988860301845261467f85835161431c565b94509285019290850190600101614663565b600060208083016020845280855180835260408601915060408160051b87010192506020870160005b8281101561430f57603f198886030184526146d6858351614223565b945092850192908501906001016146ba565b600080604083850312156146fb57600080fd5b823567ffffffffffffffff81111561471257600080fd5b61471e85828601613e9a565b95602094909401359450505050565b60006101208b83528060208401526147478184018c61407d565b9050828103604084015261475b818b61407d565b9050828103606084015261476f818a61407d565b90508281036080840152614783818961407d565b6001600160a01b03881660a085015283810360c085015290506147a6818761407d565b905082810360e08401526147ba818661407d565b915050826101008301529a9950505050505050505050565b600082516147e4818460208701614059565b9190910192915050565b634e487b7160e01b600052601160045260246000fd5b81810381811115614817576148176147ee565b92915050565b634e487b7160e01b600052603260045260246000fd5b600181811c9082168061484757607f821691505b60208210810361486757634e487b7160e01b600052602260045260246000fd5b50919050565b6000815461487a81614833565b6001828116801561489257600181146148a7576148d6565b60ff19841687528215158302870194506148d6565b8560005260208060002060005b858110156148cd5781548a8201529084019082016148b4565b50505082870194505b5050505092915050565b6000614190828461486d565b601f821115614938576000816000526020600020601f850160051c810160208610156149155750805b601f850160051c820191505b8181101561493457828155600101614921565b5050505b505050565b815167ffffffffffffffff81111561495757614957613e84565b61496b816149658454614833565b846148ec565b602080601f8311600181146149a057600084156149885750858301515b600019600386901b1c1916600185901b178555614934565b600085815260208120601f198616915b828110156149cf578886015182559484019460019091019084016149b0565b50858210156149ed5787850151600019600388901b60f8161c191681555b5050505050600190811b01905550565b80820180821115614817576148176147ee565b600060018201614a2257614a226147ee565b506001019056fea2646970667358221220257e5537986b44691403b9cced97a3fd6ca1bf3e373f25b9966d6c6a20abbbce64736f6c63430008180033",
  "linkReferences": {},
  "deployedLinkReferences": {}
}